:1000000051C100006EC100006CC100006AC1000057
:1000100068C100000C946F080C94C7090C94190B6C
:100020000C94670C5EC100005CC100005AC1000066
:100030000C94BD0D56C1000054C1000052C1000017
:1000400050C100004EC100004CC100004AC1000078
:1000500048C1000046C1000044C1000042C1000088
:1000600040C100003EC100003CC100003AC1000098
:1000700038C1000036C1000034C1000032C10000A8
:1000800030C100002EC100002CC1000000000000A3
:100090000000005F00000007000700147F147F14B9
:1000A000242A7F2A122313086462364955225000FD
:1000B00005030000001C2241000041221C0014081E
:1000C0003E081408083E08080050300000080808E0
:1000D0000808006060000020100804023E514945F5
:1000E0003E00427F400042615149462141454B312B
:1000F0001814127F1027454545393C4A49493001BB
:10010000710905033649494936064949291E003611
:100110003600000056360000081422410014141462
:100120001414004122140802015109063249794190
:100130003E7E1111117E7F494949363E414141229F
:100140007F4141221C7F494949417F090909013EFC
:100150004149497A7F0808087F00417F41002040DB
:10016000413F017F081422417F404040407F020C04
:10017000027F7F0408107F3E4141413E7F0909090B
:10018000063E4151215E7F091929464649494931B8
:1001900001017F01013F4040403F1F2040201F3FA1
:1001A0004038403F63140814630708700807615122
:1001B000494543007F4141000204081020004141AD
:1001C0007F0004020102044040404040000102045C
:1001D0000020545454787F484444383844444420E0
:1001E000384444487F3854545418087E0901020C9E
:1001F0005252523E7F0804047800447D4000204063
:10020000443D007F1028440000417F40007C0418DA
:1002100004787C0804047838444444387C1414146A
:1002200008081414187C7C0804040848545454200A
:10023000043F4440203C4040207C1C2040201C3C8B
:100240004030403C44281028440C5050503C4464FA
:10025000544C44000836410000007F000000413645
:1002600008001008081008784641467800660066C5
:100270000066006600F0444400F04444006C408C8A
:10028000006C408C00C6804C00C6804C004E808CB8
:1002900000E4404C002E40C400E8C088008EC044FA
:1002A00000E280C811241FBECFEFD0E1DEBFCDBF7A
:1002B00017E0A0E0B1E0EAE8FDE400E00BBF02C017
:1002C00007900D92AA31B107D9F728E0AAE1B7E06B
:1002D00001C01D92AF3BB207E1F70E94621A0C9475
:1002E000C3268ECECF93DF93CDB7DEB728970FB658
:1002F000F894DEBF0FBECDBF8E8378876F831A82DE
:10030000198229C02F813885C901019698878F836A
:100310008E81082E000C990BAC0140525109CA0184
:10032000880F991F880F991F840F951F49815A8143
:10033000840F951F84579F4F9C838B838B819C8157
:10034000FC0184918D838D81F901808389819A815B
:1003500001969A83898389819A8105979CF28F817E
:100360009885FC011082000028960FB6F894DEBF35
:100370000FBECDBFDF91CF910895CF93DF93CDB75F
:10038000DEB780E790E024EAFC0124830000DF91DF
:10039000CF910895CF93DF93CDB7DEB780E790E09C
:1003A00024E9FC0124830000DF91CF910895CF93CD
:1003B000DF93CDB7DEB7000080E790E0FC018481D9
:1003C0008823D4F70000DF91CF910895CF93DF9376
:1003D000CDB7DEB780E790E0FC018181887FDF91B7
:1003E000CF910895CF93DF931F92CDB7DEB7898366
:1003F00080E790E02981FC01238380E790E024E8F6
:10040000FC01248300000F90DF91CF910895CF93DA
:10041000DF93CDB7DEB7B1DFCADFD8DF883019F0A0
:100420008FEF9FEF02C080E090E0DF91CF910895C1
:10043000CF93DF93CDB7DEB7ADDF0000DF91CF9173
:100440000895CF93DF9300D0CDB7DEB78A838A813A
:10045000882F90E081709927892B11F080E401C0EA
:1004600088E189838A81BEDFA2DFB0DF982F89818E
:10047000981719F08FEF9FEF02C080E090E00F9087
:100480000F90DF91CF910895CF93DF931F92CDB757
:10049000DEB789838981A6DF8ADF98DF883219F089
:1004A0008FEF9FEF02C080E090E00F90DF91CF913F
:1004B0000895CF93DF93CDB7DEB728970FB6F894A2
:1004C000DEBF0FBECDBF8B836C835E834D833887C9
:1004D0002F839DDF892B19F08FEF9FEF30C08B8129
:1004E000880FAFDF892B19F08FEF9FEF28C08C8129
:1004F000CBDF892B19F08FEF9FEF21C01A82198271
:1005000014C08D819E819C012F5F3F4F3E832D83C0
:10051000FC018081B9DF892B19F08FEF9FEF0FC0AD
:1005200089819A8101969A83898329813A818F8171
:100530009885281739072CF37BDF80E090E0289618
:100540000FB6F894DEBF0FBECDBFDF91CF910895F7
:10055000CF93DF93CDB7DEB780E790E025E0FC01D5
:10056000208380E790E0FC0111820000DF91CF91B1
:100570000895CF93DF93CDB7DEB78AE290E028E10C
:10058000FC01208385E990E026E0FC01208389E2DC
:1005900090E027E6FC0120830000DF91CF910895D1
:1005A000CF93DF931F92CDB7DEB7898300008BE234
:1005B00090E0FC018081882F90E080729927892B40
:1005C000B1F38CE290E02981FC01208300000F90C0
:1005D000DF91CF910895CF93DF93CDB7DEB76797C3
:1005E0000FB6F894DEBF0FBECDBF8F8B1A82198273
:1005F0008EE7D6DF8FEFD4DF86E0D2DF8F89D0DFC2
:1006000080E0CEDF80E0CCDF8F89893071F080E040
:10061000C7DF8F89882F90E02BEF3EEFA901481BA1
:10062000590BCA019A8389830DC082E0B9DF8F8993
:10063000882F90E029EF3EEFA901481B590BCA0112
:100640009A83898389819A81892F9927A9DF898152
:10065000A7DF8FEEA5DF000067960FB6F894DEBF28
:100660000FBECDBFDF91CF910895CF93DF93CDB76C
:10067000DEB769970FB6F894DEBF0FBECDBF8F8B84
:10068000688F498F1A8219828EE78ADF8FEF88DFA1
:1006900086E086DF8F8984DF80E082DF888D80DFDF
:1006A000898D7EDF8F89882F90E09C012B5F3E4FE4
:1006B000888D882F90E0280F391F898D882F90E032
:1006C000820F931F9195819591099A8389838981DE
:1006D0009A81892F992764DF898162DF8FEE60DF3D
:1006E000000069960FB6F894DEBF0FBECDBFDF9154
:1006F000CF910895CF93DF9300D01F92CDB7DEB78F
:100700009A8389836B838B81282F30E089819A813A
:10071000AC0160E08CE3CDDE00000F900F900F90F5
:10072000DF91CF910895CF93DF9300D000D0CDB764
:10073000DEB79A8389837C836B832B813C8189819B
:100740009A81AC0160E48CE3B4DE00000F900F905E
:100750000F900F90DF91CF910895CF93DF93CDB796
:10076000DEB70000DF91CF910895CF93DF9300D0E3
:1007700000D0CDB7DEB79C838B838DE889838B81D6
:100780009C81892B11F084E101C080E18A8362E0C1
:10079000CE010196AFDF00000F900F900F900F90E9
:1007A000DF91CF910895CF93DF9300D01F92CDB703
:1007B000DEB79B838A838A81846A898361E0CE0164
:1007C000019698DF00000F900F900F90DF91CF916E
:1007D0000895CF93DF9300D01F92CDB7DEB79B83F0
:1007E0008A838A818E6A898361E0CE01019682DFE5
:1007F00000000F900F900F90DF91CF910895CF934D
:10080000DF9300D01F92CDB7DEB78B8380E2898360
:100810008B818A8362E0CE0101966CDF00000F902D
:100820000F900F90DF91CF910895CF93DF9300D079
:10083000CDB7DEB78A838A81806B898361E0CE0180
:10084000019658DF00000F900F90DF91CF9108952F
:10085000CF93DF9300D0CDB7DEB78A838A818F70C4
:10086000898361E0CE01019645DF8A8182958F7090
:100870008061898361E0CE0101963CDF00000F902A
:100880000F90DF91CF910895CF93DF9300D01F9207
:10089000CDB7DEB79B838A838A81806A898361E0D2
:1008A000CE01019627DF00000F900F900F90DF918F
:1008B000CF910895CF93DF9300D01F92CDB7DEB7CD
:1008C0009B838A838A81866A898361E0CE0101964F
:1008D00011DF00000F900F900F90DF91CF910895DE
:1008E000CF93DF9300D01F92CDB7DEB79B838A836F
:1008F0008A81886C898361E0CE010196FBDE00006D
:100900000F900F900F90DF91CF910895CF93DF93C9
:10091000CDB7DEB72E970FB6F894DEBF0FBECDBFB2
:1009200080E090E0A0E8BFE389839A83AB83BC8337
:1009300020E030E04AE755E469817A818B819C812F
:100940000E948A22DC01CB018D839E83AF83B8870E
:1009500020E030E040E85FE36D817E818F81988503
:100960000E94092288232CF481E090E09A878987ED
:100970003FC020E03FEF4FE757E46D817E818F81DC
:1009800098850E94862218164CF520E030E040E25F
:1009900051E469817A818B819C810E948A22DC01E9
:1009A000CB01BC01CD010E940D22DC01CB019A8755
:1009B00089870FC080E991E09C878B878B859C8518
:1009C0000197F1F79C878B8789859A8501979A878C
:1009D000898789859A85892B69F714C06D817E8105
:1009E0008F8198850E940D22DC01CB019A8789872F
:1009F00089859A859E878D878D859E850197F1F7DC
:100A00009E878D87AADE81E090E0AFDE80E090E0F7
:100A1000CADE81E090E0DDDE00002E960FB6F8948D
:100A2000DEBF0FBECDBFDF91CF910895CF93DF938F
:100A300000D0CDB7DEB71A820AC08A81882F90E035
:100A4000865E984FFC0110828A818F5F8A838A813B
:100A500088239CF719820AC08981E7DE60E870E08C
:100A60008AE197E060DE89818F5F898389818830A0
:100A700098F380E0EDDE00000F900F90DF91CF91B2
:100A80000895CF93DF93CDB7DEB76C970FB6F89488
:100A9000DEBF0FBECDBFCE0187969E838D834D8175
:100AA0005E812DA13EA1CE010796B9010E9491233E
:100AB0009C838B838B819C81181619060CF03BC09C
:100AC0001A8219821CC029813A81C901880F991F95
:100AD000820F931F880F991FAC01465E584F9E01ED
:100AE000295F3F4F89819A81820F931FFC0180818A
:100AF000BA01F8DB89819A8101969A8389832981D9
:100B00003A818B819C8128173907ECF289A18DDE0F
:100B10009BA1892F880F890F880F9ADE2B813C813A
:100B2000C901880F991F820F931F880F991FBC015D
:100B30008AE197E0F8DD8B819C816C960FB6F89482
:100B4000DEBF0FBECDBFDF91CF910895CF93DF936E
:100B500000D01F92CDB7DEB79B838A83198215C060
:100B6000898163DE8981882F90E09695982F882768
:100B7000979587959C018A819B81820F931F60E8DE
:100B800070E0D1DD89818F5F89838981883040F36E
:100B900000000F900F900F90DF91CF910895CF93A9
:100BA000DF93CDB7DEB7D4DCB1DE82E028DE3EDFF6
:100BB00080E090E095DE81E090E066DE80E090E00D
:100BC00079DE0000DF91CF910895CF93DF93CDB709
:100BD000DEB780912908882F90E0880F991F880F31
:100BE000991F8456984FFC012081318142815381A5
:100BF00080912C0890912D08A0912E08B0912F087B
:100C000082239323A423B52361E0892B8A2B8B2B8A
:100C100009F460E080912908882F90E00196880F00
:100C2000991F880F991F8456984FFC0120813181AC
:100C3000428153818091300890913108A09132080F
:100C4000B091330882239323A423B52321E0892B79
:100C50008A2B8B2B09F420E0862F822B682F70E0E3
:100C600080912908882F90E00296880F991F880F9D
:100C7000991F8456984FFC01208131814281538114
:100C80008091340890913508A0913608B0913708CA
:100C900082239323A423B52321E0892B8A2B8B2B3A
:100CA00009F420E0822F90E0682B792B80912908AD
:100CB000882F90E00396880F991F880F991F8456FC
:100CC000984FFC0120813181428153818091380805
:100CD00090913908A0913A08B0913B088223932360
:100CE000A423B52321E0892B8A2B8B2B09F420E048
:100CF000822F90E0862B972B892B11F081E001C089
:100D000080E0DF91CF910895CF93DF9300D0CDB7EE
:100D1000DEB71A82198212C089819A81880F991FC1
:100D2000880F991F845D974FFC01108211821282F7
:100D3000138289819A8101969A83898389819A8114
:100D4000049754F380912A08823009F0E1C0809121
:100D50003C08482F50E080912B08882F90E02CE62B
:100D600032E0440F551F440F551F840F951F880F05
:100D7000991F820F931FFC01859195913297CC01A9
:100D8000A0E0B0E08827907FAA27BB2720912A08FF
:100D9000222F30E04FE050E0BA01621B730B9B0141
:100DA00004C0B695A795979587952A95D2F7809315
:100DB0002C0890932D08A0932E08B0932F088091B3
:100DC0003C08482F50E080912B08882F90E02CE6BB
:100DD00032E0440F551F440F551F840F951F880F95
:100DE000991F820F931FFC01859195913297CC0139
:100DF000A0E0B0E088279F70AA27BB2720912A088F
:100E0000222F30E04BE050E0BA01621B730B9B01D4
:100E100004C0B695A795979587952A95D2F78093A4
:100E2000300890933108A0933208B0933308809132
:100E30003C08482F50E080912B08882F90E02CE64A
:100E400032E0440F551F440F551F840F951F880F24
:100E5000991F820F931FFC01859195913297CC01C8
:100E6000A0E0B0E0807F9927AA27BB2720912A081D
:100E7000222F30E047E050E0BA01621B730B9B0168
:100E800004C0B695A795979587952A95D2F7809334
:100E9000340890933508A0933608B09337088091B2
:100EA0003C08482F50E080912B08882F90E02CE6DA
:100EB00032E0440F551F440F551F840F951F880FB4
:100EC000991F820F931FFC01859195913297CC0158
:100ED000A0E0B0E08F709927AA27BB2720912A08AD
:100EE000222F30E043E050E0BA01621B730B9B01FC
:100EF00004C0B695A795979587952A95D2F78093C4
:100F0000380890933908A0933A08B0933B08E1C0A1
:100F100080912A08833008F4DCC080913C08482F77
:100F200050E080912B08882F90E02CE632E0440FAF
:100F3000551F440F551F840F951F880F991F820F4F
:100F4000931FFC01859195913297892F992782955E
:100F50008F70CC01A0E0B0E020912A08222F30E071
:100F60002350310904C0880F991FAA1FBB1F2A955F
:100F7000D2F780932C0890932D08A0932E08B0935D
:100F80002F0880913C08482F50E080912B08882F33
:100F900090E02CE632E0440F551F440F551F840F9C
:100FA000951F880F991F820F931FFC0185919591C2
:100FB0003297CC01A0E0B0E088279F70AA27BB271A
:100FC000892F9A2FAB2FBB2720912A08222F30E0A0
:100FD0002350310904C0880F991FAA1FBB1F2A95EF
:100FE000D2F78093300890933108A0933208B093E1
:100FF000330880913C08482F50E080912B08882FBF
:1010000090E02CE632E0440F551F440F551F840F2B
:10101000951F880F991F820F931FFC018591959151
:101020003297CC01A0E0B0E0807F9927AA27BB27A8
:10103000689413F8B695A795979587951694D1F768
:1010400020912A08222F30E02350310904C0880F54
:10105000991FAA1FBB1F2A95D2F78093340890933B
:101060003508A0933608B093370880913C08482F84
:1010700050E080912B08882F90E02CE632E0440F5E
:10108000551F440F551F840F951F880F991F820FFE
:10109000931FFC01859195913297CC01A0E0B0E0BF
:1010A0008F709927AA27BB2720912A08222F30E08A
:1010B0002350310904C0880F991FAA1FBB1F2A950E
:1010C000D2F78093380890933908A0933A08B093E8
:1010D0003B0800000F900F90DF91CF9108951F9271
:1010E0000F9200905F000F92112400905B000F920E
:1010F0002F933F934F935F936F937F938F939F9320
:10110000AF93BF93EF93FF93CF93DF9300D0CDB70F
:10111000DEB743E061E08FE0A8DA80919A07882388
:1011200021F482E080939A0718C180919A07813058
:1011300021F483E080939A0710C180919A0782304E
:1011400079F480910601909107018B34910509F49F
:1011500004C18DE490E09093070180930601FDC0E7
:1011600080919A07833009F0F6C01A8219821FC055
:1011700089819A81880F991F880F991F8456984FEB
:10118000FC0180819181A281B38129813A81220F62
:10119000331F220F331F215C374FF9018083918366
:1011A000A283B38389819A8101969A8389838981F5
:1011B0009A818097ECF280912A08833030F08091F8
:1011C0002A08815080932A0803C082E080932A086D
:1011D0009BDDFBDC813029F480912A088F5F8093AE
:1011E0002A0892DD80912908682F70E080912908F3
:1011F000882F90E0880F991F880F991F815C974F67
:10120000FC01208131814281538180912C08909191
:101210002D08A0912E08B0912F08822B932BA42B80
:10122000B52B9B01220F331F220F331F215C374F39
:10123000F90180839183A283B38380912908882F49
:1012400090E0BC016F5F7F4F80912908882F90E06C
:101250000196880F991F880F991F815C974FFC0199
:1012600020813181428153818091300890913108F1
:10127000A0913208B0913308822B932BA42BB52B6D
:101280009B01220F331F220F331F215C374FF901BF
:1012900080839183A283B38380912908882F90E073
:1012A000BC016E5F7F4F80912908882F90E00296E5
:1012B000880F991F880F991F815C974FFC0120812F
:1012C0003181428153818091340890913508A091F9
:1012D0003608B0913708822B932BA42BB52B9B019A
:1012E000220F331F220F331F215C374FF9018083F8
:1012F0009183A283B38380912908882F90E0BC0159
:101300006D5F7F4F80912908882F90E00396880FAA
:10131000991F880F991F815C974FFC0120813181B3
:10132000428153818091380890913908A0913A0800
:10133000B0913B08822B932BA42BB52B9B01220F42
:10134000331F220F331F215C374FF90180839183B4
:10135000A283B38302C010929A0700000F900F90EF
:10136000DF91CF91FF91EF91BF91AF919F918F91BD
:101370007F916F915F914F913F912F910F900092CC
:101380005B000F9000925F000F901F9018951F92C6
:101390000F9200905F000F92112400905B000F925B
:1013A0002F933F934F935F936F937F938F939F936D
:1013B000AF93BF93EF93FF93CF93DF9300D0CDB75D
:1013C000DEB743E061E08FE050D980919A0788232F
:1013D00021F481E080939A0712C180919A078130AD
:1013E00019F410929A070BC180919A07823079F410
:1013F00080910601909107018035910509F4FFC0A5
:1014000088E490E09093070180930601F8C08091F2
:101410009A07833009F0F3C01A8219821FC08981AC
:101420009A81880F991F880F991F8456984FFC0145
:1014300080819181A281B38129813A81220F331F5A
:10144000220F331F215C374FF90180839183A283E0
:10145000B38389819A8101969A83898389819A814C
:101460008097ECF280912B088F5F80932B088091FE
:101470002B08843011F410922B0846DCA6DB813057
:1014800029F480912B08815080932B083DDC8091BA
:101490002908682F70E080912908882F90E0880F34
:1014A000991F880F991F815C974FFC012081318122
:1014B0004281538180912C0890912D08A0912E0893
:1014C000B0912F08822B932BA42BB52B9B01220FBD
:1014D000331F220F331F215C374FF9018083918323
:1014E000A283B38380912908882F90E0BC016F5FAD
:1014F0007F4F80912908882F90E00196880F991FCF
:10150000880F991F815C974FFC01208131814281B6
:1015100053818091300890913108A0913208B091A8
:101520003308822B932BA42BB52B9B01220F331F47
:10153000220F331F215C374FF90180839183A283EF
:10154000B38380912908882F90E0BC016E5F7F4FA4
:1015500080912908882F90E00296880F991F880FA4
:10156000991F815C974FFC01208131814281538119
:101570008091340890913508A0913608B0913708D1
:10158000822B932BA42BB52B9B01220F331F220FF1
:10159000331F215C374FF90180839183A283B3838A
:1015A00080912908882F90E0BC016D5F7F4F80916A
:1015B0002908882F90E00396880F991F880F991F9C
:1015C000815C974FFC012081318142815381809160
:1015D000380890913908A0913A08B0913B08822BC5
:1015E000932BA42BB52B9B01220F331F220F331FEC
:1015F000215C374FF90180839183A283B38300007C
:101600000F900F90DF91CF91FF91EF91BF91AF912C
:101610009F918F917F916F915F914F913F912F910A
:101620000F9000925B000F9000925F000F901F9050
:1016300018951F920F9200905F000F921124009056
:101640005B000F922F933F934F935F936F937F9322
:101650008F939F93AF93BF93EF93FF93CF93DF93BA
:1016600000D0CDB7DEB743E061E08FE00E943503E4
:1016700080919A07882321F481E080939A070DC115
:1016800080919A07813019F410929A0706C18091CF
:101690009A07823079F4809106019091070188348D
:1016A000910509F4FAC080E590E0909307018093DA
:1016B0000601F3C080919A07833009F0EEC01A82C8
:1016C00019821FC089819A81880F991F880F991FDD
:1016D0008456984FFC0180819181A281B381298138
:1016E0003A81220F331F220F331F215C374FF9013C
:1016F00080839183A283B38389819A8101969A839F
:10170000898389819A818097ECF2FEDA05C0809105
:1017100029088F5F8093290858DA8823C1F38091C4
:101720002908815080932908EFDA80912908682FD1
:1017300070E080912908882F90E0880F991F880F0A
:10174000991F815C974FFC01208131814281538137
:1017500080912C0890912D08A0912E08B0912F080F
:10176000822B932BA42BB52B9B01220F331F220F0F
:10177000331F215C374FF90180839183A283B383A8
:1017800080912908882F90E0BC016F5F7F4F809186
:101790002908882F90E00196880F991F880F991FBC
:1017A000815C974FFC01208131814281538180917E
:1017B000300890913108A0913208B0913308822B03
:1017C000932BA42BB52B9B01220F331F220F331F0A
:1017D000215C374FF90180839183A283B383809189
:1017E0002908882F90E0BC016E5F7F4F8091290807
:1017F000882F90E00296880F991F880F991F815CAF
:10180000974FFC01208131814281538180913408BE
:1018100090913508A0913608B0913708822B932B10
:10182000A42BB52B9B01220F331F220F331F215CEA
:10183000374FF90180839183A283B3838091290874
:10184000882F90E0BC016D5F7F4F80912908882F21
:1018500090E00396880F991F880F991F815C974F1E
:10186000FC0120813181428153818091380890911F
:101870003908A0913A08B0913B08822B932BA42BF6
:10188000B52B9B01220F331F220F331F215C374FD3
:10189000F90180839183A283B38300000F900F909E
:1018A000DF91CF91FF91EF91BF91AF919F918F9178
:1018B0007F916F915F914F913F912F910F90009287
:1018C0005B000F9000925F000F901F9018951F9281
:1018D0000F9200905F000F92112400905B000F9216
:1018E0002F933F934F935F936F937F938F939F9328
:1018F000AF93BF93EF93FF93CF93DF9300D0CDB718
:10190000DEB743E061E08FE00E94350380919A07E3
:10191000882321F482E080939A0715C180919A0769
:10192000813021F483E080939A070DC180919A075A
:101930008230A1F480910601909107018D349105C8
:1019400009F401C143E061E08FE00E9435038BE4BC
:1019500090E09093070180930601F5C080919A076B
:10196000833009F0EEC01A8219821FC089819A81E2
:10197000880F991F880F991F8456984FFC0180810A
:101980009181A281B38129813A81220F331F220FD5
:10199000331F215C374FF90180839183A283B38386
:1019A00089819A8101969A83898389819A81809716
:1019B000ECF280912A088F5F80932A08A5D905D977
:1019C000813029F480912A08815080932A089CD97B
:1019D00080912908682F70E080912908882F90E075
:1019E000880F991F880F991F815C974FFC012081F8
:1019F00031814281538180912C0890912D08A091D2
:101A00002E08B0912F08822B932BA42BB52B9B0172
:101A1000220F331F220F331F215C374FF9018083C0
:101A20009183A283B38380912908882F90E0BC0121
:101A30006F5F7F4F80912908882F90E00196880F73
:101A4000991F880F991F815C974FFC01208131817C
:101A5000428153818091300890913108A0913208E1
:101A6000B0913308822B932BA42BB52B9B01220F13
:101A7000331F220F331F215C374FF901808391837D
:101A8000A283B38380912908882F90E0BC016E5F08
:101A90007F4F80912908882F90E00296880F991F28
:101AA000880F991F815C974FFC0120813181428111
:101AB00053818091340890913508A0913608B091F7
:101AC0003708822B932BA42BB52B9B01220F331F9E
:101AD000220F331F215C374FF90180839183A2834A
:101AE000B38380912908882F90E0BC016D5F7F4F00
:101AF00080912908882F90E00396880F991F880FFE
:101B0000991F815C974FFC01208131814281538173
:101B10008091380890913908A0913A08B0913B081B
:101B2000822B932BA42BB52B9B01220F331F220F4B
:101B3000331F215C374FF90180839183A283B383E4
:101B400002C010929A0700000F900F90DF91CF9182
:101B5000FF91EF91BF91AF919F918F917F916F9185
:101B60005F914F913F912F910F9000925B000F90EA
:101B700000925F000F901F9018951F920F92009097
:101B80005F000F92112400905B000F922F933F9300
:101B90004F935F936F937F938F939F93AF93BF9375
:101BA000EF93FF93CF93DF9300D000D0CDB7DEB794
:101BB00080919A07833009F0D3C180911C08882353
:101BC00009F0CEC11A8219821FC089819A81880FBB
:101BD000991F880F991F8456984FFC01808191812D
:101BE000A281B38129813A81220F331F220F331F33
:101BF000215C374FF90180839183A283B38389816C
:101C00009A8101969A83898389819A818097ECF2DF
:101C1000809129088F5F809329080E94E505813013
:101C200009F0C0C0809129088150809329088091D3
:101C30002908682F70E080912908882F90E0880F8C
:101C4000991F880F991F8456984FFC01208131817C
:101C50004281538180912C0890912D08A0912E08EB
:101C6000B0912F08822B932BA42BB52B9B01220F15
:101C7000331F220F331F2456384FF901808391837D
:101C8000A283B38380912908882F90E0BC016F5F05
:101C90007F4F80912908882F90E00196880F991F27
:101CA000880F991F8456984FFC0120813181428111
:101CB00053818091300890913108A0913208B09101
:101CC0003308822B932BA42BB52B9B01220F331FA0
:101CD000220F331F2456384FF90180839183A2834A
:101CE000B38380912908882F90E0BC016E5F7F4FFD
:101CF00080912908882F90E00296880F991F880FFD
:101D0000991F8456984FFC01208131814281538173
:101D10008091340890913508A0913608B091370829
:101D2000822B932BA42BB52B9B01220F331F220F49
:101D3000331F2456384FF90180839183A283B383E4
:101D400080912908882F90E0BC016D5F7F4F8091C2
:101D50002908882F90E00396880F991F880F991FF4
:101D60008456984FFC0120813181428153818091BA
:101D7000380890913908A0913A08B0913B08822B1D
:101D8000932BA42BB52B9B01220F331F220F331F44
:101D90002456384FF90180839183A283B38381E075
:101DA00080931C081C821B821FC08B819C81880F22
:101DB000991F880F991F8456984FFC01808191814B
:101DC000A281B3812B813C81220F331F220F331F4D
:101DD000215C374FF90180839183A283B3838B8188
:101DE0009C8101969C838B838B819C818097ECF2F4
:101DF00080912908682F70E080912908882F90E051
:101E0000880F991F880F991F815C974FFC012081D3
:101E100031814281538180912C0890912D08A091AD
:101E20002E08B0912F08822B932BA42BB52B9B014E
:101E3000220F331F220F331F215C374FF90180839C
:101E40009183A283B38380912908882F90E0BC01FD
:101E50006F5F7F4F80912908882F90E00196880F4F
:101E6000991F880F991F815C974FFC012081318158
:101E7000428153818091300890913108A0913208BD
:101E8000B0913308822B932BA42BB52B9B01220FEF
:101E9000331F220F331F215C374FF9018083918359
:101EA000A283B38380912908882F90E0BC016E5FE4
:101EB0007F4F80912908882F90E00296880F991F04
:101EC000880F991F815C974FFC01208131814281ED
:101ED00053818091340890913508A0913608B091D3
:101EE0003708822B932BA42BB52B9B01220F331F7A
:101EF000220F331F215C374FF90180839183A28326
:101F0000B38380912908882F90E0BC016D5F7F4FDB
:101F100080912908882F90E00396880F991F880FD9
:101F2000991F815C974FFC0120813181428153814F
:101F30008091380890913908A0913A08B0913B08F7
:101F4000822B932BA42BB52B9B01220F331F220F27
:101F5000331F215C374FF90180839183A283B383C0
:101F600000000F900F900F900F90DF91CF91FF9195
:101F7000EF91BF91AF919F918F917F916F915F9101
:101F80004F913F912F910F9000925B000F90009224
:101F90005F000F901F901895CF93DF9300D000D073
:101FA000CDB7DEB78BE992E0892F8F938BE992E072
:101FB0008F931F9283E08F931F921F920E9441057F
:101FC0000F900F900F900F900F900F901A82198220
:101FD0001DC082E00E94150489810E94280461E0EE
:101FE00070E088E091E00E94930387E00E9415046E
:101FF00089810E94280461E070E089E091E00E94FC
:10200000930389819A8101969A83898389819A8130
:1020100080389105F4F21C821B821AC08B810E94C9
:10202000150480E00E94280461E070E08AE091E0FD
:102030000E9493038FE70E94280461E070E08AE029
:1020400091E00E9493038B819C8101969C838B83FA
:102050008B819C81089714F309D02FD300000F9037
:102060000F900F900F90DF91CF910895CF93DF9352
:10207000CDB7DEB7C750D3400FB6F894DEBF0FBE62
:10208000CDBF20E033E0CE010896DC01F9011D92BE
:102090003197E9F71A8219827BC01C821B826DC0BE
:1020A0008B819C81892BB1F440910A0189819A81AD
:1020B0009695982F8827979587959E012F5F3F4F7C
:1020C000280F391F8B819C81820F931F0796DC019B
:1020D0004C934EC08B819C818F379105B1F4409118
:1020E0000A0189819A819695982F882797958795D7
:1020F0009E012F5F3F4F280F391F8B819C81820FDC
:10210000931F0796FC01408333C089819A81892BF4
:10211000B1F44091080189819A819695982F88277A
:10212000979587959E012F5F3F4F280F391F8B8111
:102130009C81820F931F0796DC014C9319C0898103
:102140009A810597A9F44091090189819A81969510
:10215000982F8827979587959E012F5F3F4F280FCF
:10216000391F8B819C81820F931F0796FC0140834E
:102170008B819C8101969C838B838B819C81803891
:1021800091050CF48DCF89819A8101969A83898378
:1021900089819A8106970CF480CF80913D089091B7
:1021A0003E08880F991F99230CF4079695958795FB
:1021B00095958795959587959C0180912708909195
:1021C0002808AC01440F551F8091270890912808DA
:1021D000880F991FB9017695762F662777956795B1
:1021E000FE0131966E0F7F1F860F971F0796DC0149
:1021F0008C91E82F80913D0890913E08880F991F9F
:1022000087709078992324F40197886F9F6F0196C7
:10221000BC0183E090E002C0880F991F6A95E2F745
:102220008E2B682FC9019695982F882797958795AB
:102230009E012F5F3F4F820F931F840F951F0796BC
:10224000FC01608380913D0890913E08880F991FA2
:1022500099230CF40796959587959595879595956F
:1022600087959C018091270890912808880F991FD5
:10227000AC014F5F5F4F8091270890912808880F2D
:10228000991F0196B9017695762F66277795679500
:10229000FE0131966E0F7F1F860F971F0796DC0198
:1022A0008C91E82F80913D0890913E08880F991FEE
:1022B00087709078992324F40197886F9F6F019617
:1022C000BC0183E090E002C0880F991F6A95E2F795
:1022D0008E2B682FC9019695982F882797958795FB
:1022E0009E012F5F3F4F820F931F840F951F07960C
:1022F000FC0160831E821D82C3C08D819E818D5230
:102300009E4FDC018C91882F90E0880F991F9923B4
:102310000CF407969595879595958795959587954E
:102320002D813E81255F3E4FF9012081222F30E033
:10233000220F331F4D815E81455F5E4FDA014C9164
:10234000442F50E0440F551FBC017695762F662729
:1023500077956795FE0131966E0F7F1F460F571FC9
:10236000495F5F4FFA014081E42F4D815E814D52FC
:102370005E4FDA014C91442F50E0440F551FBA01D3
:102380006670772743E050E002C0440F551F6A95FE
:10239000E2F74E2B642F9695982F8827979587956F
:1023A000AE014F5F5F4F840F951F820F931F0796FB
:1023B000FC0160838D819E818D529E4FDC018C914A
:1023C000882F90E0880F991F99230CF40796959514
:1023D000879595958795959587952D813E81255F64
:1023E0003E4FF9012081222F30E0220F331F2F5F53
:1023F0003F4F4D815E81455F5E4FDA014C91442F26
:1024000050E0440F551F4F5F5F4FBC017695762F0C
:10241000662777956795FE0131966E0F7F1F460FF1
:10242000571F495F5F4FFA014081E42F4D815E8164
:102430004D525E4FDA014C91442F50E0440F551F2E
:10244000BA016670772743E050E002C0440F551F81
:102450006A95E2F74E2B642F9695982F88279795CB
:102460008795AE014F5F5F4F840F951F820F931FBB
:102470000796FC0160838D819E8101969E838D83EA
:1024800080910401909105012D813E812817390723
:102490000CF433CF82E08F8318C08F810E94150423
:1024A0008F81882F90E002979E01285F3F4F96957D
:1024B000982F882797958795820F931F60E870E083
:1024C0000E9493038F818F5F8F838F81883028F3E1
:1024D0000000C95FDC4F0FB6F894DEBF0FBECDBF62
:1024E000DF91CF910895CF93DF9300D000D000D03B
:1024F000CDB7DEB79E838D8380910B01282F30E00E
:10250000809127089091280828173907D9F58091DC
:10251000D301282F30E080913D0890913E08281784
:10252000390781F5CAD08091040190910501019687
:10253000909305018093040180910401909105011D
:102540000197209104013091050122503109255F46
:102550003E4FF9012081855F9E4FFC0120838091D1
:10256000040190910501019720910401309105012A
:10257000225031092D523E4FF90120818D529E4F3C
:10258000FC01208380910B01882361F080910B0175
:102590008F3341F08091D301882321F08091D301C2
:1025A000873111F4FBD080C081E090E09A83898369
:1025B0001BC020910B0189819A81855F9E4FFC0190
:1025C0008081281761F42091D30189819A818D52ED
:1025D0009E4FFC018081281711F4E0D065C08981ED
:1025E0009A8101969A8389838091040190910501D3
:1025F00029813A8128173907E4F2809104019091EA
:10260000050101979C838B831FC08B819C8101975F
:10261000855F9E4FFC0120818B819C81855F9E4F51
:10262000FC0120838B819C8101978D529E4FFC0180
:1026300020818B819C818D529E4FFC0120838B8158
:102640009C8101979C838B838B819C811816190632
:10265000E4F28D819E818B34910531F480910B01E0
:10266000815080930B0120C08D819E818D34910516
:1026700031F480910B018F5F80930B0115C08D8128
:102680009E818834910531F48091D30181508093EB
:10269000D3010AC08D819E818035910529F48091F6
:1026A000D3018F5F8093D30126960FB6F894DEBFD7
:1026B0000FBECDBFDF91CF910895CF93DF9300D0B0
:1026C00000D000D0CDB7DEB71A8219821E821D82DB
:1026D0001A82198282E590E0FC018081882F90E0C7
:1026E0000E9486230E9483232EE330E0B9010E94DA
:1026F0001523029690932808809327080E9483232D
:1027000026E130E0B9010E941523029690933E081D
:1027100080933D081C821B8228C08B819C81855F31
:102720009E4FFC018081282F30E0809127089091F6
:10273000280828173907A1F48B819C818D529E4F60
:10274000FC018081282F30E080913D0890913E0867
:102750002817390729F481E090E09A8389830EC015
:102760008B819C8101969C838B8380910401909145
:1027700005012B813C81281739077CF289819A81D8
:10278000019709F4A5CF0000000026960FB6F89433
:10279000DEBF0FBECDBFDF91CF910895CF93DF9302
:1027A000CDB7DEB72E970FB6F894DEBF0FBECDBF04
:1027B0004FE060E086E00E94350380E090E0A8E40E
:1027C000B3E489839A83AB83BC8320E030E04AE79B
:1027D00055E469817A818B819C810E948A22DC0187
:1027E000CB018D839E83AF83B88720E030E040E843
:1027F0005FE36D817E818F8198850E940922882305
:102800002CF481E090E09A8789873FC020E03FEF79
:102810004FE757E46D817E818F8198850E948622E3
:1028200018164CF520E030E040E251E469817A81ED
:102830008B819C810E948A22DC01CB01BC01CD01ED
:102840000E940D22DC01CB019A8789870FC080E9A5
:1028500091E09C878B878B859C850197F1F79C87FE
:102860008B8789859A8501979A87898789859A8533
:10287000892B69F714C06D817E818F8198850E94B4
:102880000D22DC01CB019A87898789859A859E87ED
:102890008D878D859E850197F1F79E878D8744E012
:1028A00061E08FE00E9435030E94A82180E00E9431
:1028B000280484E080939A0700002E960FB6F894BF
:1028C000DEBF0FBECDBFDF91CF910895CF93DF93D1
:1028D000CDB7DEB7C550D3400FB6F894DEBF0FBEFC
:1028E000CDBF20E033E0CE010696FC01A901119294
:1028F00041505040E1F71A821982F0C11C821B82BC
:10290000E3C18B819C81880F991F880F991F815C7F
:10291000974FFC0180819181A281B381098004C01D
:10292000B695A795979587950A94D2F781709927C0
:10293000AA27BB27892B8A2B8B2B09F4C0C189813D
:102940009A8181709927892B09F0DDC089819A814C
:1029500099230CF40196959587952B813C81220F44
:10296000331F220F331F4B815C81440F551F440FCF
:10297000551FBC017695762F662777956795FE01E2
:1029800031966E0F7F1F460F571F4B5F5F4FFA0147
:102990004081642F6F609695982F8827979587952B
:1029A000AE014F5F5F4F840F951F820F931F0596F7
:1029B000FC01608389819A8199230CF40196959595
:1029C00087952B813C81220F331F220F331F2F5FEE
:1029D0003F4F4B815C81440F551F440F551F4F5F84
:1029E0005F4FBC017695762F662777956795FE0138
:1029F00031966E0F7F1F460F571F4B5F5F4FFA01D7
:102A00004081642F6F609695982F882797958795BA
:102A1000AE014F5F5F4F840F951F820F931F059686
:102A2000FC01608389819A8199230CF40196959524
:102A300087952B813C81220F331F220F331F2E5F7E
:102A40003F4F4B815C81440F551F440F551F4E5F14
:102A50005F4FBC017695762F662777956795FE01C7
:102A600031966E0F7F1F460F571F4B5F5F4FFA0166
:102A70004081642F6F609695982F8827979587954A
:102A8000AE014F5F5F4F840F951F820F931F059616
:102A9000FC01608389819A8199230CF401969595B4
:102AA00087952B813C81220F331F220F331F2D5F0F
:102AB0003F4F4B815C81440F551F440F551F4D5FA5
:102AC0005F4FBC017695762F662777956795FE0157
:102AD00031966E0F7F1F460F571F4B5F5F4FFA01F6
:102AE0004081642F6F609695982F882797958795DA
:102AF000AE014F5F5F4F840F951F820F931F0596A6
:102B0000FC016083DCC089819A8199230CF40196D1
:102B1000959587952B813C81220F331F220F331F00
:102B20004B815C81440F551F440F551FBC017695A6
:102B3000762F662777956795FE0131966E0F7F1F7A
:102B4000460F571F4B5F5F4FFA014081642F606F44
:102B50009695982F882797958795AE014F5F5F4F81
:102B6000840F951F820F931F0596FC016083898156
:102B70009A8199230CF40196959587952B813C8138
:102B8000220F331F220F331F2F5F3F4F4B815C817A
:102B9000440F551F440F551F4F5F5F4FBC01769583
:102BA000762F662777956795FE0131966E0F7F1F0A
:102BB000460F571F4B5F5F4FFA014081642F606FD4
:102BC0009695982F882797958795AE014F5F5F4F11
:102BD000840F951F820F931F0596FC0160838981E6
:102BE0009A8199230CF40196959587952B813C81C8
:102BF000220F331F220F331F2E5F3F4F4B815C810B
:102C0000440F551F440F551F4E5F5F4FBC01769513
:102C1000762F662777956795FE0131966E0F7F1F99
:102C2000460F571F4B5F5F4FFA014081642F606F63
:102C30009695982F882797958795AE014F5F5F4FA0
:102C4000840F951F820F931F0596FC016083898175
:102C50009A8199230CF40196959587952B813C8157
:102C6000220F331F220F331F2D5F3F4F4B815C819B
:102C7000440F551F440F551F4D5F5F4FBC017695A4
:102C8000762F662777956795FE0131966E0F7F1F29
:102C9000460F571F4B5F5F4FFA014081642F606FF3
:102CA0009695982F882797958795AE014F5F5F4F30
:102CB000840F951F820F931F0596FC0160838B8103
:102CC0009C8101969C838B838B819C8180970CF4E3
:102CD00018CE89819A8101969A83898389819A8104
:102CE0000C970CF40BCE82E08D8318C08D810E946E
:102CF00015048D81882F90E002979E012A5F3F4F37
:102D00009695982F882797958795820F931F60E84F
:102D100070E00E9493038D818F5F8D838D81883059
:102D200028F30000CB5FDC4F0FB6F894DEBF0FBE78
:102D3000CDBFDF91CF910895CF93DF9300D000D026
:102D4000CDB7DEB710921C0880911E0880933C0816
:102D500082E590E0FC01208185E2289F812D1124ED
:102D6000922F981B9695890F982F96959695892F57
:102D7000880F880F880F891B922F981B90931E082D
:102D800010922B081092290886E080932A080E944E
:102D9000840680912908882F90E0880F991F880F5A
:102DA000991F815C974FFC0180819181A281B38141
:102DB000282F80912C0890912D08A0912E08B09179
:102DC0002F08922F982380911D08892B80931D082E
:102DD00080912908882F90E00196880F991F880F0D
:102DE000991F815C974FFC0180819181A281B38101
:102DF000282F8091300890913108A0913208B0912D
:102E00003308922F982380911D08892B80931D08E9
:102E100080912908882F90E00296880F991F880FCB
:102E2000991F815C974FFC0180819181A281B381C0
:102E3000282F8091340890913508A0913608B091E0
:102E40003708922F982380911D08892B80931D08A5
:102E500080912908882F90E00396880F991F880F8A
:102E6000991F815C974FFC0180819181A281B38180
:102E7000282F8091380890913908A0913A08B09194
:102E80003B08922F982380911D08892B80931D0861
:102E900080911D08882309F458C01A82198217C02E
:102EA00089819A81880F991F880F991F9C01245648
:102EB000384F81E098E0A0E0B0E0F9018083918391
:102EC000A283B38389819A8101969A8389838981B8
:102ED0009A814F972CF38FEF9FE0A0E0B0E08093B2
:102EE000180890931908A0931A08B0931B081C8225
:102EF0001B8217C08B819C81880F991F880F991F97
:102F00009C01215C374F81E098E0A0E0B0E0F9013E
:102F100080839183A283B3838B819C8101969C8360
:102F20008B838B819C814F972CF38FEF9FE0A0E0E8
:102F3000B0E08093BB089093BC08A093BD08B09309
:102F4000BE08C4DC85E080939A0780919A0783309D
:102F500009F0B8C080912908682F70E08091290895
:102F6000882F90E0880F991F880F991F815C974FD9
:102F7000FC01208131814281538180912C08909104
:102F80002D08A0912E08B0912F08822B932BA42BF3
:102F9000B52B9B01220F331F220F331F215C374FAC
:102FA000F90180839183A283B38380912908882FBC
:102FB00090E0BC016F5F7F4F80912908882F90E0DF
:102FC0000196880F991F880F991F815C974FFC010C
:102FD0002081318142815381809130089091310864
:102FE000A0913208B0913308822B932BA42BB52BE0
:102FF0009B01220F331F220F331F215C374FF90132
:1030000080839183A283B38380912908882F90E0E5
:10301000BC016E5F7F4F80912908882F90E0029657
:10302000880F991F880F991F815C974FFC012081A1
:103030003181428153818091340890913508A0916B
:103040003608B0913708822B932BA42BB52B9B010C
:10305000220F331F220F331F215C374FF90180836A
:103060009183A283B38380912908882F90E0BC01CB
:103070006D5F7F4F80912908882F90E00396880F1D
:10308000991F880F991F815C974FFC012081318126
:10309000428153818091380890913908A0913A0873
:1030A000B0913B08822B932BA42BB52B9B01220FB5
:1030B000331F220F331F215C374FF9018083918327
:1030C000A283B38300000F900F900F900F90DF91B9
:1030D000CF910895CF93DF93CDB7DEB7C950D140DC
:1030E0000FB6F894DEBF0FBECDBF1A8219820BC097
:1030F00089819A81815E974FFC01108289819A8132
:1031000001969A83898389819A8108978CF38091AB
:103110002108482F80911E08882F90E02CE632E08D
:10312000880F991F880F991F880F991F820F931F6F
:10313000FC018591959132978827907F892F992757
:1031400086958695842B8093210880912208482FAC
:1031500080911E08882F90E02CE632E0880F991F9E
:10316000880F991F880F991F820F931FFC0185916B
:103170009591329788279F700024880F991F001C13
:10318000880F991F001C892F902D842B8093220873
:1031900080912308482F80911E08882F90E02CE60C
:1031A00032E0880F991F880F991F880F991F820F8F
:1031B000931FFC01859195913297807F9927969571
:1031C000879596958795842B8093230840912408B2
:1031D00080911E08882F90E02CE632E0880F991F1E
:1031E000880F991F880F991F820F931FFC018591EB
:1031F000959132978F70880F880F842B80932408C5
:1032000020E031E0CE010A96FC01A9011192415063
:103210005040E1F78FEF8C87CE0184579F4F2FEFFF
:10322000FC0120838FEF8B8FCE0185569F4F2FEFB0
:10323000FC01208382E090E09C838B832DC09E0163
:10324000265F3F4F8B819C81820F931FFC01808101
:10325000482F41609E01265F3F4F8B819C81820FEA
:10326000931FFC0140839E0126573F4F8B819C8119
:10327000820F931FFC018081482F40689E012657D2
:103280003F4F8B819C81820F931FFC0140838B8178
:103290009C8101969C838B838B819C8142977CF2DD
:1032A0001E821D82E3C018861F82D6C08D819E813A
:1032B000815E974FFC018081882F90E00F8002C0D3
:1032C000959587950A94E2F781709927892B09F4DF
:1032D000BEC08F81988504970CF05DC08D819E8162
:1032E0000196880F991F2D813E812F5F3F4F220F3E
:1032F000331FAE0146575F4F240F351FF901208160
:10330000622F43E050E02F813885FA01E21BF30B76
:103310009F01A901440F551F23E030E002C0220F96
:10332000331F4A95E2F7262B422F9E0126573F4F27
:10333000820F931FFC0140838D819E81880F991F0E
:1033400003962D813E81220F331F2D5F3F4FAE012B
:1033500046575F4F240F351FF9012081622F43E04C
:1033600050E02F813885FA01E21BF30B9F01A90180
:10337000440F551F23E030E002C0220F331F4A954F
:10338000E2F7262B422F9E0126573F4F820F931FB5
:10339000FC0140835CC08D819E810196880F991F3E
:1033A0002D813E812F5F3F4F220F331FAE01465FBD
:1033B0005F4F240F351FF9012081622F47E050E055
:1033C0002F813885FA01E21BF30B9F01A901440FFD
:1033D000551F23E030E002C0220F331F4A95E2F769
:1033E000262B422F9E01265F3F4F820F931FFC0129
:1033F00040838D819E81880F991F03962D813E8188
:10340000220F331F2D5F3F4FAE01465F5F4F240FEA
:10341000351FF9012081622F47E050E02F81388568
:10342000FA01E21BF30B9F01A901440F551F23E092
:1034300030E002C0220F331F4A95E2F7262B422FBD
:103440009E01265F3F4F820F931FFC0140838F81B7
:103450009885019698878F838F81988508970CF4BB
:1034600025CF8D819E8101969E838D838D819E8146
:1034700008970CF418CF198617C089850E94150487
:103480008985882F90E09E01265F3F4F9695982F63
:10349000882797958795820F931F60E870E00E94B8
:1034A000930389858F5F89878985823030F3000097
:1034B000C75FDE4F0FB6F894DEBF0FBECDBFDF9102
:1034C000CF9108950F931F93CF93DF93CDB7DEB7BE
:1034D000C256D1090FB6F894DEBF0FBECDBF0E9411
:1034E000B90289E00E94EB0280E090E0A0EAB1E43A
:1034F000898F9A8FAB8FBC8F8E01015B1F4F20E0AD
:1035000030E04AE755E4698D7A8D8B8D9C8D0E9461
:103510008A22DC01CB01F80180839183A283B383EB
:10352000CE01815B9F4F20E030E040E85FE3FC018B
:1035300060817181828193816CD788234CF4CE01A4
:103540008D5A9F4F21E030E0FC013183208365C01C
:10355000CE01815B9F4F20E03FEF4FE757E4FC0136
:103560006081718182819381D1D718160CF044C09B
:1035700020E030E040E251E4698D7A8D8B8D9C8DA6
:10358000C9D7DC01CB018E010D5A1F4FBC01CD0103
:1035900044D7DC01CB01F8019183808324C0CE01A4
:1035A0008B5A9F4F20E931E0FC0131832083CE010B
:1035B0008B5A9F4FFC01808191810197F1F79E0109
:1035C0002B5A3F4FF90191838083CE018D5A9F4F33
:1035D0009E012D5A3F4FF90120813181215031093F
:1035E000FC0131832083CE018D5A9F4FFC018081E5
:1035F0009181892BA1F62BC08E010D5A1F4FCE0150
:10360000815B9F4FFC01608171818281938105D72D
:10361000DC01CB01F80191838083CE01895A9F4F51
:103620009E012D5A3F4FF90120813181FC013183E8
:103630002083CE01895A9F4FFC018081918101979F
:10364000F1F79E01295A3F4FF901918380834FE0A2
:1036500060E086E00E94350380E090E0A8E4B3E4F7
:103660008D8F9E8FAF8FB8A38E010B5B1F4F20E015
:1036700030E04AE755E46D8D7E8D8F8D98A14AD755
:10368000DC01CB01F80180839183A283B383CE0157
:103690008B5B9F4F20E030E040E85FE3FC016081FE
:1036A000718182819381B5D688234CF4CE01875BEA
:1036B0009F4F21E030E0FC013183208365C0CE01C3
:1036C0008B5B9F4F20E03FEF4FE757E4FC016081A9
:1036D0007181828193811AD718160CF044C020E0C2
:1036E00030E040E251E46D8D7E8D8F8D98A112D730
:1036F000DC01CB018E01075B1F4FBC01CD018DD6D4
:10370000DC01CB01F8019183808324C0CE01855B6D
:103710009F4F20E931E0FC0131832083CE01855B9E
:103720009F4FFC01808191810197F1F79E01255BFC
:103730003F4FF90191838083CE01875B9F4F9E01AC
:10374000275B3F4FF9012081318121503109FC0174
:1037500031832083CE01875B9F4FFC018081918163
:10376000892BA1F62BC08E01075B1F4FCE018B5B0F
:103770009F4FFC0160817181828193814ED6DC0173
:10378000CB01F80191838083CE01835B9F4F9E0123
:10379000275B3F4FF90120813181FC013183208378
:1037A000CE01835B9F4FFC01808191810197F1F7EE
:1037B0009E01235B3F4FF9019183808341E061E0EB
:1037C0008FE00E94350380E090E0A8E4B3E489A391
:1037D0009AA3ABA3BCA320E030E04AE755E469A17B
:1037E0007AA18BA19CA196D6DC01CB018BAF9CAFBB
:1037F000ADAFBEAF20E030E040E85FE36BAD7CAD45
:103800008DAD9EAD06D6882344F421E030E0CE0194
:10381000CF96FC01318320835BC020E03FEF4FE770
:1038200057E46BAD7CAD8DAD9EAD70D618160CF027
:1038300042C020E030E040E251E469A17AA18BA1CE
:103840009CA168D6DC01CB01BC01CD01E6D5DC0131
:10385000CB019E01215C3F4FF9019183808323C0FE
:10386000CE018F5B9F4F20E931E0FC013183208343
:10387000CE018F5B9F4FFC01808191810197F1F711
:103880009E012F5B3F4FF90191838083CE01CF963C
:10389000FC01808191819C0121503109CE01CF969C
:1038A000FC0131832083CE01CF96FC018081918180
:1038B000892BB1F627C06BAD7CAD8DAD9EADADD57E
:1038C000DC01CB019E01215C3F4FF9019183808394
:1038D000CE018D5B9F4F9E01215C3F4FF9012081FE
:1038E0003181FC0131832083CE018D5B9F4FFC0130
:1038F000808191810197F1F79E012D5B3F4FF90186
:103900009183808383E590E027E0FC0120838FE4AE
:1039100090E02FE430E0F9012081FC0120838EE467
:1039200090E02EE430E0F90120812D60FC0120833D
:103930008AE490E02FEF3FE0FC013183208381E3B4
:1039400090E0FC0110828AE590E02AEAFC012083E5
:103950008AE690E020E8FC01208389E590E020EFF2
:10396000FC01208378940E94CF058AE193E00E94B5
:10397000A60580E090E0AAE7B4E48DA79EA7AFA7D4
:10398000B8AB20E030E04AE755E46DA57EA58FA5F1
:1039900098A9C0D5DC01CB0189AB9AABABABBCAB72
:1039A00020E030E040E85FE369A97AA98BA99CA9EF
:1039B00030D588232CF481E090E09EAB8DAB3BC0EA
:1039C00020E03FEF4FE757E469A97AA98BA99CA9AA
:1039D0009DD518163CF520E030E040E251E46DA59D
:1039E0007EA58FA598A996D5DC01CB01BC01CD01A0
:1039F00014D5DC01CB019EAB8DAB0FC080E991E00B
:103A000098AF8FAB8FA998AD0197F1F798AF8FABB7
:103A10008DA99EA901979EAB8DAB8DA99EA9892BDF
:103A200069F713C069A97AA98BA99CA9F6D4DC010E
:103A3000CB019EAB8DAB8DA99EA99AAF89AF89AD05
:103A40009AAD0197F1F79AAF89AF0E9416051A82D5
:103A500019821DC082E00E94150489810E942804F9
:103A600061E070E088E091E00E94930387E00E94AB
:103A7000150489810E94280461E070E089E091E0EA
:103A80000E94930389819A8101969A83898389810F
:103A90009A8180389105F4F21C821B821AC08B81B6
:103AA0000E94150480E00E94280461E070E08AE032
:103AB00091E00E9493038FE70E94280461E070E088
:103AC0008AE091E00E9493038B819C8101969C8304
:103AD0008B838B819C81089714F380919A078630A1
:103AE00009F04AC00E9416051E821D821DC082E098
:103AF0000E9415048D810E94280461E070E088E036
:103B000091E00E94930387E00E9415048D810E943A
:103B1000280461E070E089E091E00E9493038D81C8
:103B20009E8101969E838D838D819E818038910533
:103B3000F4F218861F821AC08F810E94150480E05B
:103B40000E94280461E070E08AE091E00E94930303
:103B50008FE70E94280461E070E08AE091E00E9413
:103B600093038F819885019698878F838F8198859D
:103B7000089714F310929A0780919A07882309F006
:103B800045C08CEA92E0892F8F938CEA92E08F9364
:103B90001F9283E08F931F921F920E9441050F9006
:103BA0000F900F900F900F900F908DEB92E0892F58
:103BB0008F938DEB92E08F931F9283E08F931F92F0
:103BC00083E08F930E9441050F900F900F900F900C
:103BD0000F900F908BEC92E0892F8F938BEC92E0FB
:103BE0008F931F9283E08F931F9286E08F930E94A2
:103BF00041050F900F900F900F900F900F9080E065
:103C00000E94150480E00E94280467CF80919A07E3
:103C1000813009F045C08CEA92E0892F8F938CEABD
:103C200092E08F931F9283E08F931F921F920E94C6
:103C300041050F900F900F900F900F900F9085ED12
:103C400092E0892F8F9385ED92E08F931F9283E00E
:103C50008F931F9283E08F930E9441050F900F90E6
:103C60000F900F900F900F9083EE92E0892F8F931B
:103C700083EE92E08F931F9283E08F931F9286E0F2
:103C80008F930E9441050F900F900F900F900F900F
:103C90000F9080E00E94150480E00E9428041DCF50
:103CA00080919A07823009F0D7C187E590E027E537
:103CB00030E0F9012081FC01208380E280930B0138
:103CC0008FE180930C018EE180930D018CE0809355
:103CD000D3018CE08093D4018CE08093D50183E004
:103CE00090E09A8789870BC089859A85855F9E4F6A
:103CF000FC01108289859A8501969A878987898532
:103D00009A85883C910584F383E090E09C878B87BB
:103D10000BC08B859C858D529E4FFC0110828B853C
:103D20009C8501969C878B878B859C85883C91051B
:103D300084F383E090E090930501809304018DE487
:103D400090E090930701809306010E9416050E945F
:103D5000CC0F7CC187E290E020E4FC01208386E266
:103D600090E027ECFC012083000086E290E0FC015B
:103D70008081882F90E080719927892BB1F386E2AA
:103D800090E026E230E0F90120812061FC012083EF
:103D900084E290E0FC0180819181CC01A0E0B0E060
:103DA0008DA39EA3AFA3B8A78DA19EA1AFA1B8A5D7
:103DB00085369105A105B1059CF48091060190918D
:103DC00007018B34910561F043E061E08FE00E94D0
:103DD00035038DE490E090930701809306011BC0AA
:103DE0008DA19EA1AFA1B8A580329340A105B105D8
:103DF00094F080910601909107018D34910559F05E
:103E000043E061E08FE00E9435038BE490E0909303
:103E100007018093060187E290E021E4FC01208302
:103E200086E290E027ECFC012083000086E290E02F
:103E3000FC018081882F90E080719927892BB1F354
:103E400086E290E026E230E0F90120812061FC0169
:103E5000208384E290E0FC0180819181CC01A0E08C
:103E6000B0E089A79AA7ABA7BCA789A59AA5ABA5DF
:103E7000BCA580329340A105B1059CF0809106015C
:103E8000909107018035910561F043E061E08FE09A
:103E90000E94350388E490E0909307018093060127
:103EA0001BC089A59AA5ABA5BCA585369105A10522
:103EB000B10594F480910601909107018834910531
:103EC00059F043E061E08FE00E94350380E590E027
:103ED000909307018093060180910601909107015C
:103EE0000E9473120E94361080E090E0A0EAB2E4D3
:103EF0008D8B9E8BAF8BB88F8E01075A1F4F20E0A2
:103F000030E04AE755E46D897E898F89988D02D328
:103F1000DC01CB01F80180839183A283B383CE01BE
:103F2000875A9F4F20E030E040E85FE3FC0160816A
:103F30007181828193816DD288234CF4CE01835AA2
:103F40009F4F21E030E0FC013183208365C0CE012A
:103F5000875A9F4F20E03FEF4FE757E4FC01608115
:103F6000718182819381D2D218160CF044C020E076
:103F700030E040E251E46D897E898F89988DCAD204
:103F8000DC01CB018E01035A1F4FBC01CD0145D28C
:103F9000DC01CB01F8019183808324C0CE01815ADA
:103FA0009F4F20E931E0FC0131832083CE01815A0B
:103FB0009F4FFC01808191810197F1F79E01215A69
:103FC0003F4FF90191838083CE01835A9F4F9E0119
:103FD000235A3F4FF9012081318121503109FC01E1
:103FE00031832083CE01835A9F4FFC0180819181D0
:103FF000892BA1F62BC08E01035A1F4FCE01875A81
:104000009F4FFC01608171818281938106D2DC0126
:10401000CB01F80191838083CE018F599F4F9E0180
:10402000235A3F4FF90120813181FC0131832083E4
:10403000CE018F599F4FFC01808191810197F1F74B
:104040009E012F593F4FF9019183808380919A07F8
:10405000823009F47FCE41CD80919A07833009F0F8
:10406000CBC087E590E027E530E0F90120812061B1
:10407000FC0120831E861D8617C08D859E85880FB6
:10408000991F880F991F9C012456384F81E098E0B2
:10409000A0E0B0E0F90180839183A283B3838D8592
:1040A0009E8501969E878D878D859E854F972CF3E3
:1040B0008FEF9FE0A0E0B0E080931808909319087C
:1040C000A0931A08B0931B0891C0188A1F8653C08A
:1040D0008F859889880F991F880F991F8456984F4C
:1040E000FC0180819181A281B3818F3F9F40A10516
:1040F000B105E1F58F859889880F991F880F991F61
:104100009C012456384F81E098E0A0E0B0E0F9012E
:1041100080839183A283B3838F8598899A8B898BBF
:1041200020C089899A890197880F991F880F991F44
:104130008456984FFC0180819181A281B3812989A5
:104140003A89220F331F220F331F2456384FF901AB
:1041500080839183A283B38389899A8901979A8BFB
:10416000898B89899A8918161906DCF28F859889B6
:104170000196988B8F878F8598894F970CF4A8CFDD
:104180001C8A1B8A1FC08B899C89880F991F880FE6
:10419000991F8456984FFC0180819181A281B3813F
:1041A0002B893C89220F331F220F331F215C374F8D
:1041B000F90180839183A283B3838B899C890196C3
:1041C0009C8B8B8B8B899C898097ECF20E949C1630
:1041D00080919A07833009F0B9C00E946A1802C022
:1041E0000E94661480911C088823D1F380919A075D
:1041F000833009F46ACF71CC80919A07843009F03A
:104200004FC00E94160544C08DEE92E0892F8F9317
:104210008DEE92E08F931F9285E08F931F921F92F5
:104220000E9441050F900F900F900F900F900F90EC
:1042300089EF92E0892F8F9389EF92E08F931F92FD
:1042400085E08F931F9283E08F930E9441050F902A
:104250000F900F900F900F900F9084E093E0892FB4
:104260008F9384E093E08F931F9285E08F931F924A
:1042700086E08F930E9441050F900F900F900F9052
:104280000F900F9080E00E94150480E00E942804A7
:1042900080919A07843009F4B7CF0E9416051DCC8F
:1042A00080919A07853009F018CC10921D080E9461
:1042B000160544C08FE093E0892F8F938FE093E041
:1042C0008F931F9285E08F931F921F920E9441054A
:1042D0000F900F900F900F900F900F9089EF92E03A
:1042E000892F8F9389EF92E08F931F9285E08F93B0
:1042F0001F9283E08F930E9441050F900F900F90C3
:104300000F900F900F9084E093E0892F8F9384E0BB
:1043100093E08F931F9285E08F931F9286E08F9397
:104320000E9441050F900F900F900F900F900F90EB
:1043300080E00E94150480E00E94280480919A0782
:10434000853009F4B7CF0E941605C7CB0000C5CB56
:10435000CF93DF9300D000D000D0CDB7DEB781E09F
:1043600090E09A8389831FC083E090E09C838B83D5
:1043700011C08B810E94150489810E94280461E08C
:1043800070E08BE997E00E9493038B819C810196FA
:104390009C838B838B819C8107975CF389819A81B5
:1043A00001969A83898389819A818F379105E4F2F6
:1043B00081E090E09E838D831DC082E00E94150401
:1043C0008D810E94280461E070E088E091E00E9405
:1043D000930387E00E9415048D810E94280461E008
:1043E00070E089E091E00E9493038D819E810196A7
:1043F0009E838D838D819E818F379105F4F200001D
:1044000026960FB6F894DEBF0FBECDBFDF91CF91D9
:1044100008952FD008F481E0089557D088F09F5771
:1044200090F0B92F9927B751A0F0D1F0660F771F00
:10443000881F991F1AF0BA95C9F712C0B13081F0E0
:104440005ED0B1E008955BC0672F782F8827B85FF2
:1044500039F0B93FCCF3869577956795B395D9F741
:104460003EF490958095709561957F4F8F4F9F4F4B
:104470000895990F0008550FAA0BE0E8FEEF1616F5
:104480001706E807F907C0F012161306E407F50748
:1044900098F0621B730B840B950B39F40A2661F0BC
:1044A000232B242B252B21F408950A2609F4A1405F
:1044B000A6958FEF811D811D089557FD9058440FDB
:1044C000551F59F05F3F71F04795880F97FB991F73
:1044D00061F09F3F79F08795089512161306140630
:1044E000551FF2CF4695F1DF08C0161617061806BD
:1044F000991FF1CF86957105610508940895E89498
:10450000BB2766277727CB0197F90895B2DF08F418
:104510008FEF08950BD078C069D028F06ED018F0D6
:10452000952309F05AC05FC01124EACFC6DFA0F37B
:10453000959FD1F3950F50E0551F629FF001729F38
:10454000BB27F00DB11D639FAA27F00DB11DAA1F57
:10455000649F6627B00DA11D661F829F2227B00DA4
:10456000A11D621F739FB00DA11D621F839FA00D2F
:10457000611D221F749F3327A00D611D231F849F7F
:10458000600D211D822F762F6A2F11249F575040D6
:104590008AF0E1F088234AF0EE0FFF1FBB1F661F71
:1045A000771F881F91505040A9F79E3F510570F02A
:1045B00014C0A6CF5F3FECF3983EDCF38695779569
:1045C0006795B795F795E7959F5FC1F7FE2B880F25
:1045D000911D9695879597F9089597F99F6780E8BB
:1045E00070E060E008959FEF80EC089500240A9445
:1045F0001616170618060906089500240A941216BE
:104600001306140605060895092E0394000C11F4F0
:10461000882352F0BB0F40F4BF2B11F460FF04C09D
:104620006F5F7F4F8F4F9F4F089597FB072E16F4B4
:10463000009406D077FD08D00BD007FC05D03EF4DF
:10464000909581959F4F0895709561957F4F08953E
:10465000AA1BBB1B51E107C0AA1FBB1FA617B707A8
:1046600010F0A61BB70B881F991F5A95A9F78095C4
:104670009095BC01CD0108958F929F92AF92BF9209
:10468000CF92DF92EF92FF92CF93DF93EC0168819C
:1046900079818A819B81611571058105910521F4DC
:1046A00064E279ED8BE597E02DE133EF41E050E0F6
:1046B0000DD349015A019B01AC01A7EAB1E422D311
:1046C0006B017C01ACEEB4EFA501940127D3DC01B2
:1046D000CB018C0D9D1DAE1DBF1DB7FF03C0019703
:1046E000A109B04888839983AA83BB839F77DF9110
:1046F000CF91FF90EF90DF90CF90BF90AF909F90C1
:104700008F900895B9CF80E091E0B6CFA0E0B0E0FF
:104710008093000190930101A0930201B0930301E3
:1047200008950F931F93CF93DF93CDB7DEB72E97E6
:104730000FB6F894DEBF0FBECDBF8C0186E08C8330
:104740001A8309838FEF9FE79E838D83CE010196A5
:1047500010D0EF81F885E00FF11F10822E960FB672
:10476000F894DEBF0FBECDBFDF91CF911F910F91A7
:1047700008952F923F924F925F926F927F928F9205
:104780009F92AF92BF92CF92DF92EF92FF920F93E0
:104790001F93CF93DF93CDB7DEB72B970FB6F89467
:1047A000DEBF0FBECDBF6C017B018A01FC01178209
:1047B0001682838181FFBFC1CE0101963C01F601C3
:1047C0009381F70193FD859193FF81917F01882368
:1047D00009F4ADC1853239F493FD859193FF819140
:1047E0007F01853221F4B60190E0D6D1E8CF912C3B
:1047F000212C312CFFE1F315D8F08B3279F038F40D
:10480000803279F08332A1F4232D20611DC08D32D6
:1048100061F0803369F4232D216016C0832D8260FE
:10482000382EE32DE4603E2E2AC0F32DF8601DC023
:1048300037FC2DC020ED280F2A3040F08E32B9F41D
:1048400036FC75C1232D2064322E19C036FE06C0F9
:104850008AE0989E200D1124922E11C0EAE02E9E2F
:10486000200D1124222EF32DF0623F2E08C08C362D
:1048700021F4832D8068382E02C0883641F4F70178
:1048800093FD859193FF81917F018111B3CF982F83
:104890009F7D9554933028F40C5F1F4F9FE39983BD
:1048A0000DC0833631F0833771F0833509F055C080
:1048B00020C0F801808189830E5F1F4F8824839474
:1048C000912C530112C02801F2E04F0E511CF80147
:1048D000A080B18036FE03C0692D70E002C06FEF8A
:1048E0007FEFC5014ED14C018201F32DFF773F2EA2
:1048F00015C0280122E0420E511CF801A080B180B1
:1049000036FE03C0692D70E002C06FEF7FEFC50176
:104910002DD14C01F32DF0683F2E820133FC19C0DC
:10492000822D90E088169906A0F4B60180E290E00E
:1049300033D12A94F5CFF50137FC859137FE81916B
:104940005F01B60190E028D121102A9421E0821A5B
:1049500091088114910479F7E1C0843611F0893609
:1049600039F5F80137FE07C060817181828193813A
:104970000C5F1F4F08C060817181072E000C880BEF
:10498000990B0E5F1F4FF32DFF763F2E97FF09C047
:1049900090958095709561957F4F8F4F9F4FF068F0
:1049A0003F2E2AE030E0A30133D1882E861844C080
:1049B000853731F4232D2F7EB22E2AE030E025C03A
:1049C000932D997FB92E8F36C1F018F4883579F080
:1049D000AEC0803719F0883721F0A9C0E92FE06117
:1049E000BE2EB4FE0DC0FB2DF460BF2E09C034FEF8
:1049F0000AC0292F2660B22E06C028E030E005C08C
:104A000020E130E002C020E132E0F801B7FE07C04B
:104A100060817181828193810C5F1F4F06C060812C
:104A2000718180E090E00E5F1F4FA301F1D0882ECE
:104A30008618FB2DFF773F2E36FE0DC0232D2E7FCF
:104A4000A22E891458F434FE0BC032FC09C0832D09
:104A50008E7EA82E05C0B82CA32C03C0B82C01C094
:104A6000B92CA4FE0FC0FE01E80DF11D808180333A
:104A700021F49A2D997EA92E09C0A2FE06C0B394F6
:104A8000B39404C08A2D867809F0B394A3FC10C0B7
:104A9000A0FE06C0B21480F4280C922C9B180DC006
:104AA000B21458F4B60180E290E076D0B394F8CF17
:104AB000B21418F42B1802C0982C212CA4FE0FC09D
:104AC000B60180E390E068D0A2FE16C0A1FC03C04E
:104AD00088E790E002C088E590E0B6010CC08A2D1E
:104AE000867851F0A1FE02C08BE201C080E2A7FCF3
:104AF0008DE2B60190E050D0891430F4B60180E325
:104B000090E04AD09A94F8CF8A94F301E80DF11D11
:104B10008081B60190E040D08110F6CF222009F4C8
:104B20004ECEB60180E290E037D02A94F7CFF6015E
:104B30008681978102C08FEF9FEF2B960FB6F89476
:104B4000DEBF0FBECDBFDF91CF911F910F91FF90C0
:104B5000EF90DF90CF90BF90AF909F908F907F901D
:104B60006F905F904F903F902F900895FC010590BB
:104B7000615070400110D8F7809590958E0F9F1F5F
:104B80000895FC016150704001900110D8F78095A4
:104B900090958E0F9F1F08950F931F93CF93DF93D0
:104BA000FB01238121FD03C08FEF9FEF2CC022FF6B
:104BB00016C046815781248135814217530744F43A
:104BC000A081B1819D012F5F3F4F318320838C9362
:104BD000268137812F5F3F4F3783268314C08B0197
:104BE000EC01FB010084F185E02D0995892BE1F6AC
:104BF000D80116968D919C911797019617969C93C4
:104C00008E931697CE01DF91CF911F910F9108954A
:104C1000FA01AA27283051F1203181F1E8946F93ED
:104C20006E7F6E5F7F4F8F4F9F4FAF4FB1E03ED093
:104C3000B4E03CD0670F781F891F9A1FA11D680F31
:104C4000791F8A1F911DA11D6A0F711D811D911D64
:104C5000A11D20D009F468943F912AE0269F1124D9
:104C60003019305D3193DEF6CF010895462F47703D
:104C7000405D4193B3E00FD0C9F7F6CF462F4F7098
:104C8000405D4A3318F0495D31FD4052419302D0F6
:104C9000A9F7EACFB4E0A69597958795779567959C
:104CA000BA95C9F700976105710508959B01AC019C
:104CB0000A2E06945795479537952795BA95C9F7C3
:104CC000620F731F841F951FA01D0895052E97FB6B
:104CD00016F400940FD057FD05D024D007FC02D065
:104CE00046F408C050954095309521953F4F4F4F61
:104CF0005F4F089590958095709561957F4F8F4F88
:104D00009F4F089531D0A59F900DB49F900DA49F03
:104D1000800D911D11240895B7FFF4CFF3DF821B9E
:104D2000930B0895A1E21A2EAA1BBB1BFD010DC017
:104D3000AA1FBB1FEE1FFF1FA217B307E407F5074B
:104D400020F0A21BB30BE40BF50B661F771F881F27
:104D5000991F1A9469F760957095809590959B01BD
:104D6000AC01BD01CF010895A29FB001B39FC00166
:104D7000A39F700D811D1124911DB29F700D811D87
:0A4D80001124911D0895F894FFCF4F
:104D8A000100000003004D00018055201F1E000095
:104D9A000000000000000000000000000000000009
:104DAA0000000000000000000000000000000000F9
:104DBA0000000000000000000000000000000000E9
:104DCA0000000000000000000000000000000000D9
:104DDA0000000000000000000000000000000000C9
:104DEA0000000000000000000000000000000000B9
:104DFA0000000000000000000000000000000000A9
:104E0A000000000000000000000000000000000098
:104E1A000000000000000000000000000000000088
:104E2A000000000000000000000000000000000078
:104E3A000000000000000000000000000000000068
:104E4A000000000000000000000000000000000058
:104E5A000000000C0C0C0000000000000000000024
:104E6A000000000000000000000000000000000038
:104E7A000000000000000000000000000000000028
:104E8A000000000000000000000000000000000018
:104E9A000000000000000000000000000000000008
:104EAA0000000000000000000000000000000000F8
:104EBA0000000000000000000000000000000000E8
:104ECA0000000000000000000000000000000000D8
:104EDA0000000000000000000000000000000000C8
:104EEA0000000000000000000000000000000000B8
:104EFA0000000000000000000000000000000000A8
:104F0A000000000000000000000000000000000097
:104F1A0000000000000000000000004B4D4D277308
:104F2A0020534E414B452047414D45004D796F7501
:104F3A006E676D696E27732047414D45003E3E20DE
:104F4A00534E414B452047414D45002020205445B2
:104F5A005452495300202020534E414B452047418B
:104F6A004D45003E3E205445545249530020534E6D
:104F7A00414B452047414D45002020472041204DC7
:104F8A002045200020204F20562045205220002076
:104F9A0020205445545249532000000000000000CC
:104FAA0000000000000000000000000000000000F7
:104FBA0000000000C04040000000000000000000A7
:104FCA0000C000000000000000000000000000C057
:104FDA0000000000000000000000C0000000000007
:104FEA00C0404000000000000000000000008000F7
:104FFA0000000000000000000000000000000000A7
:10500A000000000000000000000000000000000096
:10501A000000000000000000000000000000000086
:10502A000000000000000000000000000000000076
:10503A00000000001F121200001F01031E011F00C2
:10504A00001F11111F00041F151506001F11111F43
:10505A0000041F151506001F11111F000000000093
:10506A0013121E08414E380E0100171509011F11AF
:10507A00041F151506001F01031E011F0000000072
:10508A000000000000000000000000000000000016
:10509A000000000000000000000000000000000006
:1050AA0000000000000000000000000000000000F6
:1050BA0000000000000000000000000000000000E6
:1050CA0000000000000000000000000000000000D6
:1050DA0000000000000000000000000000000000C6
:1050EA0000000000000000000000000000000000B6
:1050FA0000000000000000000000000000000000A6
:10510A000000000000000000000000000000000095
:10511A000000000000000000000000000000000085
:10512A000000000000000000000000000000000075
:10513A008080808080808080808080808080808065
:10514A008000000000000000000000000000C0C055
:10515A00C0C0C0C0C0C0C0C0C0C00000000000E0E5
:10516A00E0E00000000000000000000000000080F5
:10517A00808080808080808080808000000000E0C5
:10518A00E0E0000000000000000000000000000055
:10519A000000000000000000000000000000000005
:1051AA0000000000000000000000000000000000F5
:1051BA000303030303030303030303030303FFFFBD
:1051CA00FF00000000000000000000000000FFFFD8
:1051DA00FF818181818181FFFFFFE7E7E7E7E7FF41
:1051EA00FFFF00000000000000000000000000FFB8
:1051FA00FFFF0303030303FFFFFFFF00000000FF9D
:10520A00FFFF000000000000000000000000000096
:10521A000000000000000000000000000000000084
:10522A000000000000000000000000000000000074
:10523A000000000000FFFFFF00000000001C1F1F0D
:10524A000F0000000000000000000000000003033F
:10525A000303C3E3F3F37B3B3B3B3838383870F73F
:10526A00E7E78000000000000000000000000007DF
:10527A000707E7E7E707070707070700000000FF38
:10528A00FFFF000000000000000000000000000016
:10529A000000000000000000000000000000000004
:1052AA0000000000000000000000000000070707DF
:1052BA000707070707070707070707070707070774
:1052CA0007070707000000000000000000000000B8
:1052DA000000070F1F1E3C383838383838381C1F72
:1052EA000F0F030000000000000000000000000093
:1052FA0000003F3F3F38383838383838383838387F
:10530A0038383800000000000000000000000000EB
:10531A000000000000000000000000000000000083
:10532A000000000000000000000000000000000073
:10533A000000000000000000000000000000000063
:10534A000000000000000000000000000000000053
:10535A000000000000000000000000000000000043
:10536A000000000000000000000000000000000033
:10537A000000000000000000000000000000000023
:10538A000000000000000000000000000000000013
:0A539A000000000000000000000009
:00000001FF
