S018000055534152545F4156525F746F5F4156522E73726563AB
S113000045C0000053C0000051C000004FC00000B4
S11300104DC000004BC0000049C0000047C00000B4
S113002045C0000043C0000041C000003FC00000C4
S11300303DC000003BC0000039C0000037C00000D4
S113004035C0000033C0000048C000002FC00000CD
S11300502DC000002BC0000029C0000027C00000F4
S113006025C0000023C0000021C000001FC0000004
S11300701DC000001BC00000AFC0000017C000007E
S113008015C0000013C0000011C0000011241FBEE1
S1130090CFEFD0E1DEBFCDBF25E0A0E0B1E001C0ED
S11300A01D92A430B207E1F702D004C1A9CF1BB856
S11300B028E92AB996E0909395001092900087E67B
S11300C089B910929B0020939A0090939D001092FE
S11300D09800809399007894FFCF1F920F920FB6E7
S11300E00F9211240BB60F92CF92DF92EF92FF92F0
S11300F00F931F932F933F934F935F936F937F932C
S11301008F939F93AF93BF93CF93DF93EF93FF931B
S11301108091000190910101A0910201B09103012D
S11301202CB1FC01EC5FFE4F20832A3079F5A4E06A
S1130130B1E041E050E060E070E0EBE9F0E0CCE9F0
S1130140D0E002C0B701A601808185FFFDCF8D916B
S113015088836A017B018FEFC81AD80AE80AF80A73
S113016000910001109101012091020130910301DD
S1130170041715072607370728F710920001109275
S1130180010110920201109203010BC00196A11DFE
S1130190B11D8093000190930101A0930201B093DB
S11301A00301FF91EF91DF91CF91BF91AF919F91A7
S11301B08F917F916F915F914F913F912F911F91FB
S11301C00F91FF90EF90DF90CF900F900BBE0F90A8
S11301D00FBE0F901F9018951F920F920FB60F929B
S11301E011240BB60F920F931F932F933F934F93AA
S11301F05F936F937F938F939F93AF93BF93EF938B
S1130200FF938091000190910101A0910201B091AE
S1130210030120919C00FC01EC5FFE4F20832A30F7
S113022049F5E4E0F1E081E090E0A0E0B0E002C054
S1130230D901C8015D9BFECF21912CB98C019D0190
S11302400F5F1F4F2F4F3F4F40910001509101010D
S11302506091020170910301481759076A077B07EF
S113026038F71092000110920101109202011092CD
S113027003010BC00196A11DB11D80930001909351
S11302800101A0930201B0930301FF91EF91BF918B
S1130290AF919F918F917F916F915F914F913F911A
S11302A02F911F910F910F900BBE0F900FBE0F90C7
S10B02B01F901895F894FFCF8C
S9030000FC
