:1000000035C1000052C1000050C100004EC10000C7
:10001000E0C6000096C60000BCC5000002C6000095
:1000200048C6000042C1000040C100003EC10000BF
:100030003CC100003AC1000038C1000036C10000D8
:1000400034C1000032C1000030C100002EC10000E8
:100050002CC100002AC1000028C1000026C10000F8
:1000600024C1000022C1000020C100001EC1000008
:100070001CC100001AC1000018C1000016C1000018
:1000800014C1000012C1000010C1000000000000F7
:100090000000005F00000007000700147F147F14B9
:1000A000242A7F2A122313086462364955225000FD
:1000B00005030000001C2241000041221C0014081E
:1000C0003E081408083E08080050300000080808E0
:1000D0000808006060000020100804023E514945F5
:1000E0003E00427F400042615149462141454B312B
:1000F0001814127F1027454545393C4A49493001BB
:10010000710905033649494936064949291E003611
:100110003600000056360000081422410014141462
:100120001414004122140802015109063249794190
:100130003E7E1111117E7F494949363E414141229F
:100140007F4141221C7F494949417F090909013EFC
:100150004149497A7F0808087F00417F41002040DB
:10016000413F017F081422417F404040407F020C04
:10017000027F7F0408107F3E4141413E7F0909090B
:10018000063E4151215E7F091929464649494931B8
:1001900001017F01013F4040403F1F2040201F3FA1
:1001A0004038403F63140814630708700807615122
:1001B000494543007F4141000204081020004141AD
:1001C0007F0004020102044040404040000102045C
:1001D0000020545454787F484444383844444420E0
:1001E000384444487F3854545418087E0901020C9E
:1001F0005252523E7F0804047800447D4000204063
:10020000443D007F1028440000417F40007C0418DA
:1002100004787C0804047838444444387C1414146A
:1002200008081414187C7C0804040848545454200A
:10023000043F4440203C4040207C1C2040201C3C8B
:100240004030403C44281028440C5050503C4464FA
:10025000544C44000836410000007F000000413645
:1002600008001008081008784641467811241FBE7F
:10027000CFEFD0E1DEBFCDBF16E0A0E0B1E0E8E413
:10028000FAE200E00BBF02C007900D92A83BB10755
:10029000D9F727E0A8EBB6E001C01D92A134B20760
:1002A000E1F70E94590C0C942215AACECF93DF934C
:1002B000CDB7DEB728970FB6F894DEBF0FBECDBF1F
:1002C0008E8378876F831A82198229C02F8138859F
:1002D000C901019698878F838E81082E000C990B97
:1002E000AC0140525109CA01880F991F880F991F0C
:1002F000840F951F49815A81840F951F84579F4F02
:100300009C838B838B819C81FC0184918D838D8167
:10031000F901808389819A8101969A8389838981F1
:100320009A8105979CF28F819885FC0110820000CC
:1003300028960FB6F894DEBF0FBECDBFDF91CF91E8
:100340000895CF93DF93CDB7DEB780E790E024EA3E
:10035000FC0124830000DF91CF910895CF93DF93B8
:10036000CDB7DEB780E790E024E9FC0124830000EC
:10037000DF91CF910895CF93DF93CDB7DEB7000023
:1003800080E790E0FC0184818823D4F70000DF91AE
:10039000CF910895CF93DF93CDB7DEB780E790E09C
:1003A000FC018181887FDF91CF910895CF93DF9306
:1003B0001F92CDB7DEB7898380E790E02981FC01E9
:1003C000238380E790E024E8FC01248300000F9061
:1003D000DF91CF910895CF93DF93CDB7DEB7B1DF33
:1003E000CADFD8DF883019F08FEF9FEF02C080E0BE
:1003F00090E0DF91CF910895CF93DF93CDB7DEB733
:10040000ADDF0000DF91CF910895CF93DF9300D04F
:10041000CDB7DEB78A838A81882F90E081709927D3
:10042000892B11F080E401C088E189838A81BEDFD5
:10043000A2DFB0DF982F8981981719F08FEF9FEF17
:1004400002C080E090E00F900F90DF91CF9108956F
:10045000CF93DF931F92CDB7DEB789838981A6DF63
:100460008ADF98DF883219F08FEF9FEF02C080E0BB
:1004700090E00F90DF91CF910895CF93DF93CDB7A8
:10048000DEB728970FB6F894DEBF0FBECDBF8B83C3
:100490006C835E834D8338872F839DDF892B19F012
:1004A0008FEF9FEF30C08B81880FAFDF892B19F062
:1004B0008FEF9FEF28C08C81CBDF892B19F08FEF56
:1004C0009FEF21C01A82198214C08D819E819C01E8
:1004D0002F5F3F4F3E832D83FC018081B9DF892B45
:1004E00019F08FEF9FEF0FC089819A8101969A834F
:1004F000898329813A818F819885281739072CF3C0
:100500007BDF80E090E028960FB6F894DEBF0FBE48
:10051000CDBFDF91CF910895CF93DF93CDB7DEB7F5
:1005200080E790E025E0FC01208380E790E0FC017B
:1005300011820000DF91CF910895CF93DF93CDB763
:10054000DEB78AE290E028E1FC01208385E990E0B3
:1005500026E0FC01208389E290E027E6FC0120836D
:100560000000DF91CF910895CF93DF931F92CDB715
:10057000DEB7898300008BE290E0FC018081882F48
:1005800090E080729927892BB1F38CE290E0298169
:10059000FC01208300000F90DF91CF910895CF934D
:1005A000DF93CDB7DEB767970FB6F894DEBF0FBE07
:1005B000CDBF8F8B1A8219828EE7D6DF8FEFD4DF03
:1005C00086E0D2DF8F89D0DF80E0CEDF80E0CCDF35
:1005D0008F89893071F080E0C7DF8F89882F90E0A4
:1005E0002BEF3EEFA901481B590BCA019A8389835F
:1005F0000DC082E0B9DF8F89882F90E029EF3EEFB0
:10060000A901481B590BCA019A83898389819A8160
:10061000892F9927A9DF8981A7DF8FEEA5DF000049
:1006200067960FB6F894DEBF0FBECDBFDF91CF91B6
:100630000895CF93DF93CDB7DEB769970FB6F894DF
:10064000DEBF0FBECDBF8F8B688F498F1A82198294
:100650008EE78ADF8FEF88DF86E086DF8F8984DF91
:1006600080E082DF888D80DF898D7EDF8F89882F13
:1006700090E09C012B5F3E4F888D882F90E0280FE3
:10068000391F898D882F90E0820F931F9195819556
:1006900091099A83898389819A81892F992764DFB7
:1006A000898162DF8FEE60DF000069960FB6F894F3
:1006B000DEBF0FBECDBFDF91CF910895CF93DF9303
:1006C00000D01F92CDB7DEB79A8389836B838B816D
:1006D000282F30E089819A81AC0160E08CE3CDDE87
:1006E00000000F900F900F90DF91CF910895CF935E
:1006F000DF9300D000D0CDB7DEB79A8389837C83A7
:100700006B832B813C8189819A81AC0160E48CE30D
:10071000B4DE00000F900F900F900F90DF91CF91FB
:100720000895CF93DF93CDB7DEB70000DF91CF916F
:100730000895CF93DF9300D000D0CDB7DEB79C8370
:100740008B838DE889838B819C81892B11F084E1D7
:1007500001C080E18A8362E0CE010196AFDF000034
:100760000F900F900F900F90DF91CF910895CF933E
:10077000DF9300D01F92CDB7DEB79B838A838A8137
:10078000846A898361E0CE01019698DF00000F90B2
:100790000F900F90DF91CF910895CF93DF9300D00A
:1007A0001F92CDB7DEB79B838A838A818E6A898345
:1007B00061E0CE01019682DF00000F900F900F9054
:1007C000DF91CF910895CF93DF9300D01F92CDB7E3
:1007D000DEB78B8380E289838B818A8362E0CE01DE
:1007E00001966CDF00000F900F900F90DF91CF917A
:1007F0000895CF93DF9300D0CDB7DEB78A838A8187
:10080000806B898361E0CE01019658DF00000F9074
:100810000F90DF91CF910895CF93DF9300D0CDB7A4
:10082000DEB78A838A818F70898361E0CE01019669
:1008300045DF8A8182958F708061898361E0CE0176
:1008400001963CDF00000F900F90DF91CF9108954B
:10085000CF93DF9300D01F92CDB7DEB79B838A83FF
:100860008A81806A898361E0CE01019627DF0000DA
:100870000F900F900F90DF91CF910895CF93DF935A
:1008800000D01F92CDB7DEB79B838A838A81866AA8
:10089000898361E0CE01019611DF00000F900F9077
:1008A0000F90DF91CF910895CF93DF9300D01F92E7
:1008B000CDB7DEB79B838A838A81886C898361E0A8
:1008C000CE010196FBDE00000F900F900F90DF919C
:1008D000CF910895CF93DF93CDB7DEB72E970FB6A4
:1008E000F894DEBF0FBECDBF80E090E0A0E8BFE38C
:1008F00089839A83AB83BC8320E030E04AE755E4E8
:1009000069817A818B819C810E94E910DC01CB0195
:100910008D839E83AF83B88720E030E040E85FE3BB
:100920006D817E818F8198850E94681088232CF4C8
:1009300081E090E09A8789873FC020E03FEF4FE752
:1009400057E46D817E818F8198850E94E51018168D
:100950004CF520E030E040E251E469817A818B81FE
:100960009C810E94E910DC01CB01BC01CD010E94F9
:100970006C10DC01CB019A8789870FC080E991E078
:100980009C878B878B859C850197F1F79C878B874C
:1009900089859A8501979A87898789859A85892B80
:1009A00069F714C06D817E818F8198850E946C10DB
:1009B000DC01CB019A87898789859A859E878D87F7
:1009C0008D859E850197F1F79E878D87AADE81E050
:1009D00090E0AFDE80E090E0CADE81E090E0DDDE16
:1009E00000002E960FB6F894DEBF0FBECDBFDF918C
:1009F000CF910895CF93DF9300D0CDB7DEB71A82A1
:100A00000AC08A81882F90E08854994FFC01108297
:100A10008A818F5F8A838A8188239CF719820AC022
:100A20008981E7DE60E870E088EB96E060DE89812E
:100A30008F5F89838981883098F380E0EDDE000044
:100A40000F900F90DF91CF910895CF93DF93CDB7A3
:100A5000DEB76C970FB6F894DEBF0FBECDBFCE01E8
:100A600087969E838D834D815E812DA13EA1CE010F
:100A70000796B9010E94F0119C838B838B819C8126
:100A8000181619060CF03BC01A8219821CC0298165
:100A90003A81C901880F991F820F931F880F991FF0
:100AA000AC014854594F9E01295F3F4F89819A817B
:100AB000820F931FFC018081BA01F8DB89819A8142
:100AC00001969A83898329813A818B819C81281799
:100AD0003907ECF289A18DDE9BA1892F880F890F40
:100AE000880F9ADE2B813C81C901880F991F820FE4
:100AF000931F880F991FBC0188EB96E0F8DD8B816E
:100B00009C816C960FB6F894DEBF0FBECDBFDF910F
:100B1000CF910895CF93DF9300D01F92CDB7DEB76A
:100B20009B838A83198215C0898163DE8981882F1E
:100B300090E09695982F8827979587959C018A81B4
:100B40009B81820F931F60E870E0D1DD89818F5F08
:100B500089838981883040F300000F900F900F90B7
:100B6000DF91CF910895CF93DF93CDB7DEB7D4DC7B
:100B7000B1DE82E028DE3EDF80E090E095DE81E0BD
:100B800090E066DE80E090E079DE0000DF91CF91BA
:100B900008951F920F9200905F000F921124009011
:100BA0005B000F922F933F934F935F936F937F93CD
:100BB0008F939F93AF93BF93EF93FF93CF93DF9365
:100BC000CDB7DEB781E090E09093090180930801F2
:100BD00080910601909107018035910551F043E025
:100BE00061E08FE026DD88E490E090930701809338
:100BF00006010000DF91CF91FF91EF91BF91AF917E
:100C00009F918F917F916F915F914F913F912F9124
:100C10000F9000925B000F9000925F000F901F906A
:100C200018951F920F9200905F000F921124009070
:100C30005B000F922F933F934F935F936F937F933C
:100C40008F939F93AF93BF93EF93FF93CF93DF93D4
:100C5000CDB7DEB781E090E0909309018093080161
:100C600080910601909107018834910551F043E08D
:100C700061E08FE0DEDC80E590E0909307018093F7
:100C800006010000DF91CF91FF91EF91BF91AF91ED
:100C90009F918F917F916F915F914F913F912F9194
:100CA0000F9000925B000F9000925F000F901F90DA
:100CB00018951F920F9200905F000F9211240090E0
:100CC0005B000F922F933F934F935F936F937F93AC
:100CD0008F939F93AF93BF93EF93FF93CF93DF9344
:100CE000CDB7DEB781E090E09093090180930801D1
:100CF00080910601909107018D34910551F043E0F8
:100D000061E08FE096DC8BE490E0909307018093A4
:100D100006010000DF91CF91FF91EF91BF91AF915C
:100D20009F918F917F916F915F914F913F912F9103
:100D30000F9000925B000F9000925F000F901F9049
:100D400018951F920F9200905F000F92112400904F
:100D50005B000F922F933F934F935F936F937F931B
:100D60008F939F93AF93BF93EF93FF93CF93DF93B3
:100D7000CDB7DEB781E090E0909309018093080140
:100D800080910601909107018B34910551F043E069
:100D900061E08FE04EDC8DE490E09093070180935A
:100DA00006010000DF91CF91FF91EF91BF91AF91CC
:100DB0009F918F917F916F915F914F913F912F9173
:100DC0000F9000925B000F9000925F000F901F90B9
:100DD00018951F920F9200905F000F9211248F932D
:100DE0009F93CF93DF93CDB7DEB781E090E09093F0
:100DF0000901809308010000DF91CF919F918F91AD
:100E00000F9000925F000F901F901895CF93DF9383
:100E100000D000D0CDB7DEB78DE992E0892F8F9357
:100E20008DE992E08F931F9283E08F931F921F9220
:100E30000CDE0F900F900F900F900F900F901A8272
:100E4000198217C082E0D5DC8981E6DC61E070E0C0
:100E50008AE091E04CDC87E0CCDC8981DDDC61E07C
:100E600070E08BE091E043DC89819A8101969A835E
:100E7000898389819A818038910524F31C821B82A1
:100E800015C08B81B6DC80E0C7DC61E070E08CE0EF
:100E900091E02DDC8FE7C0DC61E070E08CE091E058
:100EA00026DC8B819C8101969C838B838B819C812A
:100EB00008973CF309D02DD300000F900F900F90AE
:100EC0000F90DF91CF910895CF93DF93CDB7DEB729
:100ED000C750D3400FB6F894DEBF0FBECDBF20E0A1
:100EE00033E0CE010896DC01F9011D923197E9F754
:100EF0001A8219827BC01C821B826DC08B819C81EF
:100F0000892BB1F440910C0189819A819695982F93
:100F10008827979587959E012F5F3F4F280F391F90
:100F20008B819C81820F931F0796DC014C934EC0EE
:100F30008B819C818F379105B1F440910C0189819F
:100F40009A819695982F8827979587959E012F5F70
:100F50003F4F280F391F8B819C81820F931F07966B
:100F6000FC01408333C089819A81892BB1F440917F
:100F70000A0189819A819695982F88279795879558
:100F80009E012F5F3F4F280F391F8B819C81820F5D
:100F9000931F0796DC014C9319C089819A810597AC
:100FA000A9F440910B0189819A819695982F882701
:100FB000979587959E012F5F3F4F280F391F8B8193
:100FC0009C81820F931F0796FC0140838B819C813B
:100FD00001969C838B838B819C81803891050CF4D6
:100FE0008DCF89819A8101969A83898389819A819B
:100FF00006970CF480CF80913F0790914007880FAF
:10100000991F99230CF40796959587959595879543
:10101000959587959C018091390790913A07AC018D
:10102000440F551F8091390790913A07880F991FF7
:10103000B9017695762F662777956795FE013196EB
:101040006E0F7F1F860F971F0796DC018C91E82F8C
:1010500080913F0790914007880F991F8770907883
:10106000992324F40197886F9F6F0196BC0183E058
:1010700090E002C0880F991F6A95E2F78E2B682FC7
:10108000C9019695982F8827979587959E012F5F80
:101090003F4F820F931F840F951F0796FC016083BB
:1010A00080913F0790914007880F991F99230CF476
:1010B00007969595879595958795959587959C0124
:1010C0008091390790913A07880F991FAC014F5FC3
:1010D0005F4F8091390790913A07880F991F0196C9
:1010E000B9017695762F662777956795FE0131963B
:1010F0006E0F7F1F860F971F0796DC018C91E82FDC
:1011000080913F0790914007880F991F87709078D2
:10111000992324F40197886F9F6F0196BC0183E0A7
:1011200090E002C0880F991F6A95E2F78E2B682F16
:10113000C9019695982F8827979587959E012F5FCF
:101140003F4F820F931F840F951F0796FC0160830A
:101150001E821D82C3C08D819E818B529E4FDC01F9
:101160008C91882F90E0880F991F99230CF4079693
:101170009595879595958795959587952D813E8130
:10118000235F3E4FF9012081222F30E0220F331FD1
:101190004D815E81435F5E4FDA014C91442F50E0F8
:1011A000440F551FBC017695762F66277795679576
:1011B000FE0131966E0F7F1F460F571F495F5F4F2D
:1011C000FA014081E42F4D815E814B525E4FDA017E
:1011D0004C91442F50E0440F551FBA016670772799
:1011E00043E050E002C0440F551F6A95E2F74E2BD2
:1011F000642F9695982F882797958795AE014F5F16
:101200005F4F840F951F820F931F0796FC01608329
:101210008D819E818B529E4FDC018C91882F90E0B6
:10122000880F991F99230CF40796959587959595A6
:101230008795959587952D813E81235F3E4FF901D6
:101240002081222F30E0220F331F2F5F3F4F4D812F
:101250005E81435F5E4FDA014C91442F50E0440FB2
:10126000551F4F5F5F4FBC017695762F66277795A8
:101270006795FE0131966E0F7F1F460F571F495F1E
:101280005F4FFA014081E42F4D815E814B525E4FEA
:10129000DA014C91442F50E0440F551FBA0166709B
:1012A000772743E050E002C0440F551F6A95E2F7EC
:1012B0004E2B642F9695982F882797958795AE018A
:1012C0004F5F5F4F840F951F820F931F0796FC019E
:1012D00060838D819E8101969E838D838091040120
:1012E000909105012D813E81281739070CF433CFE9
:1012F00082E08F8316C08F817CDA8F81882F90E007
:1013000002979E01285F3F4F9695982F88279795C3
:101310008795820F931F60E870E0E9D98F818F5F16
:101320008F838F81883038F30000C95FDC4F0FB6A0
:10133000F894DEBF0FBECDBFDF91CF910895CF935C
:10134000DF9300D000D000D0CDB7DEB79E838D8371
:1013500080910D01282F30E08091390790913A0754
:1013600028173907D9F58091D501282F30E08091D1
:101370003F07909140072817390781F5CAD080911F
:101380000401909105010196909305018093040159
:101390008091040190910501019720910401309101
:1013A000050122503109235F3E4FF9012081835FFF
:1013B0009E4FFC01208380910401909105010197CB
:1013C0002091040130910501225031092B523E4FEA
:1013D000F90120818B529E4FFC01208380910D01E9
:1013E000882361F080910D018F3341F08091D50108
:1013F000882321F08091D501873111F4F6D080C087
:1014000081E090E09A8389831BC020910D0189813E
:101410009A81835F9E4FFC018081281761F420919F
:10142000D50189819A818B529E4FFC0180812817BA
:1014300011F4DBD065C089819A8101969A838983F2
:10144000809104019091050129813A81281739077B
:10145000E4F2809104019091050101979C838B83B4
:101460001FC08B819C810197835F9E4FFC0120816F
:101470008B819C81835F9E4FFC0120838B819C81AB
:1014800001978B529E4FFC0120818B819C818B5256
:101490009E4FFC0120838B819C8101979C838B83D1
:1014A0008B819C8118161906E4F28D819E818B3404
:1014B000910531F480910D01815080930D0120C080
:1014C0008D819E818D34910531F480910D018F5F66
:1014D00080930D0115C08D819E818834910531F472
:1014E0008091D50181508093D5010AC08D819E8164
:1014F0008035910529F48091D5018F5F8093D501C6
:1015000026960FB6F894DEBF0FBECDBFDF91CF9108
:101510000895CF93DF9300D000D000D0CDB7DEB7D1
:101520001A8219821E821D821A82198282E590E037
:10153000FC018081882F90E048D744D72EE330E02B
:10154000B901D2D6029690933A07809339073AD7D9
:1015500026E130E0B901C8D6029690934007809307
:101560003F071C821B8228C08B819C81835F9E4F1A
:10157000FC018081282F30E08091390790913A0753
:1015800028173907A1F48B819C818B529E4FFC0157
:101590008081282F30E080913F07909140072817E5
:1015A000390729F481E090E09A8389830EC08B810A
:1015B0009C8101969C838B8380910401909105010D
:1015C0002B813C81281739077CF289819A81019708
:1015D00009F4AACF0000000026960FB6F894DEBFEB
:1015E0000FBECDBFDF91CF910895CF93DF93CDB7DD
:1015F000DEB7A0970FB6F894DEBF0FBECDBF4FE0A9
:1016000060E086E016D880E090E0A8E4B3E4898743
:101610009A87AB87BC8720E030E04AE755E46985CC
:101620007A858B859C85D5D5DC01CB018D879E87FE
:10163000AF87B88B20E030E040E85FE36D857E85C2
:101640008F85988945D588232CF481E090E09A8B8A
:10165000898B3BC020E03FEF4FE757E46D857E85E7
:101660008F859889B2D518163CF520E030E040E22D
:1016700051E469857A858B859C85ABD5DC01CB01EE
:10168000BC01CD0129D5DC01CB019A8B898B0FC020
:1016900080E991E09C8B8B8B8B899C890197F1F77A
:1016A0009C8B8B8B89899A8901979A8B898B8989E5
:1016B0009A89892B69F713C06D857E858F859889F6
:1016C0000BD5DC01CB019A8B898B89899A899E8BFA
:1016D0008D8B8D899E890197F1F79E8B8D8B44E0D0
:1016E00061E08FE00E941903109209011092080135
:1016F0008ED48EEA92E0892F8F938EEA92E08F93B8
:101700001F9286E08F931F9284E08F939ED90F9053
:101710000F900F900F900F900F9080E07DD80000F9
:1017200080910801909109010197D1F780E280939F
:101730000D018FE180930E018EE180930F018CE00B
:101740008093D5018CE08093D6018CE08093D70103
:1017500083E090E09A8389830BC089819A81835FBB
:101760009E4FFC01108289819A8101969A83898318
:1017700089819A81883C910584F383E090E09C8381
:101780008B830BC08B819C818B529E4FFC011082FE
:101790008B819C8101969C838B838B819C81883C6F
:1017A000910584F383E090E0909305018093040118
:1017B0008DE490E0909307018093060188EB92E01E
:1017C000A9D980E090E0A8ECB3E48D839E83AF8339
:1017D000B88720E030E04AE755E46D817E818F8153
:1017E0009885F7D4DC01CB018F8B988FA98FBA8FA6
:1017F00020E030E040E85FE36F89788D898D9A8D35
:1018000067D488232CF481E090E09C8F8B8F3BC0C1
:1018100020E03FEF4FE757E46F89788D898D9A8DEF
:10182000D4D418163CF520E030E040E251E46D815C
:101830007E818F819885CDD4DC01CB01BC01CD01A7
:101840004BD4DC01CB019C8F8B8F0FC080E991E0E2
:101850009E8F8D8F8D8D9E8D0197F1F79E8F8D8F31
:101860008B8D9C8D01979C8F8B8F8B8D9C8D892B65
:1018700069F713C06F89788D898D9A8D2DD4DC011D
:10188000CB019C8F8B8F8B8D9C8D98A38F8F8F8D91
:1018900098A10197F1F798A38F8FACD8B7DA000021
:1018A000A0960FB6F894DEBF0FBECDBFDF91CF91EB
:1018B00008950F931F93CF93DF93CDB7DEB7CE5428
:1018C000D1090FB6F894DEBF0FBECDBF0E949D02B6
:1018D00089E00E94CF0280E090E0A0EAB1E48D832D
:1018E0009E83AF83B88720E030E04AE755E46D81FE
:1018F0007E818F8198856DD4DC01CB018BAF9CAF4D
:10190000ADAFBEAF20E030E040E85FE36BAD7CAD53
:101910008DAD9EADDDD3882344F421E030E0CE01CF
:10192000CF96FC01318320835BC020E03FEF4FE77F
:1019300057E46BAD7CAD8DAD9EAD47D418160CF061
:1019400042C020E030E040E251E46D817E818F8131
:1019500098853FD4DC01CB01BC01CD01BDD3DC01B6
:10196000CB019E01215C3F4FF9019183808323C00D
:10197000CE018F5B9F4F20E931E0FC013183208352
:10198000CE018F5B9F4FFC01808191810197F1F720
:101990009E012F5B3F4FF90191838083CE01CF964B
:1019A000FC01808191819C0121503109CE01CF96AB
:1019B000FC0131832083CE01CF96FC01808191818F
:1019C000892BB1F627C06BAD7CAD8DAD9EAD84D3B8
:1019D000DC01CB019E01215C3F4FF90191838083A3
:1019E000CE018D5B9F4F9E01215C3F4FF90120810D
:1019F0003181FC0131832083CE018D5B9F4FFC013F
:101A0000808191810197F1F79E012D5B3F4FF90194
:101A1000918380834FE060E086E00E94190380E0BC
:101A200090E0A8E4B3E489879A87AB87BC8720E07D
:101A300030E04AE755E469857A858B859C85C9D372
:101A4000DC01CB0189AB9AABABABBCAB20E030E0A7
:101A500040E85FE369A97AA98BA99CA939D38823B7
:101A60002CF481E090E09EAB8DAB3BC020E03FEFDB
:101A70004FE757E469A97AA98BA99CA9A6D31816A0
:101A80003CF520E030E040E251E469857A858B85C1
:101A90009C859FD3DC01CB01BC01CD011DD3DC01B2
:101AA000CB019EAB8DAB0FC080E991E098AF8FABBF
:101AB0008FA998AD0197F1F798AF8FAB8DA99EA92B
:101AC00001979EAB8DAB8DA99EA9892B69F713C099
:101AD00069A97AA98BA99CA9FFD2DC01CB019EAB95
:101AE0008DAB8DA99EA99AAF89AF89AD9AAD0197AB
:101AF000F1F79AAF89AF41E061E08FE00E941903EE
:101B000080E090E0A8E4B3E48D879E87AF87B88B30
:101B100020E030E04AE755E46D857E858F85988921
:101B200058D3DC01CB018FA398A7A9A7BAA720E0BF
:101B300030E040E85FE36FA178A589A59AA5C8D2F7
:101B400088232CF481E090E09CA78BA73BC020E089
:101B50003FEF4FE757E46FA178A589A59AA535D344
:101B600018163CF520E030E040E251E46D857E85BA
:101B70008F8598892ED3DC01CB01BC01CD01ACD27D
:101B8000DC01CB019CA78BA70FC080E991E09EA749
:101B90008DA78DA59EA50197F1F79EA78DA78BA573
:101BA0009CA501979CA78BA78BA59CA5892B69F762
:101BB00013C06FA178A589A59AA58ED2DC01CB01AF
:101BC0009CA78BA78BA59CA598AB8FA78FA598A941
:101BD0000197F1F798AB8FA781E390E0FC011082A9
:101BE00082E290E0FC0110828AE590E02AEAFC01A2
:101BF00020838AE690E020E8FC01208389E590E0DC
:101C000028EFFC012083789483E590E027E0FC0135
:101C100020830E94B30588EB92E00E948A0580E051
:101C200090E8ABEBB4E4898F9A8FAB8FBC8F20E048
:101C300030E04AE755E4698D7A8D8B8D9C8DC9D251
:101C4000DC01CB018D8F9E8FAF8FB8A320E030E0F9
:101C500040E85FE36D8D7E8D8F8D98A139D288230A
:101C60002CF481E090E09AA389A33BC020E03FEFF1
:101C70004FE757E46D8D7E8D8F8D98A1A6D21816F3
:101C80003CF520E030E040E251E4698D7A8D8B8DA7
:101C90009C8D9FD2DC01CB01BC01CD011DD2DC01AA
:101CA000CB019AA389A30FC080E991E09CA38BA3E9
:101CB0008BA19CA10197F1F79CA38BA389A19AA169
:101CC00001979AA389A389A19AA1892B69F713C0C7
:101CD0006D8D7E8D8F8D98A1FFD1DC01CB019AA3F4
:101CE00089A389A19AA19EA38DA38DA19EA10197ED
:101CF000F1F79EA38DA30E94FA0488D88DE490E0AA
:101D000090930701809306017AC187E290E020E476
:101D1000FC01208386E290E027ECFC012083000098
:101D200086E290E0FC018081882F90E08071992705
:101D3000892BB1F386E290E026E230E0F9012081C0
:101D40002061FC01208384E290E0FC01808191818C
:101D5000CC01A0E0B0E0898B9A8BAB8BBC8B8989DE
:101D60009A89AB89BC8985369105A105B1059CF49A
:101D700080910601909107018B34910561F043E059
:101D800061E08FE00E9419038DE490E090930701D9
:101D9000809306011BC089899A89AB89BC898032EE
:101DA0009340A105B10594F080910601909107013F
:101DB0008D34910559F043E061E08FE00E941903F2
:101DC0008BE490E0909307018093060187E290E016
:101DD00021E4FC01208386E290E027ECFC012083D3
:101DE000000086E290E0FC018081882F90E0807105
:101DF0009927892BB1F386E290E026E230E0F901E1
:101E000020812061FC01208384E290E0FC0180813C
:101E10009181CC01A0E0B0E08D8B9E8BAF8BB88F11
:101E20008D899E89AF89B88D80329340A105B10517
:101E30009CF080910601909107018035910561F039
:101E400043E061E08FE00E94190388E490E0909302
:101E50000701809306011BC08D899E89AF89B88DCB
:101E600085369105A105B10594F480910601909104
:101E700007018834910559F043E061E08FE00E944A
:101E8000190380E590E0909307018093060180910B
:101E900006019091070153DA17D880E090E0A0EA9C
:101EA000B2E489839A83AB83BC838E010B5B1F4FA3
:101EB00020E030E04AE755E469817A818B819C819A
:101EC00088D1DC01CB01F80180839183A283B383A5
:101ED000CE018B5B9F4F20E030E040E85FE3FC01E8
:101EE0006081718182819381F3D088234CF4CE018B
:101EF000875B9F4F21E030E0FC013183208365C088
:101F0000CE018B5B9F4F20E03FEF4FE757E4FC0192
:101F1000608171818281938158D118160CF044C080
:101F200020E030E040E251E469817A818B819C813C
:101F300050D1DC01CB018E01075B1F4FBC01CD01ED
:101F4000CBD0DC01CB01F8019183808324C0CE018A
:101F5000855B9F4F20E931E0FC0131832083CE0176
:101F6000855B9F4FFC01808191810197F1F79E0174
:101F7000255B3F4FF90191838083CE01875B9F4FA3
:101F80009E01275B3F4FF9012081318121503109AA
:101F9000FC0131832083CE01875B9F4FFC01808150
:101FA0009181892BA1F62BC08E01075B1F4FCE01BB
:101FB0008B5B9F4FFC0160817181828193818CD00A
:101FC000DC01CB01F80191838083CE01835B9F4FBD
:101FD0009E01275B3F4FF90120813181FC01318354
:101FE0002083CE01835B9F4FFC018081918101970B
:101FF000F1F79E01235B3F4FF9019183808380912C
:10200000080190910901019709F47FCE61CCCF932B
:10201000DF9300D000D000D0CDB7DEB781E090E0F4
:102020009A8389831FC083E090E09C838B8311C0D7
:102030008B810E94F90389810E940C0461E070E0A9
:1020400088E397E00E9477038B819C8101969C83B3
:102050008B838B819C8107975CF389819A810196A0
:102060009A83898389819A818F379105E4F281E08F
:1020700090E09E838D831DC082E00E94F9038D81D4
:102080000E940C0461E070E08AE091E00E94770316
:1020900087E00E94F9038D810E940C0461E070E0EA
:1020A0008BE091E00E9477038D819E8101969E8353
:1020B0008D838D819E818F379105F4F200002696E5
:1020C0000FB6F894DEBF0FBECDBFDF91CF9108955C
:1020D0002FD008F481E0089557D088F09F5790F0F2
:1020E000B92F9927B751A0F0D1F0660F771F881F3D
:1020F000991F1AF0BA95C9F712C0B13081F05ED0BD
:10210000B1E008955BC0672F782F8827B85F39F05A
:10211000B93FCCF3869577956795B395D9F73EF49B
:1021200090958095709561957F4F8F4F9F4F089543
:10213000990F0008550FAA0BE0E8FEEF16161706D8
:10214000E807F907C0F012161306E407F50798F040
:10215000621B730B840B950B39F40A2661F0232B59
:10216000242B252B21F408950A2609F4A140A695D5
:102170008FEF811D811D089557FD9058440F551F05
:1021800059F05F3F71F04795880F97FB991F61F0F9
:102190009F3F79F087950895121613061406551F70
:1021A000F2CF4695F1DF08C0161617061806991FDC
:1021B000F1CF86957105610508940895E894BB27D1
:1021C00066277727CB0197F90895B2DF08F48FEFE0
:1021D00008950BD078C069D028F06ED018F0952300
:1021E00009F05AC05FC01124EACFC6DFA0F3959F63
:1021F000D1F3950F50E0551F629FF001729FBB27EE
:10220000F00DB11D639FAA27F00DB11DAA1F649F99
:102210006627B00DA11D661F829F2227B00DA11D4C
:10222000621F739FB00DA11D621F839FA00D611DD2
:10223000221F749F3327A00D611D231F849F600DF3
:10224000211D822F762F6A2F11249F5750408AF02C
:10225000E1F088234AF0EE0FFF1FBB1F661F771FB8
:10226000881F91505040A9F79E3F510570F014C04F
:10227000A6CF5F3FECF3983EDCF3869577956795A4
:10228000B795F795E7959F5FC1F7FE2B880F911DD6
:102290009695879597F9089597F99F6780E870E07C
:1022A00060E008959FEF80EC089500240A941616CC
:1022B000170618060906089500240A941216130634
:1022C000140605060895092E0394000C11F48823C2
:1022D00052F0BB0F40F4BF2B11F460FF04C06F5FDE
:1022E0007F4F8F4F9F4F089597FB072E16F4009452
:1022F00006D077FD08D00BD007FC05D03EF49095B2
:1023000081959F4F0895709561957F4F0895AA1B01
:10231000BB1B51E107C0AA1FBB1FA617B70710F0D0
:10232000A61BB70B881F991F5A95A9F78095909502
:10233000BC01CD0108958F929F92AF92BF92CF9230
:10234000DF92EF92FF92CF93DF93EC016881798166
:102350008A819B81611571058105910521F464E2F3
:1023600079ED8BE597E02DE133EF41E050E00DD3BF
:1023700049015A019B01AC01A7EAB1E422D36B01E8
:102380007C01ACEEB4EFA501940127D3DC01CB01B5
:102390008C0D9D1DAE1DBF1DB7FF03C00197A10988
:1023A000B04888839983AA83BB839F77DF91CF91BD
:1023B000FF90EF90DF90CF90BF90AF909F908F9065
:1023C0000895B9CF80E091E0B6CFA0E0B0E080936F
:1023D000000190930101A0930201B09303010895BD
:1023E0000F931F93CF93DF93CDB7DEB72E970FB622
:1023F000F894DEBF0FBECDBF8C0186E08C831A83BC
:1024000009838FEF9FE79E838D83CE01019610D0C5
:10241000EF81F885E00FF11F10822E960FB6F89429
:10242000DEBF0FBECDBFDF91CF911F910F910895F9
:102430002F923F924F925F926F927F928F929F92D4
:10244000AF92BF92CF92DF92EF92FF920F931F93C2
:10245000CF93DF93CDB7DEB72B970FB6F894DEBFDF
:102460000FBECDBF6C017B018A01FC011782168271
:10247000838181FFBFC1CE0101963C01F6019381AA
:10248000F70193FD859193FF81917F01882309F4E2
:10249000ADC1853239F493FD859193FF81917F0120
:1024A000853221F4B60190E0D6D1E8CF912C212CD1
:1024B000312CFFE1F315D8F08B3279F038F480320B
:1024C00079F08332A1F4232D20611DC08D3261F09B
:1024D000803369F4232D216016C0832D8260382E4D
:1024E000E32DE4603E2E2AC0F32DF8601DC037FCBA
:1024F0002DC020ED280F2A3040F08E32B9F436FC82
:1025000075C1232D2064322E19C036FE06C08AE024
:10251000989E200D1124922E11C0EAE02E9E200DCF
:102520001124222EF32DF0623F2E08C08C3621F4A8
:10253000832D8068382E02C0883641F4F70193FD60
:10254000859193FF81917F018111B3CF982F9F7D5A
:102550009554933028F40C5F1F4F9FE399830DC06F
:10256000833631F0833771F0833509F055C020C0D0
:10257000F801808189830E5F1F4F88248394912CFA
:10258000530112C02801F2E04F0E511CF801A08047
:10259000B18036FE03C0692D70E002C06FEF7FEF9F
:1025A000C5014ED14C018201F32DFF773F2E15C09E
:1025B000280122E0420E511CF801A080B18036FEB5
:1025C00003C0692D70E002C06FEF7FEFC5012DD110
:1025D0004C01F32DF0683F2E820133FC19C0822D8F
:1025E00090E088169906A0F4B60180E290E033D11D
:1025F0002A94F5CFF50137FC859137FE81915F0173
:10260000B60190E028D121102A9421E0821A910885
:102610008114910479F7E1C0843611F0893639F5D7
:10262000F80137FE07C060817181828193810C5F60
:102630001F4F08C060817181072E000C880B990B19
:102640000E5F1F4FF32DFF763F2E97FF09C0909529
:102650008095709561957F4F8F4F9F4FF0683F2E0B
:102660002AE030E0A30133D1882E861844C0853794
:1026700031F4232D2F7EB22E2AE030E025C0932D99
:10268000997FB92E8F36C1F018F4883579F0AEC035
:10269000803719F0883721F0A9C0E92FE061BE2EFC
:1026A000B4FE0DC0FB2DF460BF2E09C034FE0AC07D
:1026B000292F2660B22E06C028E030E005C020E1B8
:1026C00030E002C020E132E0F801B7FE07C06081CF
:1026D0007181828193810C5F1F4F06C0608171817F
:1026E00080E090E00E5F1F4FA301F1D0882E861886
:1026F000FB2DFF773F2E36FE0DC0232D2E7FA22E01
:10270000891458F434FE0BC032FC09C0832D8E7E30
:10271000A82E05C0B82CA32C03C0B82C01C0B92C1E
:10272000A4FE0FC0FE01E80DF11D8081803321F46D
:102730009A2D997EA92E09C0A2FE06C0B394B39427
:1027400004C08A2D867809F0B394A3FC10C0A0FEC3
:1027500006C0B21480F4280C922C9B180DC0B21441
:1027600058F4B60180E290E076D0B394F8CFB2147A
:1027700018F42B1802C0982C212CA4FE0FC0B6010F
:1027800080E390E068D0A2FE16C0A1FC03C088E7F9
:1027900090E002C088E590E0B6010CC08A2D8678F2
:1027A00051F0A1FE02C08BE201C080E2A7FC8DE2E5
:1027B000B60190E050D0891430F4B60180E390E087
:1027C0004AD09A94F8CF8A94F301E80DF11D8081E4
:1027D000B60190E040D08110F6CF222009F44ECE11
:1027E000B60180E290E037D02A94F7CFF6018681D7
:1027F000978102C08FEF9FEF2B960FB6F894DEBF44
:102800000FBECDBFDF91CF911F910F91FF90EF9041
:10281000DF90CF90BF90AF909F908F907F906F9000
:102820005F904F903F902F900895FC01059061506C
:1028300070400110D8F7809590958E0F9F1F0895D6
:10284000FC016150704001900110D8F7809590957F
:102850008E0F9F1F08950F931F93CF93DF93FB015C
:10286000238121FD03C08FEF9FEF2CC022FF16C0F4
:1028700046815781248135814217530744F4A08152
:10288000B1819D012F5F3F4F318320838C9326813F
:1028900037812F5F3F4F3783268314C08B01EC01B4
:1028A000FB010084F185E02D0995892BE1F6D80123
:1028B00016968D919C911797019617969C938E93DF
:1028C0001697CE01DF91CF911F910F910895FA01D4
:1028D000AA27283051F1203181F1E8946F936E7F5F
:1028E0006E5F7F4F8F4F9F4FAF4FB1E03ED0B4E050
:1028F0003CD0670F781F891F9A1FA11D680F791F91
:102900008A1F911DA11D6A0F711D811D911DA11DA1
:1029100020D009F468943F912AE0269F11243019B1
:10292000305D3193DEF6CF010895462F4770405D4C
:102930004193B3E00FD0C9F7F6CF462F4F70405DFB
:102940004A3318F0495D31FD4052419302D0A9F756
:10295000EACFB4E0A6959795879577956795BA9550
:10296000C9F700976105710508959B01AC010A2E16
:1029700006945795479537952795BA95C9F7620FED
:10298000731F841F951FA01D0895052E97FB16F435
:1029900000940FD057FD05D024D007FC02D046F498
:1029A00008C050954095309521953F4F4F4F5F4F50
:1029B000089590958095709561957F4F8F4F9F4FAB
:1029C000089531D0A59F900DB49F900DA49F800DC8
:1029D000911D11240895B7FFF4CFF3DF821B930BF1
:1029E0000895A1E21A2EAA1BBB1BFD010DC0AA1F50
:1029F000BB1FEE1FFF1FA217B307E407F50720F068
:102A0000A21BB30BE40BF50B661F771F881F991FE2
:102A10001A9469F760957095809590959B01AC012B
:102A2000BD01CF010895A29FB001B39FC001A39F34
:102A3000700D811D1124911DB29F700D811D1124F7
:082A4000911D0895F894FFCFE9
:102A48000100000003004D000100018055201F1EF9
:102A5800000000000000000000000000000000006E
:102A6800000000000000000000000000000000005E
:102A7800000000000000000000000000000000004E
:102A8800000000000000000000000000000000003E
:102A9800000000000000000000000000000000002E
:102AA800000000000000000000000000000000001E
:102AB800000000000000000000000000000000000E
:102AC80000000000000000000000000000000000FE
:102AD80000000000000000000000000000000000EE
:102AE80000000000000000000000000000000000DE
:102AF80000000000000000000000000000000000CE
:102B080000000000000000000000000000000000BD
:102B180000000000000C0C0C000000000000000089
:102B2800000000000000000000000000000000009D
:102B3800000000000000000000000000000000008D
:102B4800000000000000000000000000000000007D
:102B5800000000000000000000000000000000006D
:102B6800000000000000000000000000000000005D
:102B7800000000000000000000000000000000004D
:102B8800000000000000000000000000000000003D
:102B9800000000000000000000000000000000002D
:102BA800000000000000000000000000000000001D
:102BB800000000000000000000000000000000000D
:102BC80000000000000000000000000000000000FD
:102BD800000000000000000000000000004B4D4D08
:102BE800277320534E414B452047414D45004741EF
:102BF8004D45204F564552000000000000000000DF
:102C080000000000000000000000000000000000BC
:102C18000000C0404000000000000000000000C0AC
:102C280000000000000000000000000000C00000DC
:102C38000000000000000000C00000000000C040CC
:102C480040000000000000000000000080000000BC
:102C5800000000000000000000000000000000006C
:102C6800000000000000000000000000000000005C
:102C7800000000000000000000000000000000004C
:102C8800000000000000000000000000000000003C
:102C980000001F121200001F01031E011F00001F69
:102CA80011111F00041F151506001F11111F000424
:102CB8001F151506001F11111F0000000000131238
:102CC8001E08414E380E0100171509011F11041F77
:102CD800151506001F01031E011F0000000000005B
:102CE80000000000000000000000000000000000DC
:102CF80000000000000000000000000000000000CC
:102D080000000000000000000000000000000000BB
:102D180000000000000000000000000000000000AB
:102D2800000000000000000000000000000000009B
:102D3800000000000000000000000000000000008B
:102D4800000000000000000000000000000000007B
:102D5800000000000000000000000000000000006B
:102D6800000000000000000000000000000000005B
:102D7800000000000000000000000000000000004B
:102D8800000000000000000000000000000080803B
:102D980080808080808080808080808080808000AB
:102DA800000000000000000000000000C0C0C0C01B
:102DB800C0C0C0C0C0C0C0C00000000000E0E0E06B
:102DC800000000000000000000000000008080807B
:102DD80080808080808080808000000000E0E0E0CB
:102DE80000000000000000000000000000000000DB
:102DF80000000000000000000000000000000000CB
:102E080000000000000000000000000000000303B4
:102E1800030303030303030303030303FFFFFF0089
:102E2800000000000000000000000000FFFFFF811C
:102E38008181818181FFFFFFE7E7E7E7E7FFFFFF88
:102E480000000000000000000000000000FFFFFF7D
:102E58000303030303FFFFFFFF00000000FFFFFF62
:102E6800000000000000000000000000000000005A
:102E7800000000000000000000000000000000004A
:102E8800000000000000000000000000000000003A
:102E9800000000FFFFFF00000000001C1F1F0F00C4
:102EA800000000000000000000000000030303030E
:102EB800C3E3F3F37B3B3B3B3838383870F7E7E73D
:102EC8008000000000000000000000000007070765
:102ED800E7E7E707070707070700000000FFFFFF0E
:102EE80000000000000000000000000000000000DA
:102EF80000000000000000000000000000000000CA
:102F08000000000000000000000000070707070796
:102F18000707070707070707070707070707070739
:102F2800070700000000000000000000000000008B
:102F3800070F1F1E3C383838383838381C1F0F0F19
:102F48000300000000000000000000000000000076
:102F58003F3F3F38383838383838383838383838D4
:102F68003800000000000000000000000000000021
:102F78000000000000000000000000000000000049
:102F88000000000000000000000000000000000039
:102F98000000000000000000000000000000000029
:102FA8000000000000000000000000000000000019
:102FB8000000000000000000000000000000000009
:102FC80000000000000000000000000000000000F9
:102FD80000000000000000000000000000000000E9
:102FE80000000000000000000000000000000000D9
:082FF8000000000000000000D1
:00000001FF
