S00E00005465747269732E737265639B
S113000025C1000042C1000040C100003EC1000003
S11300100C94611001C40000AFC700000C946E0B77
S11300200C94B10C32C1000030C100002EC100009C
S11300302CC100002AC1000028C1000026C1000014
S113004024C1000022C1000020C100001EC1000024
S11300501CC100001AC1000018C1000016C1000034
S113006014C1000012C1000010C100000EC1000044
S11300700CC100000AC1000008C1000006C1000054
S113008004C1000002C1000000C100000001010021
S11300900001010000000000000000000001010058
S11300A00001010000000000000000000001010048
S11300B00001010000000000000000000001010038
S11300C00001010000000000000000000001000029
S11300D00101010000000000000000000001000018
S11300E00001010000010000000000000000000009
S11300F001010100000100000000000000010000F7
S113010001010000000100000000000001000000E7
S113011001010100000000000000000001010000D6
S113012001000000010000000000000001010100C6
S113013000000100000000000000000000010000B9
S113014000010000010100000000000000000100A7
S11301500101010000000000000000000100000097
S11301600100000001010000000000000101010085
S11301700100000000000000000000000101000078
S11301800001000000010000000000000101000067
S11301900001010000000000000000000001000058
S11301A00101000001000000000000000101000046
S11301B00001010000000000000000000001000038
S11301C00101000001000000000000000001010026
S11301D00101000000000000000000000100000018
S11301E00101000000010000000000000001010006
S11301F001010000000000000000000001000000F8
S113020001010000000100000000000001010101E3
S113021000000000000000000000000000010000D9
S113022000010000000100000001000001010101C3
S113023000000000000000000000000000010000B9
S113024000010000000100000001000011241FBE95
S1130250CFEFD0E1DEBFCDBF11E0A0E0B1E0EAE72F
S1130260FEE300E00BBF02C007900D92A030B1077F
S1130270D9F728E0A0E0B1E001C01D92A737B2078A
S1130280E1F70E9434190C943B1FBACECF93DF934D
S1130290CDB7DEB780E790E024EAFC0124830000B8
S11302A0DF91CF910895CF93DF93CDB7DEB780E789
S11302B090E024E9FC0124830000DF91CF910895AC
S11302C0CF93DF93CDB7DEB7000080E790E0FC0169
S11302D084818823D4F70000DF91CF910895CF93D0
S11302E0DF93CDB7DEB780E790E0FC018181887FA2
S11302F0DF91CF910895CF93DF931F92CDB7DEB7EF
S1130300898380E790E02981FC01238380E790E0E2
S113031024E8FC01248300000F90DF91CF9108951D
S1130320CF93DF93CDB7DEB7B1DFCADFD8DF883034
S113033019F08FEF9FEF02C080E090E0DF91CF9142
S11303400895CF93DF93CDB7DEB7ADDF0000DF9123
S1130350CF910895CF93DF9300D0CDB7DEB78A83D2
S11303608A81882F90E081709927892B11F080E48D
S113037001C088E189838A81BEDFA2DFB0DF982FC4
S11303808981981719F08FEF9FEF02C080E090E009
S11303900F900F90DF91CF910895CF93DF931F9229
S11303A0CDB7DEB789838981A6DF8ADF98DF8832FB
S11303B019F08FEF9FEF02C080E090E00F90DF9183
S11303C0CF910895CF93DF93CDB7DEB728970FB6BB
S11303D0F894DEBF0FBECDBF8B836C835E834D83E9
S11303E038872F839DDF892B19F08FEF9FEF30C063
S11303F08B81880FAFDF892B19F08FEF9FEF28C017
S11304008C81CBDF892B19F08FEF9FEF21C01A82EB
S1130410198214C08D819E819C012F5F3F4F3E83C2
S11304202D83FC018081B9DF892B19F08FEF9FEFB9
S11304300FC089819A8101969A83898329813A819F
S11304408F819885281739072CF37BDF80E090E0B3
S113045028960FB6F894DEBF0FBECDBFDF91CF91C3
S11304600895CF93DF93CDB7DEB780E790E025E022
S1130470FC01208380E790E0FC0111820000DF9101
S1130480CF910895CF93DF93CDB7DEB78AE290E0A2
S113049028E1FC01208385E990E026E0FC0120832B
S11304A089E290E027E6FC0120830000DF91CF91F0
S11304B00895CF93DF9300D01F92CDB7DEB79A8310
S11304C089836B838B81282F30E089819A81AC01E9
S11304D060E08CE377DF00000F900F900F90DF91C6
S11304E0CF910895CF93DF9300D000D0CDB7DEB77E
S11304F09A8389837C836B832B813C8189819A8154
S1130500AC0160E48CE35EDF00000F900F900F906D
S11305100F90DF91CF910895CF93DF93CDB7DEB7DE
S11305200000DF91CF910895CF93DF9300D000D0E6
S1130530CDB7DEB79C838B838DE889838B819C81C7
S1130540892B11F084E101C080E18A8362E0CE014D
S11305500196AFDF00000F900F900F900F90DF9186
S1130560CF910895CF93DF9300D01F92CDB7DEB71C
S11305709B838A838A81846A898361E0CE010196A0
S113058098DF00000F900F900F90DF91CF910895A6
S1130590CF93DF9300D01F92CDB7DEB79B838A83BE
S11305A08A818E6A898361E0CE01019682DF000030
S11305B00F900F900F90DF91CF910895CF93DF9319
S11305C000D01F92CDB7DEB78B8380E289838B8105
S11305D08A8362E0CE0101966CDF00000F900F90D9
S11305E00F90DF91CF910895CF93DF9300D0CDB7D3
S11305F0DEB78A838A81806B898361E0CE010196AC
S113060058DF00000F900F90DF91CF910895CF93A2
S1130610DF9300D0CDB7DEB78A838A818F70898358
S113062061E0CE01019645DF8A8182958F708061F9
S1130630898361E0CE0101963CDF00000F900F90AA
S1130640DF91CF910895CF93DF9300D01F92CDB760
S1130650DEB79B838A838A81806A898361E0CE01C5
S1130660019627DF00000F900F900F90DF91CF913C
S11306700895CF93DF9300D01F92CDB7DEB79B834D
S11306808A838A81866A898361E0CE01019611DFBB
S113069000000F900F900F90DF91CF910895CF93AA
S11306A0DF9300D01F92CDB7DEB79B838A838A8104
S11306B0886C898361E0CE010196FBDE00000F9017
S11306C00F900F90DF91CF910895CF93DF93CDB723
S11306D0DEB72E970FB6F894DEBF0FBECDBF80E015
S11306E090E0A0E8BFE389839A83AB83BC8320E0D6
S11306F030E04AE755E469817A818B819C810E94CC
S1130700B01EDC01CB018D839E83AF83B88720E0CC
S113071030E040E85FE36D817E818F8198850E949F
S11307202F1E88232CF481E090E09A8789873FC0AC
S113073020E03FEF4FE757E46D817E818F819885FC
S11307400E94AC1E18164CF520E030E040E251E463
S113075069817A818B819C810E94B01EDC01CB016E
S1130760BC01CD010E94331EDC01CB019A8789872D
S11307700FC080E991E09C878B878B859C850197CE
S1130780F1F79C878B8789859A8501979A87898752
S113079089859A85892B69F714C06D817E818F8143
S11307A098850E94331EDC01CB019A87898789854D
S11307B09A859E878D878D859E850197F1F79E8703
S11307C08D87AADE81E090E0AFDE80E090E0CADEB3
S11307D081E090E0DDDE00002E960FB6F894DEBFD7
S11307E00FBECDBFDF91CF910895CF93DF93CDB7E7
S11307F0DEB737DE6ADF82E0E1DE0E94741080E05B
S113080090E04DDF81E090E01EDF80E090E031DF9A
S11308100000DF91CF9108951F920F9200905F0026
S11308200F92112400905B000F922F933F934F93EC
S11308305F936F937F938F939F93AF93BF93EF9344
S1130840FF93CF93DF93CDB7DEB76297DEBFCDBF03
S11308501A82198237C01C821B822BC089819A811B
S11308609C01220F331F22953295307F3227207F3F
S113087032278B819C81820F931F805D9E4FDC0108
S11308804C9189819A819C01220F331F22953295C4
S1130890307F3227207F32278B819C81820F931FE8
S11308A080559D4FFC0140838B819C8101969C83E4
S11308B08B838B819C8180978CF289819A810196AC
S11308C09A83898389819A810C972CF28091740888
S11308D0843028F0809174088150809374081E82BB
S11308E01D8220C018861F8214C08D819E819C01A8
S11308F0220F331F220F331F8F819885820F931F7E
S113090080509F4FDC011C928F81988501969887B7
S11309108F838F819885049744F38D819E810196FE
S11309209E838D838D819E810C97E4F21A861986AD
S1130930CBC080917408282F30E089859A85F9010D
S1130940E81BF90BCF0120917608622F70E020910B
S11309507508222F30E04CE850E0660F771F660FD1
S1130960771F260F371F22953295307F3227207F3D
S11309703227420F531F29853A85240F351FF90169
S11309802491880F991F880F991F80509F4FDC0175
S11309902C9380917408282F30E089859A85F90179
S11309A0E81BF90BCF0120917608E22FF0E02091AB
S11309B07508422F50E029853A852C5F3F4F6CE83B
S11309C070E0EE0FFF1FEE0FFF1F4E0F5F1F4295EB
S11309D05295507F5427407F5427460F571F240FAA
S11309E0351FF9012491880F991F880F991F8F5F74
S11309F09E4FDC012C9380917408282F30E0898568
S1130A009A85F901E81BF90BCF0120917608E22FB2
S1130A10F0E020917508422F50E029853A85285F3F
S1130A203F4F6CE870E0EE0FFF1FEE0FFF1F4E0FFD
S1130A305F1F42955295507F5427407F5427460F9D
S1130A40571F240F351FF9012491880F991F880F10
S1130A50991F8E5F9E4FDC012C9380917408282F80
S1130A6030E089859A85F901E81BF90BCF012091C3
S1130A707608E22FF0E020917508422F50E0298596
S1130A803A85245F3F4F6CE870E0EE0FFF1FEE0FD6
S1130A90FF1F4E0F5F1F42955295507F5427407F92
S1130AA05427460F571F240F351FF9012491880F2F
S1130AB0991F880F991F8D5F9E4FDC012C938985A8
S1130AC09A8501969A87898789859A8504970CF473
S1130AD030CF0E944118813029F4809174088F5FCF
S1130AE0809374081C861B8620C01E861D8614C035
S1130AF08B859C859C01220F331F220F331F8D850C
S1130B009E85820F931F80509F4FFC0110828D851C
S1130B109E8501969E878D878D859E85049744F3D7
S1130B208B859C8501969C878B878B859C850C97F0
S1130B30E4F2188A1F86CBC080917408282F30E015
S1130B408F859889A901481B590BCA012091760801
S1130B50622F70E020917508222F30E04CE850E0BD
S1130B60660F771F660F771F260F371F2295329562
S1130B70307F3227207F3227420F531F2F85388939
S1130B80240F351FF9012491880F991F880F991F8D
S1130B9080509F4FDC012C9380917408282F30E003
S1130BA08F859889F901E81BF90BCF01209176080C
S1130BB0E22FF0E020917508422F50E02F8538890C
S1130BC02C5F3F4F6CE870E0EE0FFF1FEE0FFF1F2E
S1130BD04E0F5F1F42955295507F5427407F5427F4
S1130BE0460F571F240F351FF9012491880F991FB1
S1130BF0880F991F8F5F9E4FDC012C93809174089E
S1130C00282F30E08F859889F901E81BF90BCF0173
S1130C1020917608E22FF0E020917508422F50E0F1
S1130C202F853889285F3F4F6CE870E0EE0FFF1F77
S1130C30EE0FFF1F4E0F5F1F42955295507F5427B2
S1130C40407F5427460F571F240F351FF901249165
S1130C50880F991F880F991F8E5F9E4FDC012C937C
S1130C6080917408282F30E08F859889F901E81B5A
S1130C70F90BCF0120917608E22FF0E0209175085E
S1130C80422F50E02F853889245F3F4F6CE870E095
S1130C90EE0FFF1FEE0FFF1F4E0F5F1F4295529581
S1130CA0507F5427407F5427460F571F240F351F6A
S1130CB0F9012491880F991F880F991F8D5F9E4F0A
S1130CC0DC012C938F8598890196988B8F878F856B
S1130CD0988904970CF430CF1A8A198A2AC1809112
S1130CE07408282F30E089899A89281B390B809150
S1130CF07308882F90E040917408642F70E049894C
S1130D005A89641B750B40917308442F50E0660F99
S1130D10771F62957295707F7627607F7627460FDE
S1130D20571F40555D4FDA01EC9140917408642FD0
S1130D3070E049895A89DB01A41BB50BAD01440F4E
S1130D40551F440F551F40505F4FDA014C914E2BF5
S1130D50220F331F22953295307F3227207F32278E
S1130D60820F931F80559D4FFC014083809174082E
S1130D70282F30E089899A89281B390B80917308C0
S1130D80882F90E0019640917408642F70E049899F
S1130D905A89641B750B40917308442F50E04F5FD0
S1130DA05F4F660F771F62957295707F7627607F1D
S1130DB07627460F571F40555D4FDA01EC9140915D
S1130DC07408642F70E049895A89DB01A41BB50BB0
S1130DD0AD01440F551F440F551F4F5F5E4FDA019D
S1130DE04C914E2B220F331F22953295307F3227A0
S1130DF0207F3227820F931F80559D4FFC01408333
S1130E0080917408282F30E089899A89281B390B2E
S1130E1080917308882F90E0029640917408642FA3
S1130E2070E049895A89641B750B40917308442FFB
S1130E3050E04E5F5F4F660F771F62957295707F2B
S1130E407627607F7627460F571F40555D4FDA019E
S1130E50EC9140917408642F70E049895A89DB0150
S1130E60A41BB50BAD01440F551F440F551F4E5F16
S1130E705E4FDA014C914E2B220F331F229532958F
S1130E80307F3227207F3227820F931F80559D4F5A
S1130E90FC01408380917408282F30E089899A8965
S1130EA0281B390B80917308882F90E0039640919A
S1130EB07408642F70E049895A89641B750B40914A
S1130EC07308442F50E04D5F5F4F660F771F6295A4
S1130ED07295707F7627607F7627460F571F40559F
S1130EE05D4FDA01EC9140917408642F70E04989F8
S1130EF05A89DB01A41BB50BAD01440F551F440FE8
S1130F00551F4D5F5E4FDA014C914E2B220F331F5C
S1130F1022953295307F3227207F3227820F931F0C
S1130F2080559D4FFC01408389899A8901969A8B4B
S1130F30898B89899A8904970CF4D1CE0000629632
S1130F400FB6F894DEBF0FBECDBFDF91CF91FF91F6
S1130F50EF91BF91AF919F918F917F916F915F912D
S1130F604F913F912F910F9000925B000F90009250
S1130F705F000F901F9018951F920F9200905F00D2
S1130F800F92112400905B000F922F933F934F9385
S1130F905F936F937F938F939F93AF93BF93EF93DD
S1130FA0FF93CF93DF93CDB7DEB76297DEBFCDBF9C
S1130FB01A82198237C01C821B822BC089819A81B4
S1130FC09C01220F331F22953295307F3227207FD8
S1130FD032278B819C81820F931F805D9E4FDC01A1
S1130FE04C9189819A819C01220F331F229532955D
S1130FF0307F3227207F32278B819C81820F931F81
S113100080559D4FFC0140838B819C8101969C837C
S11310108B838B819C8180978CF289819A81019644
S11310209A83898389819A810C972CF2809175081F
S11310308F5F8093750880917508843011F4109245
S113104075081E821D8220C018861F8214C08D81DF
S11310509E819C01220F331F220F331F8F8198859D
S1131060820F931F80509F4FDC011C928F819885C3
S1131070019698878F838F819885049744F38D8197
S11310809E8101969E838D838D819E810C97E4F2CF
S11310901A861986CBC080917408282F30E0898580
S11310A09A85F901E81BF90BCF0120917608622F8C
S11310B070E020917508222F30E04CE850E0660F74
S11310C0771F660F771F260F371F22953295307FC3
S11310D03227207F3227420F531F29853A85240F58
S11310E0351FF9012491880F991F880F991F80508B
S11310F09F4FDC012C9380917408282F30E0898560
S11311009A85F901E81BF90BCF0120917608E22FAB
S1131110F0E020917508422F50E029853A852C5F34
S11311203F4F6CE870E0EE0FFF1FEE0FFF1F4E0FF6
S11311305F1F42955295507F5427407F5427460F96
S1131140571F240F351FF9012491880F991F880F09
S1131150991F8F5F9E4FDC012C9380917408282F78
S113116030E089859A85F901E81BF90BCF012091BC
S11311707608E22FF0E020917508422F50E029858F
S11311803A85285F3F4F6CE870E0EE0FFF1FEE0FCB
S1131190FF1F4E0F5F1F42955295507F5427407F8B
S11311A05427460F571F240F351FF9012491880F28
S11311B0991F880F991F8E5F9E4FDC012C9380919D
S11311C07408282F30E089859A85F901E81BF90B0A
S11311D0CF0120917608E22FF0E020917508422F8C
S11311E050E029853A85245F3F4F6CE870E0EE0FAC
S11311F0FF1FEE0FFF1F4E0F5F1F42955295507F4A
S11312005427407F5427460F571F240F351FF901D9
S11312102491880F991F880F991F8D5F9E4FDC01C1
S11312202C9389859A8501969A87898789859A85D9
S113123004970CF430CF0E944118813029F4809136
S113124075088150809375081C861B8620C01E86F5
S11312501D8614C08B859C859C01220F331F220F91
S1131260331F8D859E85820F931F80509F4FFC01F5
S113127010828D859E8501969E878D878D859E859E
S1131280049744F38B859C8501969C878B878B857B
S11312909C850C97E4F2188A1F86CBC08091740851
S11312A0282F30E08F859889A901481B590BCA0162
S11312B020917608622F70E020917508222F30E08B
S11312C04CE850E0660F771F660F771F260F371F15
S11312D022953295307F3227207F3227420F531FC9
S11312E02F853889240F351FF9012491880F991F00
S11312F0880F991F80509F4FDC012C9380917408B4
S1131300282F30E08F859889F901E81BF90BCF016C
S113131020917608E22FF0E020917508422F50E0EA
S11313202F8538892C5F3F4F6CE870E0EE0FFF1F6C
S1131330EE0FFF1F4E0F5F1F42955295507F5427AB
S1131340407F5427460F571F240F351FF90124915E
S1131350880F991F880F991F8F5F9E4FDC012C9374
S113136080917408282F30E08F859889F901E81B53
S1131370F90BCF0120917608E22FF0E02091750857
S1131380422F50E02F853889285F3F4F6CE870E08A
S1131390EE0FFF1FEE0FFF1F4E0F5F1F429552957A
S11313A0507F5427407F5427460F571F240F351F63
S11313B0F9012491880F991F880F991F8E5F9E4F02
S11313C0DC012C9380917408282F30E08F85988954
S11313D0F901E81BF90BCF0120917608E22FF0E028
S11313E020917508422F50E02F853889245F3F4FA4
S11313F06CE870E0EE0FFF1FEE0FFF1F4E0F5F1F34
S113140042955295507F5427407F5427460F571FCB
S1131410240F351FF9012491880F991F880F991FF4
S11314208D5F9E4FDC012C938F8598890196988B54
S11314308F878F85988904970CF430CF1A8A198A7C
S11314402AC180917408282F30E089899A89281B41
S1131450390B80917308882F90E040917408642FB1
S113146070E049895A89641B750B40917308442FB5
S113147050E0660F771F62957295707F7627607FC4
S11314807627460F571F40555D4FDA01EC91409186
S11314907408642F70E049895A89DB01A41BB50BD9
S11314A0AD01440F551F440F551F40505F4FDA01E3
S11314B04C914E2B220F331F22953295307F3227C9
S11314C0207F3227820F931F80559D4FFC0140835C
S11314D080917408282F30E089899A89281B390B58
S11314E080917308882F90E0019640917408642FCE
S11314F070E049895A89641B750B40917308442F25
S113150050E04F5F5F4F660F771F62957295707F53
S11315107627607F7627460F571F40555D4FDA01C7
S1131520EC9140917408642F70E049895A89DB0179
S1131530A41BB50BAD01440F551F440F551F4F5F3E
S11315405E4FDA014C914E2B220F331F22953295B8
S1131550307F3227207F3227820F931F80559D4F83
S1131560FC01408380917408282F30E089899A898E
S1131570281B390B80917308882F90E002964091C4
S11315807408642F70E049895A89641B750B409173
S11315907308442F50E04E5F5F4F660F771F6295CC
S11315A07295707F7627607F7627460F571F4055C8
S11315B05D4FDA01EC9140917408642F70E0498921
S11315C05A89DB01A41BB50BAD01440F551F440F11
S11315D0551F4E5F5E4FDA014C914E2B220F331F85
S11315E022953295307F3227207F3227820F931F36
S11315F080559D4FFC01408380917408282F30E072
S113160089899A89281B390B80917308882F90E067
S1131610039640917408642F70E049895A89641BC9
S1131620750B40917308442F50E04D5F5F4F660F78
S1131630771F62957295707F7627607F7627460FB5
S1131640571F40555D4FDA01EC9140917408642FA7
S113165070E049895A89DB01A41BB50BAD01440F25
S1131660551F440F551F4D5F5E4FDA014C914E2BB1
S1131670220F331F22953295307F3227207F322765
S1131680820F931F80559D4FFC01408389899A895D
S113169001969A8B898B89899A8904970CF4D1CE07
S11316A0000062960FB6F894DEBF0FBECDBFDF9187
S11316B0CF91FF91EF91BF91AF919F918F917F91C6
S11316C06F915F914F913F912F910F9000925B002A
S11316D00F9000925F000F901F9018951F920F9229
S11316E000905F000F92112400905B000F922F93E3
S11316F03F934F935F936F937F938F939F93AF9396
S1131700BF93EF93FF93CF93DF93CDB7DEB72697C5
S1131710DEBFCDBF1A82198220C01C821B8214C076
S113172089819A819C01220F331F220F331F8B81E1
S11317309C81820F931F80509F4FFC0110828B81EC
S11317409C8101969C838B838B819C81049744F3B9
S113175089819A8101969A83898389819A810C97D8
S1131760E4F21E821D82CBC080917408282F30E0E1
S11317708D819E81A901481B590BCA0120917608CD
S1131780622F70E020917508222F30E04CE850E081
S1131790660F771F660F771F260F371F2295329526
S11317A0307F3227207F3227420F531F2D813E8105
S11317B0240F351FF9012491880F991F880F991F51
S11317C080509F4FFC01208380917408282F30E0C3
S11317D08D819E81A901481B590BCA01209176086D
S11317E0E22FF0E020917508422F50E02D813E81D8
S11317F02C5F3F4F6CE870E0EE0FFF1FEE0FFF1FF2
S11318004E0F5F1F42955295507F5427407F5427B7
S1131810460F571F240F351FF9012491880F991F74
S1131820880F991F8F5F9E4FFC012083809174085D
S1131830282F30E08D819E81A901481B590BCA01D4
S113184020917608E22FF0E020917508422F50E0B5
S11318502D813E81285F3F4F6CE870E0EE0FFF1F43
S1131860EE0FFF1F4E0F5F1F42955295507F542776
S1131870407F5427460F571F240F351FF901249129
S1131880880F991F880F991F8E5F9E4FFC0120833C
S113189080917408282F30E08D819E81A901481B16
S11318A0590BCA0120917608E22FF0E020917508C7
S11318B0422F50E02D813E81245F3F4F6CE870E061
S11318C0EE0FFF1FEE0FFF1F4E0F5F1F4295529545
S11318D0507F5427407F5427460F571F240F351F2E
S11318E0F9012491880F991F880F991F8D5F9E4FCE
S11318F0FC0120838D819E8101969E838D838D8141
S11319009E8104970CF430CF05C0809173088F5FDB
S1131910809373080E9441188823B9F38091730857
S1131920815080937308000026960FB6F894DEBFAA
S11319300FBECDBFDF91CF91FF91EF91BF91AF91DA
S11319409F918F917F916F915F914F913F912F91D3
S11319500F9000925B000F9000925F000F901F9019
S113196018951F920F9200905F000F92112400901F
S11319705B000F922F933F934F935F936F937F93EB
S11319808F939F93AF93BF93EF93FF93CF93DF9383
S1131990CDB7DEB76297DEBFCDBF1A82198237C0DA
S11319A01C821B822BC089819A819C01220F331FC8
S11319B022953295307F3227207F32278B819C817C
S11319C0820F931F805D9E4FDC014C9189819A8127
S11319D09C01220F331F22953295307F3227207FBE
S11319E032278B819C81820F931F80559D4FFC0170
S11319F040838B819C8101969C838B838B819C810A
S1131A0080978CF289819A8101969A83898389814E
S1131A109A810C972CF2809174088B3028F4809171
S1131A2074088F5F809374081E821D8220C01886FC
S1131A301F8214C08D819E819C01220F331F220FAF
S1131A40331F8F819885820F931F80509F4FDC0135
S1131A501C928F819885019698878F838F819885B2
S1131A60049744F38D819E8101969E838D838D819D
S1131A709E810C97E4F21A861986CBC08091740873
S1131A80282F30E089859A85F901E81BF90BCF01ED
S1131A9020917608622F70E020917508222F30E0A3
S1131AA04CE850E0660F771F660F771F260F371F2D
S1131AB022953295307F3227207F3227420F531FE1
S1131AC029853A85240F351FF9012491880F991F20
S1131AD0880F991F80509F4FDC012C9380917408CC
S1131AE0282F30E089859A85F901E81BF90BCF018D
S1131AF020917608E22FF0E020917508422F50E003
S1131B0029853A852C5F3F4F6CE870E0EE0FFF1F8C
S1131B10EE0FFF1F4E0F5F1F42955295507F5427C3
S1131B20407F5427460F571F240F351FF901249176
S1131B30880F991F880F991F8F5F9E4FDC012C938C
S1131B4080917408282F30E089859A85F901E81B73
S1131B50F90BCF0120917608E22FF0E0209175086F
S1131B60422F50E029853A85285F3F4F6CE870E0AA
S1131B70EE0FFF1FEE0FFF1F4E0F5F1F4295529592
S1131B80507F5427407F5427460F571F240F351F7B
S1131B90F9012491880F991F880F991F8E5F9E4F1A
S1131BA0DC012C9380917408282F30E089859A8574
S1131BB0F901E81BF90BCF0120917608E22FF0E040
S1131BC020917508422F50E029853A85245F3F4FC4
S1131BD06CE870E0EE0FFF1FEE0FFF1F4E0F5F1F4C
S1131BE042955295507F5427407F5427460F571FE4
S1131BF0240F351FF9012491880F991F880F991F0D
S1131C008D5F9E4FDC012C9389859A8501969A8776
S1131C10898789859A8504970CF430CF0E944118EE
S1131C20813029F4809174088150809374081C8653
S1131C301B8620C01E861D8614C08B859C859C0136
S1131C40220F331F220F331F8D859E85820F931F12
S1131C5080509F4FFC0110828D859E8501969E8742
S1131C608D878D859E85049744F38B859C8501968D
S1131C709C878B878B859C850C97E4F2188A1F863A
S1131C80CBC080917408282F30E08F859889A901F2
S1131C90481B590BCA0120917608622F70E02091ED
S1131CA07508222F30E04CE850E0660F771F660F6E
S1131CB0771F260F371F22953295307F3227207FDA
S1131CC03227420F531F2F853889240F351FF901FE
S1131CD02491880F991F880F991F80509F4FDC0112
S1131CE02C9380917408282F30E08F859889F9010E
S1131CF0E81BF90BCF0120917608E22FF0E0209148
S1131D007508422F50E02F8538892C5F3F4F6CE8CF
S1131D1070E0EE0FFF1FEE0FFF1F4E0F5F1F429587
S1131D205295507F5427407F5427460F571F240F46
S1131D30351FF9012491880F991F880F991F8F5F10
S1131D409E4FDC012C9380917408282F30E08F85FE
S1131D509889F901E81BF90BCF0120917608E22F4D
S1131D60F0E020917508422F50E02F853889285FD4
S1131D703F4F6CE870E0EE0FFF1FEE0FFF1F4E0F9A
S1131D805F1F42955295507F5427407F5427460F3A
S1131D90571F240F351FF9012491880F991F880FAD
S1131DA0991F8E5F9E4FDC012C9380917408282F1D
S1131DB030E08F859889F901E81BF90BCF01209158
S1131DC07608E22FF0E020917508422F50E02F852D
S1131DD03889245F3F4F6CE870E0EE0FFF1FEE0F71
S1131DE0FF1F4E0F5F1F42955295507F5427407F2F
S1131DF05427460F571F240F351FF9012491880FCC
S1131E00991F880F991F8D5F9E4FDC012C938F853E
S1131E1098890196988B8F878F85988904970CF4FD
S1131E2030CF1A8A198A2AC180917408282F30E089
S1131E3089899A89281B390B80917308882F90E02F
S1131E4040917408642F70E049895A89641B750BAA
S1131E5040917308442F50E0660F771F6295729586
S1131E60707F7627607F7627460F571F40555D4F5A
S1131E70DA01EC9140917408642F70E049895A8921
S1131E80DB01A41BB50BAD01440F551F440F551FB7
S1131E9040505F4FDA014C914E2B220F331F229595
S1131EA03295307F3227207F3227820F931F80554F
S1131EB09D4FFC01408380917408282F30E089896C
S1131EC09A89281B390B80917308882F90E001961A
S1131ED040917408642F70E049895A89641B750B1A
S1131EE040917308442F50E04F5F5F4F660F771F98
S1131EF062957295707F7627607F7627460F571F0D
S1131F0040555D4FDA01EC9140917408642F70E004
S1131F1049895A89DB01A41BB50BAD01440F551F38
S1131F20440F551F4F5F5E4FDA014C914E2B220F29
S1131F30331F22953295307F3227207F3227820F3C
S1131F40931F80559D4FFC01408380917408282F76
S1131F5030E089899A89281B390B80917308882F6E
S1131F6090E0029640917408642F70E049895A8980
S1131F70641B750B40917308442F50E04E5F5F4F14
S1131F80660F771F62957295707F7627607F76273C
S1131F90460F571F40555D4FDA01EC91409174088C
S1131FA0642F70E049895A89DB01A41BB50BAD018C
S1131FB0440F551F440F551F4E5F5E4FDA014C917D
S1131FC04E2B220F331F22953295307F3227207FEC
S1131FD03227820F931F80559D4FFC0140838091CF
S1131FE07408282F30E089899A89281B390B80913D
S1131FF07308882F90E0039640917408642F70E072
S113200049895A89641B750B40917308442F50E029
S11320104D5F5F4F660F771F62957295707F7627CD
S1132020607F7627460F571F40555D4FDA01EC91CC
S113203040917408642F70E049895A89DB01A41B1C
S1132040B50BAD01440F551F440F551F4D5F5E4F37
S1132050DA014C914E2B220F331F22953295307F9B
S11320603227207F3227820F931F80559D4FFC011A
S1132070408389899A8901969A8B898B89899A895F
S113208004970CF4D1CE000062960FB6F894DEBF2C
S11320900FBECDBFDF91CF91FF91EF91BF91AF9173
S11320A09F918F917F916F915F914F913F912F916C
S11320B00F9000925B000F9000925F000F901F90B2
S11320C018951F920F9200905F000F921124CF93E6
S11320D0DF93CDB7DEB70000DF91CF910F90009270
S11320E05F000F901F901895CF93DF9300D01F923D
S11320F0CDB7DEB71B821A820BC08A819B818D58B3
S11321009B4FFC0110828A819B8101969B838A8369
S11321108A819B818115944084F3198214C089813A
S11321200E94F4028981882F90E09695982F882741
S1132130979587958D589B4F60E870E00E947202D6
S113214089818F5F89838981883048F380E00E9488
S1132150070300000F900F900F90DF91CF91089527
S1132160CF93DF93CDB7DEB7C550D3400FB6F89405
S1132170DEBF0FBECDBF20E033E0CE010696FC01EA
S1132180A901119241505040E1F71A821982E8C125
S11321901C821B82DBC189819A819C01220F331F1F
S11321A022953295307F3227207F32278B819C8184
S11321B0820F931F80559D4FFC018081813009F06F
S11321C0C0C189819A8181709927892B09F0DDC06A
S11321D089819A8199230CF40196959587952B8191
S11321E03C81220F331F220F331F4B815C81440F2C
S11321F0551F440F551FBC017695762F662777959A
S11322006795FE0131966E0F7F1F460F571F4B5F78
S11322105F4FFA014081642F6F609695982F88274D
S113222097958795AE014F5F5F4F840F951F820F7F
S1132230931F0596FC01608389819A8199230CF48C
S11322400196959587952B813C81220F331F220F90
S1132250331F2F5F3F4F4B815C81440F551F440F49
S1132260551F4F5F5F4FBC017695762F6627779594
S11322706795FE0131966E0F7F1F460F571F4B5F08
S11322805F4FFA014081642F6F609695982F8827DD
S113229097958795AE014F5F5F4F840F951F820F0F
S11322A0931F0596FC01608389819A8199230CF41C
S11322B00196959587952B813C81220F331F220F20
S11322C0331F2E5F3F4F4B815C81440F551F440FDA
S11322D0551F4E5F5F4FBC017695762F6627779525
S11322E06795FE0131966E0F7F1F460F571F4B5F98
S11322F05F4FFA014081642F6F609695982F88276D
S113230097958795AE014F5F5F4F840F951F820F9E
S1132310931F0596FC01608389819A8199230CF4AB
S11323200196959587952B813C81220F331F220FAF
S1132330331F2D5F3F4F4B815C81440F551F440F6A
S1132340551F4D5F5F4FBC017695762F66277795B5
S11323506795FE0131966E0F7F1F460F571F4B5F27
S11323605F4FFA014081642F6F609695982F8827FC
S113237097958795AE014F5F5F4F840F951F820F2E
S1132380931F0596FC016083DCC089819A8199239F
S11323900CF40196959587952B813C81220F331F70
S11323A0220F331F4B815C81440F551F440F551F6F
S11323B0BC017695762F662777956795FE01319651
S11323C06E0F7F1F460F571F4B5F5F4FFA0140810F
S11323D0642F606F9695982F882797958795AE01FF
S11323E04F5F5F4F840F951F820F931F0596FC016B
S11323F0608389819A8199230CF401969595879538
S11324002B813C81220F331F220F331F2F5F3F4F3D
S11324104B815C81440F551F440F551F4F5F5F4F25
S1132420BC017695762F662777956795FE013196E0
S11324306E0F7F1F460F571F4B5F5F4FFA0140819E
S1132440642F606F9695982F882797958795AE018E
S11324504F5F5F4F840F951F820F931F0596FC01FA
S1132460608389819A8199230CF4019695958795C7
S11324702B813C81220F331F220F331F2E5F3F4FCE
S11324804B815C81440F551F440F551F4E5F5F4FB6
S1132490BC017695762F662777956795FE01319670
S11324A06E0F7F1F460F571F4B5F5F4FFA0140812E
S11324B0642F606F9695982F882797958795AE011E
S11324C04F5F5F4F840F951F820F931F0596FC018A
S11324D0608389819A8199230CF401969595879557
S11324E02B813C81220F331F220F331F2D5F3F4F5F
S11324F04B815C81440F551F440F551F4D5F5F4F47
S1132500BC017695762F662777956795FE013196FF
S11325106E0F7F1F460F571F4B5F5F4FFA014081BD
S1132520642F606F9695982F882797958795AE01AD
S11325304F5F5F4F840F951F820F931F0596FC0119
S113254060838B819C8101969C838B838B819C818E
S113255080970CF420CE89819A8101969A8389838D
S113256089819A810C970CF413CE82E08D8318C074
S11325708D810E94F4028D81882F90E002979E0144
S11325802A5F3F4F9695982F882797958795820FB6
S1132590931F60E870E00E9472028D818F5F8D83CB
S11325A08D81883028F30000CB5FDC4F0FB6F894A0
S11325B0DEBF0FBECDBFDF91CF910895CF93DF93E0
S11325C0CDB7DEB72A970FB6F894DEBF0FBECDBFE6
S11325D010923004809132048093760882E590E072
S11325E0DC012C9185E2289F812D1124922F981BC8
S11325F09695890F982F96959695892F880F880F11
S1132600880F891B922F981B90933204109275089F
S11326101092730887E0809374081A82198220C08C
S11326201C821B8214C089819A819C01220F331F52
S1132630220F331F8B819C81820F931F80509F4FE9
S1132640FC0110828B819C8101969C838B838B81FE
S11326509C81049744F389819A8101969A838983A2
S113266089819A810C97E4F21E821D82CBC08091ED
S11326707408282F30E08D819E81A901481B590BD5
S1132680CA0120917608622F70E020917508222FEC
S113269030E04CE850E0660F771F660F771F260F77
S11326A0371F22953295307F3227207F3227420F01
S11326B0531F2D813E81240F351FF9012491880F6A
S11326C0991F880F991F80509F4FDC012C93809194
S11326D07408282F30E08D819E81F901E81BF90BE5
S11326E0CF0120917608E22FF0E020917508422F67
S11326F050E02D813E812C5F3F4F6CE870E0EE0F7F
S1132700FF1FEE0FFF1F4E0F5F1F42955295507F24
S11327105427407F5427460F571F240F351FF901B4
S11327202491880F991F880F991F8F5F9E4FDC019A
S11327302C9380917408282F30E08D819E81F901BB
S1132740E81BF90BCF0120917608E22FF0E02091ED
S11327507508422F50E02D813E81285F3F4F6CE881
S113276070E0EE0FFF1FEE0FFF1F4E0F5F1F42952D
S11327705295507F5427407F5427460F571F240FEC
S1132780351FF9012491880F991F880F991F8E5FB7
S11327909E4FDC012C9380917408282F30E08D81AA
S11327A09E81F901E81BF90BCF0120917608E22FF5
S11327B0F0E020917508422F50E02D813E81245F86
S11327C03F4F6CE870E0EE0FFF1FEE0FFF1F4E0F40
S11327D05F1F42955295507F5427407F5427460FE0
S11327E0571F240F351FF9012491880F991F880F53
S11327F0991F8D5F9E4FDC012C938D819E810196E4
S11328009E838D838D819E8104970CF430CF18862E
S11328101F82D4C080917408282F30E08F8198855E
S1132820281B390B80917308882F90E0220F331FE7
S113283022953295307F3227207F3227820F931FD3
S113284080559D4FFC01408180917408282F30E011
S11328508F819885B901681B790BCB01880F991F6B
S1132860880F991F80509F4FDC018C91942F9823DF
S113287080913104892B8093310480917408282F2E
S113288030E08F819885281B390B80917308882F3D
S113289090E00196220F331F22953295307F322724
S11328A0207F3227820F931F80559D4FFC0140816A
S11328B080917408282F30E08F819885B901681BB6
S11328C0790BCB01880F991F880F991F8F5F9E4F3B
S11328D0DC018C91942F982380913104892B80936F
S11328E0310480917408282F30E08F819885281B4B
S11328F0390B80917308882F90E00296220F331FC2
S113290022953295307F3227207F3227820F931F02
S113291080559D4FFC01408180917408282F30E040
S11329208F819885B901681B790BCB01880F991F9A
S1132930880F991F8E5F9E4FDC018C91942F9823F2
S113294080913104892B8093310480917408282F5D
S113295030E08F819885281B390B80917308882F6C
S113296090E00396220F331F22953295307F322751
S1132970207F3227820F931F80559D4FFC01408199
S113298080917408282F30E08F819885B901681BE5
S1132990790BCB01880F991F880F991F8D5F9E4F6C
S11329A0DC018C91942F982380913104892B80939E
S11329B031048F819885019698878F838F819885BC
S11329C004970CF427CF1A8619862AC180917408BB
S11329D0282F30E089859A85281B390B809173084C
S11329E0882F90E040917408642F70E049855A85DF
S11329F0641B750B40917308442F50E0660F771FDA
S1132A0062957295707F7627607F7627460F571FF1
S1132A1040555D4FDA01EC9140917408642F70E0E9
S1132A2049855A85DB01A41BB50BAD01440F551F25
S1132A30440F551F40505F4FDA014C914E2B220F2B
S1132A40331F22953295307F3227207F3227820F21
S1132A50931F80559D4FFC01408380917408282F5B
S1132A6030E089859A85281B390B80917308882F5B
S1132A7090E0019640917408642F70E049855A856E
S1132A80641B750B40917308442F50E04F5F5F4FF8
S1132A90660F771F62957295707F7627607F762721
S1132AA0460F571F40555D4FDA01EC914091740871
S1132AB0642F70E049855A85DB01A41BB50BAD0179
S1132AC0440F551F440F551F4F5F5E4FDA014C9161
S1132AD04E2B220F331F22953295307F3227207FD1
S1132AE03227820F931F80559D4FFC0140838091B4
S1132AF07408282F30E089859A85281B390B80912A
S1132B007308882F90E0029640917408642F70E057
S1132B1049855A85641B750B40917308442F50E016
S1132B204E5F5F4F660F771F62957295707F7627B1
S1132B30607F7627460F571F40555D4FDA01EC91B1
S1132B4040917408642F70E049855A85DB01A41B09
S1132B50B50BAD01440F551F440F551F4E5F5E4F1B
S1132B60DA014C914E2B220F331F22953295307F80
S1132B703227207F3227820F931F80559D4FFC01FF
S1132B80408380917408282F30E089859A85281B1A
S1132B90390B80917308882F90E003964091740854
S1132BA0642F70E049855A85641B750B4091730846
S1132BB0442F50E04D5F5F4F660F771F629572950B
S1132BC0707F7627607F7627460F571F40555D4FED
S1132BD0DA01EC9140917408642F70E049855A85BC
S1132BE0DB01A41BB50BAD01440F551F440F551F4A
S1132BF04D5F5E4FDA014C914E2B220F331F22950D
S1132C003295307F3227207F3227820F931F8055E1
S1132C109D4FFC01408389859A8501969A8789870F
S1132C2089859A8504970CF4D1CE00002A960FB6B4
S1132C30F894DEBF0FBECDBFDF91CF910895CF933F
S1132C40DF93CDB7DEB7CD50D1400FB6F894DEBFD9
S1132C500FBECDBF1A82198222C01C821B8216C0ED
S1132C6089819A819C01220F331F220F331F220F67
S1132C70331F8B819C81820F931F8D5C9B4FFC01C2
S1132C8010828B819C8101969C838B838B819C8198
S1132C90089734F389819A8101969A83898389817B
S1132CA09A810897D4F21E821D8283C08D819E81F1
S1132CB0029620913204222F30E04CE850E00024A8
S1132CC0369527950794369527950794322F202D0E
S1132CD0420F531F2D813E81240F351FF90124918A
S1132CE08D5B9B4FFC0120838D819E8102962091F8
S1132CF03204422F50E02D813E812C5F3F4F6CE81F
S1132D0070E0002456954795079456954795079487
S1132D10542F402D460F571F240F351FF9012491BE
S1132D20855B9B4FFC0120838D819E8102962091BF
S1132D303204422F50E02D813E81285F3F4F6CE8E2
S1132D4070E0002456954795079456954795079447
S1132D50542F402D460F571F240F351FF90124917E
S1132D608D5A9B4FFC0120838D819E810296209178
S1132D703204422F50E02D813E81245F3F4F6CE8A6
S1132D8070E0002456954795079456954795079407
S1132D90542F402D460F571F240F351FF90124913E
S1132DA0855A9B4FFC0120838D819E8101969E83D1
S1132DB08D838D819E8104970CF478CF20E031E0DF
S1132DC0CE010E96FC01A901119241505040E1F749
S1132DD08FEF888BCE0180579F4F2FEFFC0120830C
S1132DE08FEF8F8FCE0181569F4F2FEFFC012083F1
S1132DF082E090E098878F832DC09E01225F3F4F31
S1132E008F819885820F931FFC018081482F416038
S1132E109E01225F3F4F8F819885820F931FFC0193
S1132E2040839E0122573F4F8F819885820F931FC5
S1132E30FC018081482F40689E0122573F4F8F81BB
S1132E409885820F931FFC0140838F81988501969A
S1132E5098878F838F81988542977CF21A8619868A
S1132E60E4C01C861B86D7C089859A859C01220FE5
S1132E70331F220F331F220F331F8B859C85820F34
S1132E80931F8D5C9B4FFC018081813009F0BEC093
S1132E908B859C8504970CF05DC089859A85019685
S1132EA0880F991F29853A852F5F3F4F220F331FC3
S1132EB0AE0142575F4F240F351FF9012081622F65
S1132EC043E050E02B853C85FA01E21BF30B9F01A4
S1132ED0A901440F551F23E030E002C0220F331F25
S1132EE04A95E2F7262B422F9E0122573F4F820F2D
S1132EF0931FFC01408389859A85880F991F039647
S1132F0029853A85220F331F2D5F3F4FAE0142576B
S1132F105F4F240F351FF9012081622F43E050E0F9
S1132F202B853C85FA01E21BF30B9F01A901440F99
S1132F30551F23E030E002C0220F331F4A95E2F709
S1132F40262B422F9E0122573F4F820F931FFC01D5
S1132F5040835CC089859A850196880F991F2985CD
S1132F603A852F5F3F4F220F331FAE01425F5F4F01
S1132F70240F351FF9012081622F47E050E02B8593
S1132F803C85FA01E21BF30B9F01A901440F551F75
S1132F9023E030E002C0220F331F4A95E2F7262BCC
S1132FA0422F9E01225F3F4F820F931FFC014083FB
S1132FB089859A85880F991F039629853A85220F5A
S1132FC0331F2D5F3F4FAE01425F5F4F240F351F0C
S1132FD0F9012081622F47E050E02B853C85FA01FE
S1132FE0E21BF30B9F01A901440F551F23E030E0BE
S1132FF002C0220F331F4A95E2F7262B422F9E016F
S1133000225F3F4F820F931FFC0140838B859C8579
S113301001969C878B878B859C8508970CF424CF1D
S113302089859A8501969A87898789859A850897DB
S11330300CF417CF1D8617C08D850E94F4028D8570
S1133040882F90E09E01225F3F4F9695982F882706
S113305097958795820F931F60E870E00E94720233
S11330608D858F5F8D878D85823030F30000C35F3F
S1133070DE4F0FB6F894DEBF0FBECDBFDF91CF9108
S11330800895CF93DF9300D000D000D0CDB7DEB742
S113309019821A821B821C821E821D82C8C08091E2
S11330A07408282F30E08D819E81281B390B809174
S11330B07308882F90E0220F331F22953295307FBA
S11330C03227207F3227820F931F805D9E4FFC01A1
S11330D0408180917408282F30E08D819E81B90150
S11330E0681B790BCB01880F991F880F991F80509B
S11330F09F4FFC01808184239981892B898380914E
S11331007408282F30E08D819E81281B390B809113
S11331107308882F90E00196220F331F2295329571
S1133120307F3227207F3227820F931F805D9E4F8E
S1133130FC01408180917408282F30E08D819E81AC
S1133140B901681B790BCB01880F991F880F991F50
S11331508F5F9E4FFC01808184239A81892B8A830F
S113316080917408282F30E08D819E81281B390BB3
S113317080917308882F90E00296220F331F2295C6
S11331803295307F3227207F3227820F931F805D54
S11331909E4FFC01408180917408282F30E08D817E
S11331A09E81B901681B790BCB01880F991F880F89
S11331B0991F8E5F9E4FFC01808184239B81892B04
S11331C08B8380917408282F30E08D819E81281B89
S11331D0390B80917308882F90E00396220F331FD8
S11331E022953295307F3227207F3227820F931F1A
S11331F0805D9E4FFC01408180917408282F30E04F
S11332008D819E81B901681B790BCB01880F991FB1
S1133210880F991F8D5F9E4FFC01808184239C81C0
S1133220892B8C838D819E8101969E838D838D81D4
S11332309E8104970CF433CF8981813049F08A81CF
S1133240813031F08B81813019F08C81813011F41F
S113325081E001C080E026960FB6F894DEBF0FBE71
S1133260CDBFDF91CF910895CF93DF93CDB7DEB774
S1133270AA970FB6F894DEBF0FBECDBF0E944202DC
S113328083E590E027E0DC012C9381E390E0FC01EE
S1133290108282E290E0DC011C928AE590E02AEA46
S11332A0FC0120838AE690E020E8DC012C9389E588
S11332B090E028EFFC01208378940E94F50310929B
S11332C031041A82198234C089819A81805D9E4FAB
S11332D021E0DC012C9389819A8180579D4F21E064
S11332E0FC01208381E090E09C838B8318C08B8158
S11332F09C819C01220F331F22953295307F322707
S1133300207F322789819A81820F931F805D9E4F8F
S1133310DC011C928B819C8101969C838B838B8125
S11333209C810B9724F389819A8101969A838983DE
S113333089819A814F9744F21E821D8214C08D8127
S11333409E81880F991F82959295907F9827807F00
S11333509827815B9E4F21E0FC0120838D819E8113
S113336001969E838D838D819E810C9744F371C455
S113337018861F82C4C08F819885805B9E4FDC01B4
S11333808C91813009F0B6C08F81988580599E4F09
S1133390FC018081813009F0ADC08F819885805710
S11333A09E4FDC018C91813009F0A4C08F819885F7
S11333B080559E4FFC018081813009F09BC08F8134
S11333C0988580539E4FDC018C91813009F092C026
S11333D08F81988580519E4FFC018081813009F056
S11333E089C08F819885805F9D4FDC018C918130ED
S11333F009F080C08F819885805D9D4FFC0180819C
S1133400813009F077C08F819885805B9D4FDC0106
S11334108C91813009F06EC08F81988580599D4FC1
S1133420FC018081813009F065C08F819885805DC1
S11334309E4F21E0DC012C938F81988580579D4F0E
S113344021E0FC01208381E090E09A8789874DC0C8
S113345089859A859C01220F331F22953295307FEE
S11334603227207F32278F819885820F931F805DBA
S11334709E4FDC011C928F8198859C878B872BC083
S11334808B859C85019729853A85220F331F2295C8
S11334903295307F3227207F3227820F931F805D41
S11334A09E4FFC01408189859A859C01220F331F20
S11334B022953295307F3227207F32278B859C8559
S11334C0820F931F805D9E4FDC014C938B859C85FE
S11334D001979C878B878B859C851816190684F227
S11334E089859A8501969A87898789859A850B9714
S11334F00CF4AECF8F819885019698878F838F8146
S113350098854F970CF437CF1E861D8637C0188ACE
S11335101F862BC08D859E859C01220F331F22950B
S11335203295307F3227207F32278F859889820F0A
S1133530931F805D9E4FFC0140818D859E859C017B
S1133540220F331F22953295307F3227207F322776
S11335508F859889820F931F80559D4FDC014C9372
S11335608F8598890196988B8F878F859889809706
S11335708CF28D859E8501969E878D878D859E858F
S11335800C972CF21BD85BDB5FC31A8A198A37C0ED
S11335901C8A1B8A2BC089899A899C01220F331F9C
S11335A022953295307F3227207F32278B899C8960
S11335B0820F931F805D9E4FFC01408189899A8907
S11335C09C01220F331F22953295307F3227207FB2
S11335D032278B899C89820F931F80559D4FDC0174
S11335E04C938B899C8901969C8B8B8B8B899C89B2
S11335F080978CF289899A8901969A8B898B89891B
S11336009A890C972CF2809173088F5F80937308CA
S113361038DD813009F03AC180917308815080937C
S113362073081E8A1D8A2AC180917408282F30E0ED
S11336308D899E89281B390B80917308882F90E00F
S113364040917408642F70E04D895E89641B750B8A
S113365040917308442F50E0660F771F629572956E
S1133660707F7627607F7627460F571F405D5E4F39
S1133670DA01EC9140917408642F70E04D895E8901
S1133680DB01A41BB50BAD01440F551F440F551F9F
S113369040505F4FDA014C914E2B220F331F22957D
S11336A03295307F3227207F3227820F931F805D2F
S11336B09E4FFC01408380917408282F30E08D894F
S11336C09E89281B390B80917308882F90E00196FE
S11336D040917408642F70E04D895E89641B750BFA
S11336E040917308442F50E04F5F5F4F660F771F80
S11336F062957295707F7627607F7627460F571FF5
S1133700405D5E4FDA01EC9140917408642F70E0E3
S11337104D895E89DB01A41BB50BAD01440F551F18
S1133720440F551F4F5F5E4FDA014C914E2B220F11
S1133730331F22953295307F3227207F3227820F24
S1133740931F805D9E4FFC01408380917408282F55
S113375030E08D899E89281B390B80917308882F4E
S113376090E0029640917408642F70E04D895E8960
S1133770641B750B40917308442F50E04E5F5F4FFC
S1133780660F771F62957295707F7627607F762724
S1133790460F571F405D5E4FDA01EC91409174086B
S11337A0642F70E04D895E89DB01A41BB50BAD016C
S11337B0440F551F440F551F4E5F5E4FDA014C9165
S11337C04E2B220F331F22953295307F3227207FD4
S11337D03227820F931F805D9E4FFC0140838091AE
S11337E07408282F30E08D899E89281B390B80911D
S11337F07308882F90E0039640917408642F70E05A
S11338004D895E89641B750B40917308442F50E009
S11338104D5F5F4F660F771F62957295707F7627B5
S1133820607F7627460F571F405D5E4FDA01EC91AB
S113383040917408642F70E04D895E89DB01A41BFC
S1133840B50BAD01440F551F440F551F4D5F5E4F1F
S1133850DA014C914E2B220F331F22953295307F83
S11338603227207F3227820F931F805D9E4FFC01F9
S113387040838D899E8901969E8B8D8B8D899E892F
S113388004970CF4D1CE81E080933004188E1F8A03
S113389037C01A8E198E2BC08F89988D9C01220FE8
S11338A0331F22953295307F3227207F3227898D2E
S11338B09A8D820F931F805D9E4FDC014C918F89FE
S11338C0988D9C01220F331F22953295307F322729
S11338D0207F3227898D9A8D820F931F80559D4FAB
S11338E0FC014083898D9A8D01969A8F898F898DE9
S11338F09A8D80978CF28F89988D0196988F8F8BF3
S11339008F89988D0C972CF21C8E1B8E2AC1809166
S11339107408282F30E08B8D9C8D281B390B8091E7
S11339207308882F90E040917408642F70E04B8DE9
S11339305C8D641B750B40917308442F50E0660F37
S1133940771F62957295707F7627607F7627460F82
S1133950571F40555D4FDA01EC9140917408642F74
S113396070E04B8D5C8DDB01A41BB50BAD01440FE6
S1133970551F440F551F40505F4FDA014C914E2B99
S1133980220F331F22953295307F3227207F322732
S1133990820F931F80559D4FFC01408380917408D2
S11339A0282F30E08B8D9C8D281B390B8091730858
S11339B0882F90E0019640917408642F70E04B8D3D
S11339C05C8D641B750B40917308442F50E04F5F6E
S11339D05F4F660F771F62957295707F7627607FC1
S11339E07627460F571F40555D4FDA01EC91409101
S11339F07408642F70E04B8D5C8DDB01A41BB50B48
S1133A00AD01440F551F440F551F4F5F5E4FDA0140
S1133A104C914E2B220F331F22953295307F322743
S1133A20207F3227820F931F80559D4FFC014083D6
S1133A3080917408282F30E08B8D9C8D281B390BC6
S1133A4080917308882F90E0029640917408642F47
S1133A5070E04B8D5C8D641B750B40917308442F93
S1133A6050E04E5F5F4F660F771F62957295707FCF
S1133A707627607F7627460F571F40555D4FDA0142
S1133A80EC9140917408642F70E04B8D5C8DDB01E8
S1133A90A41BB50BAD01440F551F440F551F4E5FBA
S1133AA05E4FDA014C914E2B220F331F2295329533
S1133AB0307F3227207F3227820F931F80559D4FFE
S1133AC0FC01408380917408282F30E08B8D9C8DFD
S1133AD0281B390B80917308882F90E0039640913E
S1133AE07408642F70E04B8D5C8D641B750B4091E2
S1133AF07308442F50E04D5F5F4F660F771F629548
S1133B007295707F7627607F7627460F571F405542
S1133B105D4FDA01EC9140917408642F70E04B8D95
S1133B205C8DDB01A41BB50BAD01440F551F440F85
S1133B30551F4D5F5E4FDA014C914E2B220F331F00
S1133B4022953295307F3227207F3227820F931FB0
S1133B5080559D4FFC0140838B8D9C8D01969C8FDD
S1133B608B8F8B8D9C8D04970CF4D1CE0E94B0105A
S1133B7080E090E0A8E4B2E48D8F9E8FAF8FB8A36D
S1133B8020E030E04AE755E46D8D7E8D8F8D98A15D
S1133B90E7D0DC01CB0189A39AA3ABA3BCA320E0AB
S1133BA030E040E85FE369A17AA18BA19CA157D0E2
S1133BB088232CF481E090E09EA38DA33BC020E0F9
S1133BC03FEF4FE757E469A17AA18BA19CA1C4D030
S1133BD018163CF520E030E040E251E46D8D7E8D16
S1133BE08F8D98A1BDD0DC01CB01BC01CD013BD0B0
S1133BF0DC01CB019EA38DA30FC080E991E098A7BF
S1133C008FA38FA198A50197F1F798A78FA38DA1F2
S1133C109EA101979EA38DA38DA19EA1892B69F7D7
S1133C2013C069A17AA18BA19CA11DD0DC01CB0199
S1133C309EA38DA38DA19EA19AA789A789A59AA5C4
S1133C400197F1F79AA789A780913004882309F492
S1133C509CCC80913104882309F48ACB30CB2FD0BB
S1133C6008F481E0089557D088F09F5790F0B92F59
S1133C709927B751A0F0D1F0660F771F881F991FBD
S1133C801AF0BA95C9F712C0B13081F05ED0B1E034
S1133C9008955BC0672F782F8827B85F39F0B93F44
S1133CA0CCF3869577956795B395D9F73EF49095BF
S1133CB08095709561957F4F8F4F9F4F0895990F11
S1133CC00008550FAA0BE0E8FEEF16161706E807E2
S1133CD0F907C0F012161306E407F50798F0621B03
S1133CE0730B840B950B39F40A2661F0232B242BD8
S1133CF0252B21F408950A2609F4A140A6958FEFF7
S1133D00811D811D089557FD9058440F551F59F08A
S1133D105F3F71F04795880F97FB991F61F09F3FB4
S1133D2079F087950895121613061406551FF2CFDD
S1133D304695F1DF08C0161617061806991FF1CF2D
S1133D4086957105610508940895E894BB27662754
S1133D507727CB0197F90895B2DF08F48FEF089520
S1133D600BD078C069D028F06ED018F0952309F0F4
S1133D705AC05FC01124EACFC6DFA0F3959FD1F3E8
S1133D80950F50E0551F629FF001729FBB27F00D05
S1133D90B11D639FAA27F00DB11DAA1F649F66275A
S1133DA0B00DA11D661F829F2227B00DA11D621FA9
S1133DB0739FB00DA11D621F839FA00D611D221F63
S1133DC0749F3327A00D611D231F849F600D211D47
S1133DD0822F762F6A2F11249F5750408AF0E1F0EA
S1133DE088234AF0EE0FFF1FBB1F661F771F881F33
S1133DF091505040A9F79E3F510570F014C0A6CFD2
S1133E005F3FECF3983EDCF3869577956795B7951D
S1133E10F795E7959F5FC1F7FE2B880F911D969547
S1133E20879597F9089597F99F6780E870E060E0B7
S1133E3008959FEF80EC089500240A94161617063F
S1133E4018060906089500240A9412161306140687
S1133E5005060895092E0394000C11F4882352F0EA
S1133E60BB0F40F4BF2B11F460FF04C06F5F7F4FA2
S10D3E708F4F9F4F0895F894FFCF81
S9030000FC
