S00C00004F4C45442E73726563F4
S113000045C0000060C000005EC000005CC000008D
S11300105AC0000058C0000056C0000054C0000080
S113002052C0000050C000004EC000004CC0000090
S11300304AC0000048C0000046C0000044C00000A0
S113004042C0000040C000003EC000003CC00000B0
S11300503AC0000038C0000036C0000034C00000C0
S113006032C0000030C000002EC000002CC00000D0
S11300702AC0000028C0000026C0000024C00000E0
S113008022C0000020C000001EC0000011241FBEBA
S1130090CFEFD0E1DEBFCDBF15E0A0E0B1E0ECEDE5
S11300A0F3E000E00BBF02C007900D92A030B1074F
S11300B0D9F725E0A0E0B5E001C01D92A530B20754
S11300C0E1F729D189C19CCFE1E7F0E020812E7FBF
S11300D0208320812D7F20839C0140E050E060E854
S11300E07EE380E090E03AD1822F203148F030E086
S11300F020513109C90199230CF4019695958795EE
S1130100809370000895A89AA99A909A919A10924F
S1130110030510920205109201051092000584E671
S113012090E0D2DFE4E7F0E0808184608083109285
S113013004058081816080838081806480837894D9
S11301400895CF93DF93E4E7F0E090819E7F90835E
S113015090819F70906A908390819923ECF78E7FB1
S113016080937300E4E7F0E080818F70806880837F
S113017080818823ECF7809171008831A9F466238B
S1130180A9F0A42FB52FC3E7D0E0E4E7F0E08D9108
S1130190888380818F708068808380818823ECF7D6
S11301A06150A9F780E003C081E001C080E0E4E78A
S11301B0F0E090819F70906D9083908194FFFDCFCB
S11301C0E4E7F0E0908191609083DF91CF9108950E
S11301D0CF93DF93CDB7DEB7E2970FB6F894DEBFC7
S11301E00FBECDBF19828A83AE014F5F5F4F62E0BD
S11301F070E088E790E0A5DFE2960FB6F894DEBFE2
S11302000FBECDBFDF91CF910895CF93DF93CDB7CC
S1130210DEB7E2970FB6F894DEBF0FBECDBF90E411
S113022099838A83AE014F5F5F4F62E070E088E795
S113023090E087DFE2960FB6F894DEBF0FBECDBF25
S1130240DF91CF9108958EEAC3DF80E2C1DF80E1C0
S1130250BFDF80EBBDDF88ECBBDF80E0B9DF80E18E
S1130260B7DF80E4B5DF81E8B3DF8FE7B1DF81EA90
S1130270AFDF86EAADDF88EAABDF8FE3A9DF84EA8C
S1130280A7DF83EDA5DF80E0A3DF85EDA1DF80EFAD
S11302909FDF89ED9DDF82E29BDF8AED99DF82E1BA
S11302A097DF8BED95DF80E293DF8DE891DF84E1CA
S11302B08FDF8FEA8DCF0895DF92EF92FF920F9335
S11302C01F93CF93DF93C0E0D0E00F2EF0EBDF2E2F
S11302D0F02D8D2D7DDF80E07BDF80E179DF8E01E5
S11302E000501F4F7E0180E8E80EF11C2196F801B2
S11302F081918F018ADFCE15DF05C1F7D394E11414
S1130300F4E0FF0631F7DF91CF911F910F91FF9039
S1130310EF90DF900895F7DE87E390E0D5DE7894E0
S11303202FEF89E698E1215080409040E1F700C02A
S1130330000089DF2FEF89E698E12150804090404A
S1130340E1F700C00000B8DF2FEF80E792E0215012
S113035080409040E1F700C00000F6CF052E97FBE7
S113036016F400940FD057FD05D014D007FC02D02A
S113037046F408C050954095309521953F4F4F4F16
S11303805F4F089590958095709561957F4F8F4F3D
S11303909F4F0895A1E21A2EAA1BBB1BFD010DC09D
S11303A0AA1FBB1FEE1FFF1FA217B307E407F50721
S11303B020F0A21BB30BE40BF50B661F771F881FFD
S11303C0991F1A9469F760957095809590959B0193
S10F03D0AC01BD01CF010895F894FFCFEB
S11303DC0003050911FF118905C300E000F000F8C2
S11303EC000000000000004428FF11AA4400000093
S11303FC00000000000000000000000000000000ED
S113040C00000000000000000000000000000000DC
S113041C00000000000000000000000000000000CC
S113042C00000000000000000000830138448292A8
S113043C92740183000000000000007C44FF017DE5
S113044C7D7D017D7D7D7D017D7D7D7D7D01FF003B
S113045C0000000000010001000100010001000186
S113046C000000000000000000010100000000007A
S113047C000000000000000000000000000000006C
S113048C000000000000000000000000000000005C
S113049C000000000000000000000000000000004C
S11304AC000000000000000000000101000000003A
S11304BC0000010100000000000000000001010127
S11304CC010101010101010101010101010101000D
S11304DC000000000000000000000000000000000C
S11304EC0000000000000000000000003F3F030378
S11304FCF31311111111111101F111618101010198
S113050C816111F1010101014141F101010101017B
S113051CC1211111111121C1010101014141F1014B
S113052C0101010101010101011111111111D33357
S113053C03033F3F00000000000000000000000027
S113054C000000000000000000000000000000009B
S113055C000000000000000000000000000000008B
S113056C000000000000000000000000E0E00000BB
S113057C7F01010101010100007F00000106180642
S113058C0100007F0000000040407F40400000005C
S113059C1F2040404040201F0000000040407F408E
S11305AC4000000000600000000040300C0300001C
S11305BC0000E0E00000000000000000000000006B
S11305CC000000000000000000000000000000001B
S11305DC000000000000000000000000000000000B
S11305EC00000000000000000000000007070606E1
S11305FC06060404048444444484040484444444A7
S113060C8404040484C4040404048444444484041A
S113061C040404048444444484040404040484440A
S113062C44448404048444444484040404040606B6
S113063C0606070700000000000000000000000090
S113064C000000000000000000000000000000009A
S113065C000000000000000000000000000000008A
S113066C000000000000000000000000000000007A
S113067C0000000000101814121100000F101010CC
S113068C0F000000101F10000000081012120D00C3
S113069C001800000D1212120D00001800001018A2
S11306AC14121100001018141211000000000000A4
S11306BC000000000000000000000000000000002A
S11306CC000000000000000000000000000000001A
S11306DC000000000000000000000000000000000A
S11306EC00000000000000000000000000000000FA
S11306FC00000000000000000000000000000000EA
S113070C00000000000000000000000080808080D9
S113071C80808080000000000000000000000000C9
S113072C00000000000000000000000000000000B9
S113073C00000000000000000000000000000000A9
S113074C0000000000000000000000000000000099
S113075C007F030C300C037F000038545458000005
S113076C7C04047800003C40407C00000000000045
S113077C0000000000000000000000000000000069
S113078C000000000000000000000000FFAAAAAA5C
S113079C280800FF0000000000000000000000001A
S11307AC0000000000000000000000000000000039
S11307BC0000000000000000007F030C300C037FDD
S11307CC0000264949493200007F020408107F00CA
S9030000FC
