S01000004446506C617965722E737265631D
S113000045C0000058C0000056C0000054C00000A5
S113001052C0000050C000004EC000004CC00000A0
S11300204AC0000048C0000046C0000044C00000B0
S113003042C0000040C000003EC000003CC00000C0
S11300403AC0000038C0000036C0000034C00000D0
S113005032C0000030C000002EC000002CC00000E0
S11300602AC0000028C0000026C0000024C00000F0
S113007022C0000020C000001EC000001CC0000000
S11300801AC0000018C0000016C0000011241FBED2
S1130090CFEFD0E1DEBFCDBF11E0A0E0B1E0ECEFE7
S11300A0F5E000E00BBF02C007900D92A030B1074D
S11300B0D9F7AFD0A1C2A4CFCF93DF93CDB7DEB72A
S11300C08AE990E028E0FC0120838DE990E026E0B5
S11300D0FC01208389E990E027E6FC0120830000ED
S11300E0DF91CF910895CF93DF931F92CDB7DEB701
S11300F0898300008BE990E0FC018081882F90E0E7
S113010080729927892BB1F38CE990E02981FC0155
S1130110208300000F90DF91CF910895CF93DF9358
S1130120CDB7DEB767970FB6F894DEBF0FBECDBF6D
S11301308F8B1A8219828EE7D6DF8FEFD4DF86E0A9
S1130140D2DF8F89D0DF80E0CEDF80E0CCDF8F8903
S1130150893071F080E0C7DF8F89882F90E02BEF22
S11301603EEFA901481B590BCA019A8389830DC02C
S113017082E0B9DF8F89882F90E029EF3EEFA90153
S1130180481B590BCA019A83898389819A81892FD3
S11301909927A9DF8981A7DF8FEEA5DF0000679685
S11301A00FB6F894DEBF0FBECDBFDF91CF91089597
S11301B0CF93DF93CDB7DEB766970FB6F894DEBF63
S11301C00FBECDBF1A8219828EE78DDF8FEF8BDFD2
S11301D086E089DF83E087DF80E085DF80E083DFFE
S11301E081E081DF87EF9EEF9A83898389819A81F9
S11301F0892F992778DF898176DF8FEE74DF0000FD
S113020066960FB6F894DEBF0FBECDBFDF91CF91D7
S11302100895CF93DF93CDB7DEB76C970FB6F894FC
S1130220DEBF0FBECDBF48DF89E078DF80E090E01D
S1130230A8E4B3E489839A83AB83BC8320E030E0F1
S11302404AE755E469817A818B819C814AD1DC013A
S1130250CB018B8B9C8BAD8BBE8B20E030E040E8D8
S11302605FE36B897C898D899E89BAD088232CF4BD
S113027081E090E0988F8F8B3BC020E03FEF4FE709
S113028057E46B897C898D899E8927D118163CF5A2
S113029020E030E040E251E469817A818B819C81E5
S11302A020D1DC01CB01BC01CD019ED0DC01CB010E
S11302B0988F8F8B0FC080E991E09A8F898F898DF9
S11302C09A8D0197F1F79A8F898F8F89988D01976D
S11302D0988F8F8B8F89988D892B69F713C06B89C1
S11302E07C898D899E8980D0DC01CB01988F8F8B8E
S11302F08F89988D9C8F8B8F8B8D9C8D0197F1F7B7
S11303009C8F8B8F55DF80E090E0A8E4B3E48D836D
S11303109E83AF83B88720E030E04AE755E46D81DF
S11303207E818F819885DDD0DC01CB0189879A8716
S1130330AB87BC8720E030E040E85FE369857A85DD
S11303408B859C854DD088232CF481E090E09E879A
S11303508D873BC020E03FEF4FE757E469857A85FE
S11303608B859C85BAD018163CF520E030E040E23D
S113037051E46D817E818F819885B3D0DC01CB01FE
S1130380BC01CD0131D0DC01CB019E878D870FC02C
S113039080E991E0988B8F878F8598890197F1F791
S11303A0988B8F878D859E8501979E878D878D85F8
S11303B09E85892B69F713C069857A858B859C8511
S11303C013D0DC01CB019E878D878D859E859A8B0A
S11303D0898B89899A890197F1F79A8B898BFFCF49
S11303E02FD008F481E0089557D088F09F5790F0FB
S11303F0B92F9927B751A0F0D1F0660F771F881F46
S1130400991F1AF0BA95C9F712C0B13081F05ED0C5
S1130410B1E008955BC0672F782F8827B85F39F063
S1130420B93FCCF3869577956795B395D9F73EF4A4
S113043090958095709561957F4F8F4F9F4F08954C
S1130440990F0008550FAA0BE0E8FEEF16161706E1
S1130450E807F907C0F012161306E407F50798F049
S1130460621B730B840B950B39F40A2661F0232B62
S1130470242B252B21F408950A2609F4A140A695DE
S11304808FEF811D811D089557FD9058440F551F0E
S113049059F05F3F71F04795880F97FB991F61F002
S11304A09F3F79F087950895121613061406551F79
S11304B0F2CF4695F1DF08C0161617061806991FE5
S11304C0F1CF86957105610508940895E894BB27DA
S11304D066277727CB0197F90895B2DF08F48FEFE9
S11304E008950BD078C069D028F06ED018F0952309
S11304F009F05AC05FC01124EACFC6DFA0F3959F6C
S1130500D1F3950F50E0551F629FF001729FBB27F6
S1130510F00DB11D639FAA27F00DB11DAA1F649FA2
S11305206627B00DA11D661F829F2227B00DA11D55
S1130530621F739FB00DA11D621F839FA00D611DDB
S1130540221F749F3327A00D611D231F849F600DFC
S1130550211D822F762F6A2F11249F5750408AF035
S1130560E1F088234AF0EE0FFF1FBB1F661F771FC1
S1130570881F91505040A9F79E3F510570F014C058
S1130580A6CF5F3FECF3983EDCF3869577956795AD
S1130590B795F795E7959F5FC1F7FE2B880F911DDF
S11305A09695879597F9089597F99F6780E870E085
S11305B060E008959FEF80EC089500240A941616D5
S11305C0170618060906089500240A94121613063D
S11305D0140605060895092E0394000C11F48823CB
S11305E052F0BB0F40F4BF2B11F460FF04C06F5FE7
S10F05F07F4F8F4F9F4F0895F894FFCF6A
S9030000FC
