:1000000061C000007EC000007CC000007AC000001B
:1000100078C00000DCC300000C94C2080C94A30D4F
:100020000C94C10F6EC000006CC000006AC00000DC
:100030000C949D1466C0000064C0000062C0000003
:1000400060C000005EC000005CC000005AC000003C
:1000500058C0000056C0000054C0000052C000004C
:1000600050C000004EC000004CC000004AC000005C
:1000700048C0000046C0000044C0000042C000006C
:1000800040C000003EC000003CC0000000660066AA
:100090000066006600F0444400F04444006C408C6C
:1000A000006C408C00C6804C00C6804C004E808C9A
:1000B00000E4404C002E40C400E8C088008EC044DC
:1000C00000E280C811241FBECFEFD0E1DEBFCDBF5C
:1000D00011E0A0E0B1E0E4EDF0E400E00BBF02C00D
:1000E00007900D92A030B107D9F726E0A0E0B1E06B
:1000F00001C01D92AF31B207E1F70E94531E0C946C
:1001000068207ECFCF93DF93CDB7DEB780E790E056
:1001100024EAFC0124830000DF91CF910895CF935E
:10012000DF93CDB7DEB780E790E024E9FC012483BC
:100130000000DF91CF910895CF93DF93CDB7DEB765
:10014000000080E790E0FC0184818823D4F7000060
:10015000DF91CF910895CF93DF93CDB7DEB780E7DE
:1001600090E0FC018181887FDF91CF910895CF934A
:10017000DF931F92CDB7DEB7898380E790E02981B6
:10018000FC01238380E790E024E8FC012483000045
:100190000F90DF91CF910895CF93DF93CDB7DEB766
:1001A000B1DFCADFD8DF883019F08FEF9FEF02C0D0
:1001B00080E090E0DF91CF910895CF93DF93CDB7AA
:1001C000DEB7ADDF0000DF91CF910895CF93DF93CD
:1001D00000D0CDB7DEB78A838A81882F90E0817006
:1001E0009927892B11F080E401C088E189838A81F5
:1001F000BEDFA2DFB0DF982F8981981719F08FEF4B
:100200009FEF02C080E090E00F900F90DF91CF91C0
:100210000895CF93DF931F92CDB7DEB7898389818D
:10022000A6DF8ADF98DF883219F08FEF9FEF02C0D8
:1002300080E090E00F90DF91CF910895CF93DF930E
:10024000CDB7DEB728970FB6F894DEBF0FBECDBF8F
:100250008B836C835E834D8338872F839DDF892B4F
:1002600019F08FEF9FEF30C08B81880FAFDF892BA4
:1002700019F08FEF9FEF28C08C81CBDF892B19F00D
:100280008FEF9FEF21C01A82198214C08D819E8149
:100290009C012F5F3F4F3E832D83FC018081B9DF9E
:1002A000892B19F08FEF9FEF0FC089819A810196FA
:1002B0009A83898329813A818F8198852817390704
:1002C0002CF37BDF80E090E028960FB6F894DEBF39
:1002D0000FBECDBFDF91CF910895CF93DF93CDB700
:1002E000DEB780E790E025E0FC01208380E790E026
:1002F000FC0111820000DF91CF910895CF93DF932D
:10030000CDB7DEB78AE290E028E1FC01208385E9E1
:1003100090E026E0FC01208389E290E027E6FC01E2
:1003200020830000DF91CF910895CF93DF9300D019
:100330001F92CDB7DEB79A8389836B838B81282F79
:1003400030E089819A81AC0160E08CE377DF0000C6
:100350000F900F900F90DF91CF910895CF93DF937F
:1003600000D000D0CDB7DEB79A8389837C836B83BE
:100370002B813C8189819A81AC0160E48CE35EDF52
:1003800000000F900F900F900F90DF91CF91089584
:10039000CF93DF93CDB7DEB70000DF91CF91089503
:1003A000CF93DF9300D000D0CDB7DEB79C838B8393
:1003B0008DE889838B819C81892B11F084E101C0B8
:1003C00080E18A8362E0CE010196AFDF00000F90EA
:1003D0000F900F900F90DF91CF910895CF93DF93FF
:1003E00000D01F92CDB7DEB79B838A838A81846A4F
:1003F000898361E0CE01019698DF00000F900F9095
:100400000F90DF91CF910895CF93DF9300D01F928B
:10041000CDB7DEB79B838A838A818E6A898361E048
:10042000CE01019682DF00000F900F900F90DF91B8
:10043000CF910895CF93DF9300D01F92CDB7DEB751
:100440008B8380E289838B818A8362E0CE0101966F
:100450006CDF00000F900F900F90DF91CF91089507
:10046000CF93DF9300D0CDB7DEB78A838A81806BCC
:10047000898361E0CE01019658DF00000F900F9054
:10048000DF91CF910895CF93DF9300D0CDB7DEB742
:100490008A838A818F70898361E0CE01019645DF6E
:1004A0008A8182958F708061898361E0CE01019697
:1004B0003CDF00000F900F90DF91CF910895CF9314
:1004C000DF9300D01F92CDB7DEB79B838A838A81EA
:1004D000806A898361E0CE01019627DF00000F90DA
:1004E0000F900F90DF91CF910895CF93DF9300D0BD
:1004F0001F92CDB7DEB79B838A838A81866A898300
:1005000061E0CE01019611DF00000F900F900F9077
:10051000DF91CF910895CF93DF9300D01F92CDB795
:10052000DEB79B838A838A81886C898361E0CE01F0
:100530000196FBDE00000F900F900F90DF91CF919E
:100540000895CF93DF93CDB7DEB72E970FB6F8940B
:10055000DEBF0FBECDBF80E090E0A0E8BFE389839F
:100560009A83AB83BC8320E030E04AE755E469819D
:100570007A818B819C810E94DD1FDC01CB018D8300
:100580009E83AF83B88720E030E040E85FE36D8171
:100590007E818F8198850E945C1F88232CF481E0E6
:1005A00090E09A8789873FC020E03FEF4FE757E40C
:1005B0006D817E818F8198850E94D91F18164CF518
:1005C00020E030E040E251E469817A818B819C81B6
:1005D0000E94DD1FDC01CB01BC01CD010E94601F28
:1005E000DC01CB019A8789870FC080E991E09C8765
:1005F0008B878B859C850197F1F79C878B878985F5
:100600009A8501979A87898789859A85892B69F7C1
:1006100014C06D817E818F8198850E94601FDC01EE
:10062000CB019A87898789859A859E878D878D8555
:100630009E850197F1F79E878D87AADE81E090E085
:10064000AFDE80E090E0CADE81E090E0DDDE000019
:100650002E960FB6F894DEBF0FBECDBFDF91CF91BF
:100660000895CF93DF93CDB7DEB737DE6ADF82E040
:10067000E1DE0E94A71680E090E04DDF81E090E08F
:100680001EDF80E090E031DF0000DF91CF91089520
:10069000CF93DF93CDB7DEB780918B05882F90E0A5
:1006A000880F991F880F991F80509F4FFC01208150
:1006B00031814281538180918E0590918F05A09167
:1006C0009005B091910582239323A423B52361E083
:1006D000892B8A2B8B2B09F460E080918B05882F66
:1006E00090E00196880F991F880F991F80509F4FA7
:1006F000FC0120813181428153818091920590914A
:100700009305A0919405B091950582239323A4238A
:10071000B52321E0892B8A2B8B2B09F420E0862F2F
:10072000822B682F70E080918B05882F90E00296D5
:10073000880F991F880F991F80509F4FFC012081BF
:100740003181428153818091960590919705A091C6
:100750009805B091990582239323A423B52321E022
:10076000892B8A2B8B2B09F420E0822F90E0682BB9
:10077000792B80918B05882F90E00396880F991F25
:10078000880F991F80509F4FFC0120813181428149
:10079000538180919A0590919B05A0919C05B09101
:1007A0009D0582239323A423B52321E0892B8A2B43
:1007B0008B2B09F420E0822F90E0862B972B892B3E
:1007C00011F081E001C080E0DF91CF9108951F9288
:1007D0000F9200905F000F92112400905B000F9227
:1007E0002F933F934F935F936F937F938F939F9339
:1007F000AF93BF93EF93FF93CF93DF93CDB7DEB764
:100800002697DEBFCDBF1A8219821FC089819A81C7
:10081000880F991F880F991F80509F4FFC0180817E
:100820009181A281B38129813A81220F331F220F46
:10083000331F21563A4FF90180839183A283B383FA
:1008400089819A8101969A83898389819A81809787
:10085000ECF280918C05815080938C051C821B8268
:1008600012C08B819C81880F991F880F991F825716
:100870009A4FFC0110821182128213828B819C811B
:1008800001969C838B838B819C81049754F3809188
:100890008C05833008F0E1C080919E05482F50E020
:1008A00080918D05882F90E02CE830E0440F551F93
:1008B000440F551F840F951F880F991F820F931F98
:1008C000FC01859195913297CC01A0E0B0E088279A
:1008D000907FAA27BB2720918C05222F30E04FE084
:1008E00050E0BA01621B730B9B0104C0B695A7953B
:1008F000979587952A95D2F780938E0590938F05CB
:10090000A0939005B093910580919E05482F50E0EB
:1009100080918D05882F90E02CE830E0440F551F22
:10092000440F551F840F951F880F991F820F931F27
:10093000FC01859195913297CC01A0E0B0E0882729
:100940009F70AA27BB2720918C05222F30E04BE017
:1009500050E0BA01621B730B9B0104C0B695A795CA
:10096000979587952A95D2F780938E0590938F055A
:10097000A0939005B093910580919E05482F50E07B
:1009800080918D05882F90E02CE830E0440F551FB2
:10099000440F551F840F951F880F991F820F931FB7
:1009A000FC01859195913297CC01A0E0B0E0807F69
:1009B0009927AA27BB2720918C05222F30E047E0FA
:1009C00050E0BA01621B730B9B0104C0B695A7955A
:1009D000979587952A95D2F780938E0590938F05EA
:1009E000A0939005B093910580919E05482F50E00B
:1009F00080918D05882F90E02CE830E0440F551F42
:100A0000440F551F840F951F880F991F820F931F46
:100A1000FC01859195913297CC01A0E0B0E08F70F8
:100A20009927AA27BB2720918C05222F30E043E08D
:100A300050E0BA01621B730B9B0104C0B695A795E9
:100A4000979587952A95D2F780938E0590938F0579
:100A5000A0939005B0939105DCC080919E05482F2E
:100A600050E080918D05882F90E02CE830E0440F15
:100A7000551F440F551F840F951F880F991F820F14
:100A8000931FFC01859195913297892F9927829523
:100A90008F70CC01A0E0B0E020918C05222F30E0D7
:100AA0002350310904C0880F991FAA1FBB1F2A9524
:100AB000D2F780938E0590938F05A0939005B09305
:100AC000910580919E05482F50E080918D05882FDB
:100AD00090E02CE830E0440F551F440F551F840F61
:100AE000951F880F991F820F931FFC018591959187
:100AF0003297CC01A0E0B0E088279F70AA27BB27DF
:100B0000892F9A2FAB2FBB2720918C05222F30E005
:100B10002350310904C0880F991FAA1FBB1F2A95B3
:100B2000D2F78093920590939305A0939405B09388
:100B3000950580919E05482F50E080918D05882F66
:100B400090E02CE830E0440F551F440F551F840FF0
:100B5000951F880F991F820F931FFC018591959116
:100B60003297CC01A0E0B0E0807F9927AA27BB276D
:100B7000689413F8B695A795979587951694D1F72D
:100B800020918C05222F30E02350310904C0880FBA
:100B9000991FAA1FBB1F2A95D2F7809396059093A1
:100BA0009705A0939805B093990580919E05482FCD
:100BB00050E080918D05882F90E02CE830E0440FC4
:100BC000551F440F551F840F951F880F991F820FC3
:100BD000931FFC01859195913297CC01A0E0B0E084
:100BE0008F709927AA27BB2720918C05222F30E0F0
:100BF0002350310904C0880F991FAA1FBB1F2A95D3
:100C0000D2F780939A0590939B05A0939C05B0938F
:100C10009D053EDD813029F480918C058F5F8093A6
:100C20008C051E821D8212C08D819E81880F991FA6
:100C3000880F991F82579A4FFC01108211821282ED
:100C400013828D819E8101969E838D838D819E81ED
:100C5000049754F380918C05833008F0E1C08091B3
:100C60009E05482F50E080918D05882F90E02CE85C
:100C700030E0440F551F440F551F840F951F880FF8
:100C8000991F820F931FFC01859195913297CC019A
:100C9000A0E0B0E08827907FAA27BB2720918C0591
:100CA000222F30E04FE050E0BA01621B730B9B0132
:100CB00004C0B695A795979587952A95D2F7809306
:100CC0008E0590938F05A0939005B0939105809128
:100CD0009E05482F50E080918D05882F90E02CE8EC
:100CE00030E0440F551F440F551F840F951F880F88
:100CF000991F820F931FFC01859195913297CC012A
:100D0000A0E0B0E088279F70AA27BB2720918C0520
:100D1000222F30E04BE050E0BA01621B730B9B01C5
:100D200004C0B695A795979587952A95D2F7809395
:100D30008E0590938F05A0939005B09391058091B7
:100D40009E05482F50E080918D05882F90E02CE87B
:100D500030E0440F551F440F551F840F951F880F17
:100D6000991F820F931FFC01859195913297CC01B9
:100D7000A0E0B0E0807F9927AA27BB2720918C05AF
:100D8000222F30E047E050E0BA01621B730B9B0159
:100D900004C0B695A795979587952A95D2F7809325
:100DA0008E0590938F05A0939005B0939105809147
:100DB0009E05482F50E080918D05882F90E02CE80B
:100DC00030E0440F551F440F551F840F951F880FA7
:100DD000991F820F931FFC01859195913297CC0149
:100DE000A0E0B0E08F709927AA27BB2720918C053F
:100DF000222F30E043E050E0BA01621B730B9B01ED
:100E000004C0B695A795979587952A95D2F78093B4
:100E10008E0590938F05A0939005B0939105DCC04B
:100E200080919E05482F50E080918D05882F90E09D
:100E30002CE830E0440F551F440F551F840F951FB9
:100E4000880F991F820F931FFC018591959132970E
:100E5000892F992782958F70CC01A0E0B0E0209176
:100E60008C05222F30E02350310904C0880F991FD0
:100E7000AA1FBB1F2A95D2F780938E0590938F05EA
:100E8000A0939005B093910580919E05482F50E066
:100E900080918D05882F90E02CE830E0440F551F9D
:100EA000440F551F840F951F880F991F820F931FA2
:100EB000FC01859195913297CC01A0E0B0E08827A4
:100EC0009F70AA27BB27892F9A2FAB2FBB27209172
:100ED0008C05222F30E02350310904C0880F991F60
:100EE000AA1FBB1F2A95D2F7809392059093930572
:100EF000A0939405B093950580919E05482F50E0EE
:100F000080918D05882F90E02CE830E0440F551F2C
:100F1000440F551F840F951F880F991F820F931F31
:100F2000FC01859195913297CC01A0E0B0E0807FE3
:100F30009927AA27BB27689413F8B695A795979584
:100F400087951694D1F720918C05222F30E02350FD
:100F5000310904C0880F991FAA1FBB1F2A95D2F719
:100F60008093960590939705A0939805B093990563
:100F700080919E05482F50E080918D05882F90E04C
:100F80002CE830E0440F551F440F551F840F951F68
:100F9000880F991F820F931FFC01859195913297BD
:100FA000CC01A0E0B0E08F709927AA27BB27209141
:100FB0008C05222F30E02350310904C0880F991F7F
:100FC000AA1FBB1F2A95D2F780939A0590939B0581
:100FD000A0939C05B0939D0580918B05682F70E0D0
:100FE00080918B05882F90E0880F991F880F991F9B
:100FF00081569A4FFC012081318142815381809139
:101000008E0590918F05A0919005B0919105822B4E
:10101000932BA42BB52B9B01220F331F220F331FC1
:1010200021563A4FF90180839183A283B383809143
:101030008B05882F90E0BC016F5F7F4F80918B05FF
:10104000882F90E00196880F991F880F991F81566D
:101050009A4FFC0120813181428153818091920518
:1010600090919305A0919405B0919505822B932BB7
:10107000A42BB52B9B01220F331F220F331F2156A8
:101080003A4FF90180839183A283B38380918B05CA
:10109000882F90E0BC016E5F7F4F80918B05882F79
:1010A00090E00296880F991F880F991F81569A4FDA
:1010B000FC0120813181428153818091960590917C
:1010C0009705A0919805B0919905822B932BA42B9D
:1010D000B52B9B01220F331F220F331F21563A4F8E
:1010E000F90180839183A283B38380918B05882F3C
:1010F00090E0BC016D5F7F4F80918B05882F90E061
:101100000396880F991F880F991F81569A4FFC01EB
:10111000208131814281538180919A0590919B0574
:10112000A0919C05B0919D05822B932BA42BB52BF0
:101130009B01220F331F220F331F21563A4FF90113
:1011400080839183A283B383000026960FB6F89420
:10115000DEBF0FBECDBFDF91CF91FF91EF91BF9169
:10116000AF919F918F917F916F915F914F913F913F
:101170002F910F9000925B000F9000925F000F90F4
:101180001F9018951F920F9200905F000F921124EC
:1011900000905B000F922F933F934F935F936F9359
:1011A0007F938F939F93AF93BF93EF93FF93CF93CF
:1011B000DF93CDB7DEB72697DEBFCDBF1A82198287
:1011C0001FC089819A81880F991F880F991F8050AD
:1011D0009F4FFC0180819181A281B38129813A8155
:1011E000220F331F220F331F21563A4FF9018083FC
:1011F0009183A283B38389819A8101969A8389839B
:1012000089819A818097ECF280918D058F5F809320
:101210008D0580918D05843011F410928D051C820E
:101220001B8212C08B819C81880F991F880F991F88
:1012300082579A4FFC0110821182128213828B8195
:101240009C8101969C838B838B819C81049754F3B2
:1012500080918C05833008F0E1C080919E05482F75
:1012600050E080918D05882F90E02CE830E0440F0D
:10127000551F440F551F840F951F880F991F820F0C
:10128000931FFC01859195913297CC01A0E0B0E0CD
:101290008827907FAA27BB2720918C05222F30E03A
:1012A0004FE050E0BA01621B730B9B0104C0B6957E
:1012B000A795979587952A95D2F780938E05909359
:1012C0008F05A0939005B093910580919E05482FBE
:1012D00050E080918D05882F90E02CE830E0440F9D
:1012E000551F440F551F840F951F880F991F820F9C
:1012F000931FFC01859195913297CC01A0E0B0E05D
:1013000088279F70AA27BB2720918C05222F30E0C9
:101310004BE050E0BA01621B730B9B0104C0B69511
:10132000A795979587952A95D2F780938E059093E8
:101330008F05A0939005B093910580919E05482F4D
:1013400050E080918D05882F90E02CE830E0440F2C
:10135000551F440F551F840F951F880F991F820F2B
:10136000931FFC01859195913297CC01A0E0B0E0EC
:10137000807F9927AA27BB2720918C05222F30E058
:1013800047E050E0BA01621B730B9B0104C0B695A5
:10139000A795979587952A95D2F780938E05909378
:1013A0008F05A0939005B093910580919E05482FDD
:1013B00050E080918D05882F90E02CE830E0440FBC
:1013C000551F440F551F840F951F880F991F820FBB
:1013D000931FFC01859195913297CC01A0E0B0E07C
:1013E0008F709927AA27BB2720918C05222F30E0E8
:1013F00043E050E0BA01621B730B9B0104C0B69539
:10140000A795979587952A95D2F780938E05909307
:101410008F05A0939005B0939105DCC080919E0547
:10142000482F50E080918D05882F90E02CE830E027
:10143000440F551F440F551F840F951F880F991F88
:10144000820F931FFC01859195913297892F9927DF
:1014500082958F70CC01A0E0B0E020918C05222F06
:1014600030E02350310904C0880F991FAA1FBB1F09
:101470002A95D2F780938E0590938F05A0939005BF
:10148000B093910580919E05482F50E080918D0585
:10149000882F90E02CE830E0440F551F440F551F73
:1014A000840F951F880F991F820F931FFC01859150
:1014B00095913297CC01A0E0B0E088279F70AA27D1
:1014C000BB27892F9A2FAB2FBB2720918C05222F6A
:1014D00030E02350310904C0880F991FAA1FBB1F99
:1014E0002A95D2F78093920590939305A093940543
:1014F000B093950580919E05482F50E080918D0511
:10150000882F90E02CE830E0440F551F440F551F02
:10151000840F951F880F991F820F931FFC018591DF
:1015200095913297CC01A0E0B0E0807F9927AA275F
:10153000BB27689413F8B695A79597958795169449
:10154000D1F720918C05222F30E02350310904C0BF
:10155000880F991FAA1FBB1F2A95D2F78093960563
:1015600090939705A0939805B093990580919E0557
:10157000482F50E080918D05882F90E02CE830E0D6
:10158000440F551F440F551F840F951F880F991F37
:10159000820F931FFC01859195913297CC01A0E0B9
:1015A000B0E08F709927AA27BB2720918C05222FA6
:1015B00030E02350310904C0880F991FAA1FBB1FB8
:1015C0002A95D2F780939A0590939B05A0939C054A
:1015D000B0939D055DD8813029F480918D058150AF
:1015E00080938D051E821D8212C08D819E81880F81
:1015F000991F880F991F82579A4FFC011082118200
:10160000128213828D819E8101969E838D838D81AE
:101610009E81049754F380918C05833008F0E1C0DB
:1016200080919E05482F50E080918D05882F90E095
:101630002CE830E0440F551F440F551F840F951FB1
:10164000880F991F820F931FFC0185919591329706
:10165000CC01A0E0B0E08827907FAA27BB2720918B
:101660008C05222F30E04FE050E0BA01621B730B73
:101670009B0104C0B695A795979587952A95D2F7B3
:1016800080938E0590938F05A0939005B09391055C
:1016900080919E05482F50E080918D05882F90E025
:1016A0002CE830E0440F551F440F551F840F951F41
:1016B000880F991F820F931FFC0185919591329796
:1016C000CC01A0E0B0E088279F70AA27BB2720911B
:1016D0008C05222F30E04BE050E0BA01621B730B07
:1016E0009B0104C0B695A795979587952A95D2F743
:1016F00080938E0590938F05A0939005B0939105EC
:1017000080919E05482F50E080918D05882F90E0B4
:101710002CE830E0440F551F440F551F840F951FD0
:10172000880F991F820F931FFC0185919591329725
:10173000CC01A0E0B0E0807F9927AA27BB272091A9
:101740008C05222F30E047E050E0BA01621B730B9A
:101750009B0104C0B695A795979587952A95D2F7D2
:1017600080938E0590938F05A0939005B09391057B
:1017700080919E05482F50E080918D05882F90E044
:101780002CE830E0440F551F440F551F840F951F60
:10179000880F991F820F931FFC01859195913297B5
:1017A000CC01A0E0B0E08F709927AA27BB27209139
:1017B0008C05222F30E043E050E0BA01621B730B2E
:1017C0009B0104C0B695A795979587952A95D2F762
:1017D00080938E0590938F05A0939005B09391050B
:1017E000DCC080919E05482F50E080918D05882FA8
:1017F00090E02CE830E0440F551F440F551F840F34
:10180000951F880F991F820F931FFC018591959159
:101810003297892F992782958F70CC01A0E0B0E094
:1018200020918C05222F30E02350310904C0880F0D
:10183000991FAA1FBB1F2A95D2F780938E059093FC
:101840008F05A0939005B093910580919E05482F38
:1018500050E080918D05882F90E02CE830E0440F17
:10186000551F440F551F840F951F880F991F820F16
:10187000931FFC01859195913297CC01A0E0B0E0D7
:1018800088279F70AA27BB27892F9A2FAB2FBB27AA
:1018900020918C05222F30E02350310904C0880F9D
:1018A000991FAA1FBB1F2A95D2F780939205909388
:1018B0009305A0939405B093950580919E05482FBC
:1018C00050E080918D05882F90E02CE830E0440FA7
:1018D000551F440F551F840F951F880F991F820FA6
:1018E000931FFC01859195913297CC01A0E0B0E067
:1018F000807F9927AA27BB27689413F8B695A795E8
:10190000979587951694D1F720918C05222F30E07A
:101910002350310904C0880F991FAA1FBB1F2A95A5
:10192000D2F78093960590939705A0939805B0936E
:10193000990580919E05482F50E080918D05882F54
:1019400090E02CE830E0440F551F440F551F840FE2
:10195000951F880F991F820F931FFC018591959108
:101960003297CC01A0E0B0E08F709927AA27BB275F
:1019700020918C05222F30E02350310904C0880FBC
:10198000991FAA1FBB1F2A95D2F780939A0590939F
:101990009B05A0939C05B0939D0580918B05682FB6
:1019A00070E080918B05882F90E0880F991F880F39
:1019B000991F81569A4FFC012081318142815381C8
:1019C00080918E0590918F05A0919005B091910521
:1019D000822B932BA42BB52B9B01220F331F220F9D
:1019E000331F21563A4FF90180839183A283B38339
:1019F00080918B05882F90E0BC016F5F7F4F8091B5
:101A00008B05882F90E00196880F991F880F991FEA
:101A100081569A4FFC01208131814281538180910E
:101A2000920590919305A0919405B0919505822B14
:101A3000932BA42BB52B9B01220F331F220F331F97
:101A400021563A4FF90180839183A283B383809119
:101A50008B05882F90E0BC016E5F7F4F80918B05D6
:101A6000882F90E00296880F991F880F991F815642
:101A70009A4FFC01208131814281538180919605EA
:101A800090919705A0919805B0919905822B932B81
:101A9000A42BB52B9B01220F331F220F331F21567E
:101AA0003A4FF90180839183A283B38380918B05A0
:101AB000882F90E0BC016D5F7F4F80918B05882F50
:101AC00090E00396880F991F880F991F81569A4FAF
:101AD000FC01208131814281538180919A0590914E
:101AE0009B05A0919C05B0919D05822B932BA42B67
:101AF000B52B9B01220F331F220F331F21563A4F64
:101B0000F90180839183A283B383000026960FB6E8
:101B1000F894DEBF0FBECDBFDF91CF91FF91EF9163
:101B2000BF91AF919F918F917F916F915F914F91F5
:101B30003F912F910F9000925B000F9000925F00F9
:101B40000F901F9018951F920F9200905F000F92B8
:101B5000112400905B000F922F933F934F935F935C
:101B60006F937F938F939F93AF93BF93EF93FF9365
:101B7000CF93DF9300D0CDB7DEB71A82198212C09F
:101B800089819A81880F991F880F991F82579A4FD0
:101B9000FC01108211821282138289819A8101963E
:101BA0009A83898389819A81049754F380918C0563
:101BB000833008F0E1C080919E05482F50E080916D
:101BC0008D05882F90E02CE830E0440F551F440F1E
:101BD000551F840F951F880F991F820F931FFC01BB
:101BE000859195913297CC01A0E0B0E08827907F55
:101BF000AA27BB2720918C05222F30E04FE050E030
:101C0000BA01621B730B9B0104C0B695A79597950B
:101C100087952A95D2F780938E0590938F05A09390
:101C20009005B093910580919E05482F50E08091DA
:101C30008D05882F90E02CE830E0440F551F440FAD
:101C4000551F840F951F880F991F820F931FFC014A
:101C5000859195913297CC01A0E0B0E088279F70E4
:101C6000AA27BB2720918C05222F30E04BE050E0C3
:101C7000BA01621B730B9B0104C0B695A79597959B
:101C800087952A95D2F780938E0590938F05A09320
:101C90009005B093910580919E05482F50E080916A
:101CA0008D05882F90E02CE830E0440F551F440F3D
:101CB000551F840F951F880F991F820F931FFC01DA
:101CC000859195913297CC01A0E0B0E0807F992773
:101CD000AA27BB2720918C05222F30E047E050E057
:101CE000BA01621B730B9B0104C0B695A79597952B
:101CF00087952A95D2F780938E0590938F05A093B0
:101D00009005B093910580919E05482F50E08091F9
:101D10008D05882F90E02CE830E0440F551F440FCC
:101D2000551F840F951F880F991F820F931FFC0169
:101D3000859195913297CC01A0E0B0E08F70992702
:101D4000AA27BB2720918C05222F30E043E050E0EA
:101D5000BA01621B730B9B0104C0B695A7959795BA
:101D600087952A95D2F780938E0590938F05A0933F
:101D70009005B0939105E2C080919E05482F50E0F8
:101D800080918D05882F90E02CE830E0440F551F9E
:101D9000440F551F840F951F880F991F820F931FA3
:101DA000FC01859195913297892F992782958F70A3
:101DB000CC01A0E0B0E020918C05222F30E0235030
:101DC000310904C0880F991FAA1FBB1F2A95D2F79B
:101DD00080938E0590938F05A0939005B093910505
:101DE00080919E05482F50E080918D05882F90E0CE
:101DF0002CE830E0440F551F440F551F840F951FEA
:101E0000880F991F820F931FFC018591959132973E
:101E1000CC01A0E0B0E088279F70AA27BB27892FBC
:101E20009A2FAB2FBB2720918C05222F30E0235017
:101E3000310904C0880F991FAA1FBB1F2A95D2F72A
:101E40008093920590939305A0939405B093950584
:101E500080919E05482F50E080918D05882F90E05D
:101E60002CE830E0440F551F440F551F840F951F79
:101E7000880F991F820F931FFC01859195913297CE
:101E8000CC01A0E0B0E0807F9927AA27BB27689407
:101E900013F8B695A795979587951694D1F7209145
:101EA0008C05222F30E02350310904C0880F991F80
:101EB000AA1FBB1F2A95D2F780939605909397058A
:101EC000A0939805B093990580919E05482F50E006
:101ED00080918D05882F90E02CE830E0440F551F4D
:101EE000440F551F840F951F880F991F820F931F52
:101EF000FC01859195913297CC01A0E0B0E08F7004
:101F00009927AA27BB2720918C05222F30E0235048
:101F1000310904C0880F991FAA1FBB1F2A95D2F749
:101F200080939A0590939B05A0939C05B0939D0583
:101F300005C080918B058F5F80938B050E944803BD
:101F40008823B9F380918B05815080938B05000025
:101F50000F900F90DF91CF91FF91EF91BF91AF91D3
:101F60009F918F917F916F915F914F913F912F91B1
:101F70000F9000925B000F9000925F000F901F90F7
:101F800018951F920F9200905F000F9211240090FD
:101F90005B000F922F933F934F935F936F937F93C9
:101FA0008F939F93AF93BF93EF93FF93CF93DF9361
:101FB000CDB7DEB72697DEBFCDBF1A8219821FC00C
:101FC00089819A81880F991F880F991F80509F4F90
:101FD000FC0180819181A281B38129813A81220F04
:101FE000331F220F331F21563A4FF901808391830B
:101FF000A283B38389819A8101969A838983898197
:102000009A818097ECF280918C058F5F80938C058C
:102010001C821B8212C08B819C81880F991F880FA4
:10202000991F82579A4FFC011082118212821382EB
:102030008B819C8101969C838B838B819C810497EF
:1020400054F380918C05833008F0E1C080919E05A7
:10205000482F50E080918D05882F90E02CE830E0EB
:10206000440F551F440F551F840F951F880F991F4C
:10207000820F931FFC01859195913297CC01A0E0CE
:10208000B0E08827907FAA27BB2720918C05222FBC
:1020900030E04FE050E0BA01621B730B9B0104C0BB
:1020A000B695A795979587952A95D2F780938E0533
:1020B00090938F05A0939005B093910580919E0514
:1020C000482F50E080918D05882F90E02CE830E07B
:1020D000440F551F440F551F840F951F880F991FDC
:1020E000820F931FFC01859195913297CC01A0E05E
:1020F000B0E088279F70AA27BB2720918C05222F4C
:1021000030E04BE050E0BA01621B730B9B0104C04E
:10211000B695A795979587952A95D2F780938E05C2
:1021200090938F05A0939005B093910580919E05A3
:10213000482F50E080918D05882F90E02CE830E00A
:10214000440F551F440F551F840F951F880F991F6B
:10215000820F931FFC01859195913297CC01A0E0ED
:10216000B0E0807F9927AA27BB2720918C05222FDA
:1021700030E047E050E0BA01621B730B9B0104C0E2
:10218000B695A795979587952A95D2F780938E0552
:1021900090938F05A0939005B093910580919E0533
:1021A000482F50E080918D05882F90E02CE830E09A
:1021B000440F551F440F551F840F951F880F991FFB
:1021C000820F931FFC01859195913297CC01A0E07D
:1021D000B0E08F709927AA27BB2720918C05222F6A
:1021E00030E043E050E0BA01621B730B9B0104C076
:1021F000B695A795979587952A95D2F780938E05E2
:1022000090938F05A0939005B0939105DCC08091C9
:102210009E05482F50E080918D05882F90E02CE896
:1022200030E0440F551F440F551F840F951F880F32
:10223000991F820F931FFC01859195913297892FE9
:10224000992782958F70CC01A0E0B0E020918C0599
:10225000222F30E02350310904C0880F991FAA1F94
:10226000BB1F2A95D2F780938E0590938F05A0937C
:102270009005B093910580919E05482F50E0809184
:102280008D05882F90E02CE830E0440F551F440F57
:10229000551F840F951F880F991F820F931FFC01F4
:1022A000859195913297CC01A0E0B0E088279F708E
:1022B000AA27BB27892F9A2FAB2FBB2720918C05EC
:1022C000222F30E02350310904C0880F991FAA1F24
:1022D000BB1F2A95D2F78093920590939305A09304
:1022E0009405B093950580919E05482F50E080910C
:1022F0008D05882F90E02CE830E0440F551F440FE7
:10230000551F840F951F880F991F820F931FFC0183
:10231000859195913297CC01A0E0B0E0807F99271C
:10232000AA27BB27689413F8B695A7959795879524
:102330001694D1F720918C05222F30E023503109DB
:1023400004C0880F991FAA1FBB1F2A95D2F780933C
:10235000960590939705A0939805B0939905809161
:102360009E05482F50E080918D05882F90E02CE845
:1023700030E0440F551F440F551F840F951F880FE1
:10238000991F820F931FFC01859195913297CC0183
:10239000A0E0B0E08F709927AA27BB2720918C0579
:1023A000222F30E02350310904C0880F991FAA1F43
:1023B000BB1F2A95D2F780939A0590939B05A09313
:1023C0009C05B0939D050E944803813029F48091BB
:1023D0008C05815080938C051E821D8212C08D81D8
:1023E0009E81880F991F880F991F82579A4FFC0171
:1023F00010821182128213828D819E8101969E83AA
:102400008D838D819E81049754F380918C05833058
:1024100008F0E1C080919E05482F50E080918D0525
:10242000882F90E02CE830E0440F551F440F551FD3
:10243000840F951F880F991F820F931FFC018591B0
:1024400095913297CC01A0E0B0E08827907FAA2731
:10245000BB2720918C05222F30E04FE050E0BA01DD
:10246000621B730B9B0104C0B695A7959795879542
:102470002A95D2F780938E0590938F05A0939005AF
:10248000B093910580919E05482F50E080918D0575
:10249000882F90E02CE830E0440F551F440F551F63
:1024A000840F951F880F991F820F931FFC01859140
:1024B00095913297CC01A0E0B0E088279F70AA27C1
:1024C000BB2720918C05222F30E04BE050E0BA0171
:1024D000621B730B9B0104C0B695A79597958795D2
:1024E0002A95D2F780938E0590938F05A09390053F
:1024F000B093910580919E05482F50E080918D0505
:10250000882F90E02CE830E0440F551F440F551FF2
:10251000840F951F880F991F820F931FFC018591CF
:1025200095913297CC01A0E0B0E0807F9927AA274F
:10253000BB2720918C05222F30E047E050E0BA0104
:10254000621B730B9B0104C0B695A7959795879561
:102550002A95D2F780938E0590938F05A0939005CE
:10256000B093910580919E05482F50E080918D0594
:10257000882F90E02CE830E0440F551F440F551F82
:10258000840F951F880F991F820F931FFC0185915F
:1025900095913297CC01A0E0B0E08F709927AA27DF
:1025A000BB2720918C05222F30E043E050E0BA0198
:1025B000621B730B9B0104C0B695A79597958795F1
:1025C0002A95D2F780938E0590938F05A09390055E
:1025D000B0939105DCC080919E05482F50E080911A
:1025E0008D05882F90E02CE830E0440F551F440FF4
:1025F000551F840F951F880F991F820F931FFC0191
:10260000859195913297892F992782958F70CC016A
:10261000A0E0B0E020918C05222F30E0235031095A
:1026200004C0880F991FAA1FBB1F2A95D2F7809359
:102630008E0590938F05A0939005B093910580919E
:102640009E05482F50E080918D05882F90E02CE862
:1026500030E0440F551F440F551F840F951F880FFE
:10266000991F820F931FFC01859195913297CC01A0
:10267000A0E0B0E088279F70AA27BB27892F9A2F58
:10268000AB2FBB2720918C05222F30E0235031093E
:1026900004C0880F991FAA1FBB1F2A95D2F78093E9
:1026A000920590939305A0939405B093950580911E
:1026B0009E05482F50E080918D05882F90E02CE8F2
:1026C00030E0440F551F440F551F840F951F880F8E
:1026D000991F820F931FFC01859195913297CC0130
:1026E000A0E0B0E0807F9927AA27BB27689413F861
:1026F000B695A795979587951694D1F720918C0557
:10270000222F30E02350310904C0880F991FAA1FDF
:10271000BB1F2A95D2F78093960590939705A093B7
:102720009805B093990580919E05482F50E08091BF
:102730008D05882F90E02CE830E0440F551F440FA2
:10274000551F840F951F880F991F820F931FFC013F
:10275000859195913297CC01A0E0B0E08F709927D8
:10276000AA27BB2720918C05222F30E02350310966
:1027700004C0880F991FAA1FBB1F2A95D2F7809308
:102780009A0590939B05A0939C05B0939D0580911D
:102790008B05682F70E080918B05882F90E0880F63
:1027A000991F880F991F81569A4FFC012081318112
:1027B0004281538180918E0590918F05A091900563
:1027C000B0919105822B932BA42BB52B9B01220F4B
:1027D000331F220F331F21563A4FF9018083918313
:1027E000A283B38380918B05882F90E0BC016F5F3B
:1027F0007F4F80918B05882F90E00196880F991F5D
:10280000880F991F81569A4FFC01208131814281A6
:1028100053818091920590919305A0919405B09178
:102820009505822B932BA42BB52B9B01220F331FD5
:10283000220F331F21563A4FF90180839183A283DF
:10284000B38380918B05882F90E0BC016E5F7F4F32
:1028500080918B05882F90E00296880F991F880F32
:10286000991F81569A4FFC01208131814281538109
:102870008091960590919705A0919805B091990542
:10288000822B932BA42BB52B9B01220F331F220FDE
:10289000331F21563A4FF90180839183A283B3837A
:1028A00080918B05882F90E0BC016D5F7F4F8091F8
:1028B0008B05882F90E00396880F991F880F991F2A
:1028C00081569A4FFC012081318142815381809150
:1028D0009A0590919B05A0919C05B0919D05822B36
:1028E000932BA42BB52B9B01220F331F220F331FD9
:1028F00021563A4FF90180839183A283B38300006C
:1029000026960FB6F894DEBF0FBECDBFDF91CF91F4
:10291000FF91EF91BF91AF919F918F917F916F91B7
:102920005F914F913F912F910F9000925B000F901C
:1029300000925F000F901F9018951F920F920090C9
:102940005F000F92112400905B000F922F933F9332
:102950004F935F936F937F938F939F93AF93BF93A7
:10296000EF93FF93CF93DF9300D000D0CDB7DEB7C6
:1029700080918001882309F0CEC11A8219821FC07C
:1029800089819A81880F991F880F991F80509F4FC6
:10299000FC0180819181A281B38129813A81220F3A
:1029A000331F220F331F21563A4FF9018083918341
:1029B000A283B38389819A8101969A8389838981CD
:1029C0009A818097ECF280918B058F5F80938B05C5
:1029D0000E944803813009F0C0C080918B0581506E
:1029E00080938B0580918B05682F70E080918B051B
:1029F000882F90E0880F991F880F991F80509F4F54
:102A0000FC01208131814281538180918E0590911A
:102A10008F05A0919005B0919105822B932BA42B4B
:102A2000B52B9B01220F331F220F331F20503F4F26
:102A3000F90180839183A283B38380918B05882FD2
:102A400090E0BC016F5F7F4F80918B05882F90E0F5
:102A50000196880F991F880F991F80509F4FFC0186
:102A6000208131814281538180919205909193051B
:102A7000A0919405B0919505822B932BA42BB52B97
:102A80009B01220F331F220F331F20503F4FF901AC
:102A900080839183A283B38380918B05882F90E0FC
:102AA000BC016E5F7F4F80918B05882F90E002966E
:102AB000880F991F880F991F80509F4FFC0120811C
:102AC0003181428153818091960590919705A09123
:102AD0009805B0919905822B932BA42BB52B9B01C4
:102AE000220F331F220F331F20503F4FF9018083E5
:102AF0009183A283B38380918B05882F90E0BC01E2
:102B00006D5F7F4F80918B05882F90E00396880F33
:102B1000991F880F991F80509F4FFC0120813181A0
:102B20004281538180919A0590919B05A0919C05CB
:102B3000B0919D05822B932BA42BB52B9B01220FCB
:102B4000331F220F331F20503F4FF90180839183A1
:102B5000A283B38381E0809380011C821B821FC00B
:102B60008B819C81880F991F880F991F80509F4FE0
:102B7000FC0180819181A281B3812B813C81220F54
:102B8000331F220F331F21563A4FF901808391835F
:102B9000A283B3838B819C8101969C838B838B81E1
:102BA0009C818097ECF280918B05682F70E080917A
:102BB0008B05882F90E0880F991F880F991F8156E9
:102BC0009A4FFC01208131814281538180918E0591
:102BD00090918F05A0919005B0919105822B932B38
:102BE000A42BB52B9B01220F331F220F331F21561D
:102BF0003A4FF90180839183A283B38380918B053F
:102C0000882F90E0BC016F5F7F4F80918B05882FEC
:102C100090E00196880F991F880F991F81569A4F4F
:102C2000FC012081318142815381809192059091F4
:102C30009305A0919405B0919505822B932BA42B1D
:102C4000B52B9B01220F331F220F331F21563A4F02
:102C5000F90180839183A283B38380918B05882FB0
:102C600090E0BC016E5F7F4F80918B05882F90E0D4
:102C70000296880F991F880F991F81569A4FFC0161
:102C800020813181428153818091960590919705F1
:102C9000A0919805B0919905822B932BA42BB52B6D
:102CA0009B01220F331F220F331F21563A4FF90188
:102CB00080839183A283B38380918B05882F90E0DA
:102CC000BC016D5F7F4F80918B05882F90E003964C
:102CD000880F991F880F991F81569A4FFC012081F8
:102CE00031814281538180919A0590919B05A091F9
:102CF0009C05B0919D05822B932BA42BB52B9B019A
:102D0000220F331F220F331F21563A4FF9018083C0
:102D10009183A283B38300000F900F900F900F90C8
:102D2000DF91CF91FF91EF91BF91AF919F918F91E3
:102D30007F916F915F914F913F912F910F900092F2
:102D40005B000F9000925F000F901F901895CF933B
:102D5000DF9300D01F92CDB7DEB71B821A820BC063
:102D60008A819B8185579E4FFC0110828A819B81BD
:102D700001969B838A838A819B818115944084F389
:102D8000198214C089810E9430028981882F90E0C5
:102D90009695982F88279795879585579E4F60E839
:102DA00070E00E94AE0189818F5F898389818830BC
:102DB00048F380E00E94430200000F900F900F90B4
:102DC000DF91CF910895CF93DF93CDB7DEB7C55094
:102DD000D3400FB6F894DEBF0FBECDBF20E033E086
:102DE000CE010696FC01A901119241505040E1F735
:102DF0001A821982F0C11C821B82E3C18B819C81E3
:102E0000880F991F880F991F81569A4FFC01808166
:102E10009181A281B381098004C0B695A795979549
:102E200087950A94D2F781709927AA27BB27892B07
:102E30008A2B8B2B09F4C0C189819A8181709927D3
:102E4000892B09F0DDC089819A8199230CF40196C0
:102E5000959587952B813C81220F331F220F331FBD
:102E60004B815C81440F551F440F551FBC01769563
:102E7000762F662777956795FE0131966E0F7F1F37
:102E8000460F571F4B5F5F4FFA014081642F6F6001
:102E90009695982F882797958795AE014F5F5F4F3E
:102EA000840F951F820F931F0596FC016083898113
:102EB0009A8199230CF40196959587952B813C81F5
:102EC000220F331F220F331F2F5F3F4F4B815C8137
:102ED000440F551F440F551F4F5F5F4FBC01769540
:102EE000762F662777956795FE0131966E0F7F1FC7
:102EF000460F571F4B5F5F4FFA014081642F6F6091
:102F00009695982F882797958795AE014F5F5F4FCD
:102F1000840F951F820F931F0596FC0160838981A2
:102F20009A8199230CF40196959587952B813C8184
:102F3000220F331F220F331F2E5F3F4F4B815C81C7
:102F4000440F551F440F551F4E5F5F4FBC017695D0
:102F5000762F662777956795FE0131966E0F7F1F56
:102F6000460F571F4B5F5F4FFA014081642F6F6020
:102F70009695982F882797958795AE014F5F5F4F5D
:102F8000840F951F820F931F0596FC016083898132
:102F90009A8199230CF40196959587952B813C8114
:102FA000220F331F220F331F2D5F3F4F4B815C8158
:102FB000440F551F440F551F4D5F5F4FBC01769561
:102FC000762F662777956795FE0131966E0F7F1FE6
:102FD000460F571F4B5F5F4FFA014081642F6F60B0
:102FE0009695982F882797958795AE014F5F5F4FED
:102FF000840F951F820F931F0596FC016083DCC030
:1030000089819A8199230CF40196959587952B8156
:103010003C81220F331F220F331F4B815C81440FF1
:10302000551F440F551FBC017695762F662777955F
:103030006795FE0131966E0F7F1F460F571F4B5F3E
:103040005F4FFA014081642F606F9695982F882713
:1030500097958795AE014F5F5F4F840F951F820F45
:10306000931F0596FC01608389819A8199230CF452
:103070000196959587952B813C81220F331F220F56
:10308000331F2F5F3F4F4B815C81440F551F440F0F
:10309000551F4F5F5F4FBC017695762F662777955A
:1030A0006795FE0131966E0F7F1F460F571F4B5FCE
:1030B0005F4FFA014081642F606F9695982F8827A3
:1030C00097958795AE014F5F5F4F840F951F820FD5
:1030D000931F0596FC01608389819A8199230CF4E2
:1030E0000196959587952B813C81220F331F220FE6
:1030F000331F2E5F3F4F4B815C81440F551F440FA0
:10310000551F4E5F5F4FBC017695762F66277795EA
:103110006795FE0131966E0F7F1F460F571F4B5F5D
:103120005F4FFA014081642F606F9695982F882732
:1031300097958795AE014F5F5F4F840F951F820F64
:10314000931F0596FC01608389819A8199230CF471
:103150000196959587952B813C81220F331F220F75
:10316000331F2D5F3F4F4B815C81440F551F440F30
:10317000551F4D5F5F4FBC017695762F662777957B
:103180006795FE0131966E0F7F1F460F571F4B5FED
:103190005F4FFA014081642F606F9695982F8827C2
:1031A00097958795AE014F5F5F4F840F951F820FF4
:1031B000931F0596FC0160838B819C8101969C8303
:1031C0008B838B819C8180970CF418CE89819A81A6
:1031D00001969A83898389819A810C970CF40BCE8E
:1031E00082E08D8318C08D810E9430028D81882FEE
:1031F00090E002979E012A5F3F4F9695982F88276F
:1032000097958795820F931F60E870E00E94AE014A
:103210008D818F5F8D838D81883028F30000CB5F97
:10322000DC4F0FB6F894DEBF0FBECDBFDF91CF915C
:103230000895CF93DF9300D0CDB7DEB71092800111
:103240008091820180939E0582E590E0FC012081BF
:1032500085E2289F812D1124922F981B9695890F26
:10326000982F96959695892F880F880F880F891B20
:10327000922F981B9093820110928D0510928B05CE
:1032800086E080938C051A82198212C089819A8106
:10329000880F991F880F991F82579A4FFC0110823F
:1032A00011821282138289819A8101969A8389837D
:1032B00089819A81049754F380918C05833008F0BA
:1032C000E1C080919E05482F50E080918D05882FA8
:1032D00090E02CE830E0440F551F440F551F840F39
:1032E000951F880F991F820F931FFC01859195915F
:1032F0003297CC01A0E0B0E08827907FAA27BB27B7
:1033000020918C05222F30E04FE050E0BA01621B83
:10331000730B9B0104C0B695A795979587952A9541
:10332000D2F780938E0590938F05A0939005B0936C
:10333000910580919E05482F50E080918D05882F42
:1033400090E02CE830E0440F551F440F551F840FC8
:10335000951F880F991F820F931FFC0185919591EE
:103360003297CC01A0E0B0E088279F70AA27BB2746
:1033700020918C05222F30E04BE050E0BA01621B17
:10338000730B9B0104C0B695A795979587952A95D1
:10339000D2F780938E0590938F05A0939005B093FC
:1033A000910580919E05482F50E080918D05882FD2
:1033B00090E02CE830E0440F551F440F551F840F58
:1033C000951F880F991F820F931FFC01859195917E
:1033D0003297CC01A0E0B0E0807F9927AA27BB27D5
:1033E00020918C05222F30E047E050E0BA01621BAB
:1033F000730B9B0104C0B695A795979587952A9561
:10340000D2F780938E0590938F05A0939005B0938B
:10341000910580919E05482F50E080918D05882F61
:1034200090E02CE830E0440F551F440F551F840FE7
:10343000951F880F991F820F931FFC01859195910D
:103440003297CC01A0E0B0E08F709927AA27BB2764
:1034500020918C05222F30E043E050E0BA01621B3E
:10346000730B9B0104C0B695A795979587952A95F0
:10347000D2F780938E0590938F05A0939005B0931B
:103480009105DCC080919E05482F50E080918D050C
:10349000882F90E02CE830E0440F551F440F551F53
:1034A000840F951F880F991F820F931FFC01859130
:1034B00095913297892F992782958F70CC01A0E042
:1034C000B0E020918C05222F30E02350310904C058
:1034D000880F991FAA1FBB1F2A95D2F780938E05CC
:1034E00090938F05A0939005B093910580919E05D0
:1034F000482F50E080918D05882F90E02CE830E037
:10350000440F551F440F551F840F951F880F991F97
:10351000820F931FFC01859195913297CC01A0E019
:10352000B0E088279F70AA27BB27892F9A2FAB2F3F
:10353000BB2720918C05222F30E02350310904C095
:10354000880F991FAA1FBB1F2A95D2F78093920557
:1035500090939305A0939405B093950580919E0553
:10356000482F50E080918D05882F90E02CE830E0C6
:10357000440F551F440F551F840F951F880F991F27
:10358000820F931FFC01859195913297CC01A0E0A9
:10359000B0E0807F9927AA27BB27689413F8B695D7
:1035A000A795979587951694D1F720918C05222F92
:1035B00030E02350310904C0880F991FAA1FBB1F98
:1035C0002A95D2F78093960590939705A093980536
:1035D000B093990580919E05482F50E080918D050C
:1035E000882F90E02CE830E0440F551F440F551F02
:1035F000840F951F880F991F820F931FFC018591DF
:1036000095913297CC01A0E0B0E08F709927AA275E
:10361000BB2720918C05222F30E02350310904C0B4
:10362000880F991FAA1FBB1F2A95D2F780939A056E
:1036300090939B05A0939C05B0939D0580918B056D
:10364000882F90E0880F991F880F991F81569A4FF5
:10365000FC0180819181A281B381282F80918E0508
:1036600090918F05A0919005B0919105922F98238C
:1036700080918101892B8093810180918B05882F16
:1036800090E00196880F991F880F991F81569A4FD5
:10369000FC0180819181A281B381282F80919205C4
:1036A00090919305A0919405B0919505922F982340
:1036B00080918101892B8093810180918B05882FD6
:1036C00090E00296880F991F880F991F81569A4F94
:1036D000FC0180819181A281B381282F8091960580
:1036E00090919705A0919805B0919905922F9823F4
:1036F00080918101892B8093810180918B05882F96
:1037000090E00396880F991F880F991F81569A4F52
:10371000FC0180819181A281B381282F80919A053B
:1037200090919B05A0919C05B0919D05922F9823A7
:1037300080918101892B8093810180918B05682F75
:1037400070E080918B05882F90E0880F991F880F7B
:10375000991F81569A4FFC0120813181428153810A
:1037600080918E0590918F05A0919005B091910563
:10377000822B932BA42BB52B9B01220F331F220FDF
:10378000331F21563A4FF90180839183A283B3837B
:1037900080918B05882F90E0BC016F5F7F4F8091F7
:1037A0008B05882F90E00196880F991F880F991F2D
:1037B00081569A4FFC012081318142815381809151
:1037C000920590919305A0919405B0919505822B57
:1037D000932BA42BB52B9B01220F331F220F331FDA
:1037E00021563A4FF90180839183A283B38380915C
:1037F0008B05882F90E0BC016E5F7F4F80918B0519
:10380000882F90E00296880F991F880F991F815684
:103810009A4FFC012081318142815381809196052C
:1038200090919705A0919805B0919905822B932BC3
:10383000A42BB52B9B01220F331F220F331F2156C0
:103840003A4FF90180839183A283B38380918B05E2
:10385000882F90E0BC016D5F7F4F80918B05882F92
:1038600090E00396880F991F880F991F81569A4FF1
:10387000FC01208131814281538180919A05909190
:103880009B05A0919C05B0919D05822B932BA42BA9
:10389000B52B9B01220F331F220F331F21563A4FA6
:1038A000F90180839183A283B38300000F900F906E
:1038B000DF91CF910895CF93DF93CDB7DEB7C95095
:1038C000D1400FB6F894DEBF0FBECDBF1A82198269
:1038D0000BC089819A818D579E4FFC01108289818E
:1038E0009A8101969A83898389819A8108978CF3BA
:1038F00080918501482F80918201882F90E02CE8EB
:1039000030E0880F991F880F991F880F991F820F29
:10391000931FFC018591959132978827907F892F7D
:10392000992786958695842B8093850180918601C1
:10393000482F80918201882F90E02CE830E0880F9A
:10394000991F880F991F880F991F820F931FFC01E1
:1039500085919591329788279F700024880F991F31
:10396000001C880F991F001C892F902D842B809399
:10397000860180918701482F80918201882F90E0F5
:103980002CE830E0880F991F880F991F880F991F26
:10399000820F931FFC01859195913297807F992723
:1039A0009695879596958795842B8093870140916E
:1039B000880180918201882F90E02CE830E0880F08
:1039C000991F880F991F880F991F820F931FFC0161
:1039D0008591959132978F70880F880F842B8093F3
:1039E000880120E031E0CE010A96FC01A901119284
:1039F00041505040E1F78FEF8C87CE0184579F4FA5
:103A00002FEFFC0120838FEF8B8FCE0185569F4FC8
:103A10002FEFFC01208382E090E09C838B832DC0FC
:103A20009E01265F3F4F8B819C81820F931FFC017B
:103A30008081482F41609E01265F3F4F8B819C8192
:103A4000820F931FFC0140839E0126573F4F8B81BD
:103A50009C81820F931FFC018081482F40689E014A
:103A600026573F4F8B819C81820F931FFC0140831F
:103A70008B819C8101969C838B838B819C81429757
:103A80007CF21E821D82E3C018861F82D6C08D8103
:103A90009E818D579E4FFC018081882F90E00F8082
:103AA00002C0959587950A94E2F781709927892B32
:103AB00009F4BEC08F81988504970CF05DC08D819C
:103AC0009E810196880F991F2D813E812F5F3F4F68
:103AD000220F331FAE0146575F4F240F351FF901E8
:103AE0002081622F43E050E02F813885FA01E21BEC
:103AF000F30B9F01A901440F551F23E030E002C0E2
:103B0000220F331F4A95E2F7262B422F9E0126579C
:103B10003F4F820F931FFC0140838D819E81880F50
:103B2000991F03962D813E81220F331F2D5F3F4F3A
:103B3000AE0146575F4F240F351FF9012081622FD8
:103B400043E050E02F813885FA01E21BF30B9F011F
:103B5000A901440F551F23E030E002C0220F331F9C
:103B60004A95E2F7262B422F9E0126573F4F820FA0
:103B7000931FFC0140835CC08D819E810196880F5C
:103B8000991F2D813E812F5F3F4F220F331FAE01C2
:103B9000465F5F4F240F351FF9012081622F47E0F8
:103BA00050E02F813885FA01E21BF30B9F01A90138
:103BB000440F551F23E030E002C0220F331F4A9507
:103BC000E2F7262B422F9E01265F3F4F820F931F65
:103BD000FC0140838D819E81880F991F03962D8162
:103BE0003E81220F331F2D5F3F4FAE01465F5F4F77
:103BF000240F351FF9012081622F47E050E02F810B
:103C00003885FA01E21BF30B9F01A901440F551FF0
:103C100023E030E002C0220F331F4A95E2F7262B43
:103C2000422F9E01265F3F4F820F931FFC0140836E
:103C30008F819885019698878F838F8198850897C3
:103C40000CF425CF8D819E8101969E838D838D817D
:103C50009E8108970CF418CF198617C089850E9499
:103C600030028985882F90E09E01265F3F4F969510
:103C7000982F882797958795820F931F60E870E0AB
:103C80000E94AE0189858F5F89878985823030F3F4
:103C90000000C75FDE4F0FB6F894DEBF0FBECDBF8A
:103CA000DF91CF910895CF93DF93CDB7DEB72897FB
:103CB0000FB6F894DEBF0FBECDBF0E947E0183E534
:103CC00090E027E0FC0120838FE490E02FE430E0D7
:103CD000F9012081FC0120838EE490E02EE430E0A5
:103CE000F90120812D60FC0120838AE490E02FEF10
:103CF0003FE0FC013183208387E590E027E530E059
:103D0000F90120812061FC01208381E390E0FC0126
:103D1000108282E290E0FC0110828AE590E02AEABB
:103D2000FC0120838AE690E020E8FC01208389E5FD
:103D300090E028EFFC01208378940E9431031092D8
:103D400081011A82198217C089819A81880F991F6F
:103D5000880F991F9C0120503F4F81E098E0A0E020
:103D6000B0E0F90180839183A283B38389819A8132
:103D700001969A83898389819A814F972CF38FEFDB
:103D80009FE0A0E0B0E080937C0190937D01A09340
:103D90007E01B0937F018AC01C821B8253C08B813D
:103DA0009C81880F991F880F991F80509F4FFC019D
:103DB00080819181A281B3818F3F9F40A105B10590
:103DC000E1F58B819C81880F991F880F991F9C01B9
:103DD00020503F4F81E098E0A0E0B0E0F9018083FF
:103DE0009183A283B3838B819C819E838D8320C02A
:103DF0008D819E810197880F991F880F991F805090
:103E00009F4FFC0180819181A281B3812D813E81F0
:103E1000220F331F220F331F20503F4FF9018083A1
:103E20009183A283B3838D819E8101979E838D832D
:103E30008D819E8118161906DCF28B819C8101967A
:103E40009C838B838B819C814F970CF4A8CF188621
:103E50001F821FC08F819885880F991F880F991F17
:103E600080509F4FFC0180819181A281B3812F817D
:103E70003885220F331F220F331F21563A4FF90185
:103E800080839183A283B3838F81988501969887DD
:103E90008F838F8198858097ECF2CBD90CDD02C09F
:103EA0000E94E316809180018823D1F380918101E3
:103EB000882309F471CF43CF2FD008F481E008950F
:103EC00057D088F09F5790F0B92F9927B751A0F09D
:103ED000D1F0660F771F881F991F1AF0BA95C9F79E
:103EE00012C0B13081F05ED0B1E008955BC0672FA1
:103EF000782F8827B85F39F0B93FCCF3869577954E
:103F00006795B395D9F73EF4909580957095619536
:103F10007F4F8F4F9F4F0895990F0008550FAA0BA1
:103F2000E0E8FEEF16161706E807F907C0F01216CC
:103F30001306E407F50798F0621B730B840B950BCF
:103F400039F40A2661F0232B242B252B21F4089524
:103F50000A2609F4A140A6958FEF811D811D0895C1
:103F600057FD9058440F551F59F05F3F71F047952A
:103F7000880F97FB991F61F09F3F79F0879508950F
:103F8000121613061406551FF2CF4695F1DF08C02E
:103F9000161617061806991FF1CF8695710561054B
:103FA00008940895E894BB2766277727CB0197F9F3
:103FB0000895B2DF08F48FEF08950BD078C069D070
:103FC00028F06ED018F0952309F05AC05FC0112474
:103FD000EACFC6DFA0F3959FD1F3950F50E0551FB0
:103FE000629FF001729FBB27F00DB11D639FAA274E
:103FF000F00DB11DAA1F649F6627B00DA11D661F9D
:10400000829F2227B00DA11D621F739FB00DA11DBD
:10401000621F839FA00D611D221F749F3327A00D77
:10402000611D231F849F600D211D822F762F6A2F13
:1040300011249F5750408AF0E1F088234AF0EE0F98
:10404000FF1FBB1F661F771F881F91505040A9F7A5
:104050009E3F510570F014C0A6CF5F3FECF3983E31
:10406000DCF3869577956795B795F795E7959F5F0C
:10407000C1F7FE2B880F911D9695879597F90895A6
:1040800097F99F6780E870E060E008959FEF80EC0B
:10409000089500240A9416161706180609060895AE
:1040A00000240A9412161306140605060895092E14
:1040B0000394000C11F4882352F0BB0F40F4BF2B83
:1040C00011F460FF04C06F5F7F4F8F4F9F4F0895C3
:0440D000F894FFCF92
:00000001FF
