:1000000045C0000058C0000056C0000054C00000A9
:1000100052C0000050C000004EC000004CC00000A4
:100020004AC0000048C0000046C0000044C00000B4
:1000300042C0000040C000003EC000003CC00000C4
:100040003AC0000038C0000036C0000034C00000D4
:1000500032C0000030C000002EC000002CC00000E4
:100060002AC0000028C0000026C0000024C00000F4
:1000700022C0000020C000001EC000001CC0000004
:100080001AC0000018C0000016C0000011241FBED6
:10009000CFEFD0E1DEBFCDBF11E0A0E0B1E0E2EFF5
:1000A000F7E000E00BBF02C007900D92A030B1074F
:1000B000D9F7C3D09CC3A4CFCF93DF93CDB7DEB71E
:1000C0008AE290E028E1FC01208385E990E026E0C7
:1000D000FC01208389E290E027E6FC0120830000F8
:1000E000DF91CF910895CF93DF931F92CDB7DEB705
:1000F000898300008BE290E0FC018081882F90E0F2
:1001000080729927892BB1F38CE290E02981FC0160
:10011000208300000F90DF91CF910895CF93DF935C
:10012000CDB7DEB767970FB6F894DEBF0FBECDBF71
:100130008F8B1A8219828EE7D6DF8FEFD4DF86E0AD
:10014000D2DF8F89D0DF80E0CEDF80E0CCDF8F8907
:10015000893071F080E0C7DF8F89882F90E02BEF26
:100160003EEFA901481B590BCA019A8389830DC030
:1001700082E0B9DF8F89882F90E029EF3EEFA90157
:10018000481B590BCA019A83898389819A81892FD7
:100190009927A9DF8981A7DF8FEEA5DF0000679689
:1001A0000FB6F894DEBF0FBECDBFDF91CF9108959B
:1001B000CF93DF93CDB7DEB769970FB6F894DEBF64
:1001C0000FBECDBF8F8B688F498F1A8219828EE741
:1001D0008ADF8FEF88DF86E086DF8F8984DF80E02B
:1001E00082DF888D80DF898D7EDF8F89882F90E088
:1001F0009C012B5F3E4F888D882F90E0280F391F80
:10020000898D882F90E0820F931F91958195910998
:100210009A83898389819A81892F992764DF8981CB
:1002200062DF8FEE60DF000069960FB6F894DEBFE4
:100230000FBECDBFDF91CF910895CF93DF93CDB7A0
:10024000DEB7E8970FB6F894DEBF0FBECDBF34DF40
:1002500089E064DF80E090E0A0EAB1E48D839E83D2
:10026000AF83B88720E030E04AE755E46D817E81B6
:100270008F81988531D2DC01CB018DA39EA3AFA3E2
:10028000B8A720E030E040E85FE36DA17EA18FA138
:1002900098A5A1D188232CF481E090E09AA789A7A2
:1002A0003BC020E03FEF4FE757E46DA17EA18FA157
:1002B00098A50ED218163CF520E030E040E251E45B
:1002C0006D817E818F81988507D2DC01CB01BC01D5
:1002D000CD0185D1DC01CB019AA789A70FC080E9A8
:1002E00091E09CA78BA78BA59CA50197F1F79CA7F4
:1002F0008BA789A59AA501979AA789A789A59AA5E9
:10030000892B69F713C06DA17EA18FA198A567D134
:10031000DC01CB019AA789A789A59AA59EA78DA7DD
:100320008DA59EA50197F1F79EA78DA74FE060E0F0
:1003300086E03EDF80E090E0A8E4B3E489879A8716
:10034000AB87BC8720E030E04AE755E469857A85D1
:100350008B859C85C1D1DC01CB018B8F9C8FAD8FB0
:10036000BE8F20E030E040E85FE36B8D7C8D8D8DAB
:100370009E8D31D188232CF481E090E098A38F8F5B
:100380003BC020E03FEF4FE757E46B8D7C8D8D8DB8
:100390009E8D9ED118163CF520E030E040E251E4FD
:1003A00069857A858B859C8597D1DC01CB01BC0161
:1003B000CD0115D1DC01CB0198A38F8F0FC080E94F
:1003C00091E09AA389A389A19AA10197F1F79AA331
:1003D00089A38F8D98A1019798A38F8F8F8D98A156
:1003E000892B69F713C06B8D7C8D8D8D9E8DF7D019
:1003F000DC01CB0198A38F8F8F8D98A19CA38BA339
:100400008BA19CA10197F1F79CA38BA341E061E034
:100410008FE0CEDE80E090E0A8E4B3E48D879E8795
:10042000AF87B88B20E030E04AE755E46D857E85E4
:100430008F85988951D1DC01CB01898B9A8BAB8B4D
:10044000BC8B20E030E040E85FE369897A898B89E2
:100450009C89C1D088232CF481E090E09E8B8D8B09
:100460003BC020E03FEF4FE757E469897A898B89E9
:100470009C892ED118163CF520E030E040E251E492
:100480006D857E858F85988927D1DC01CB01BC01E4
:10049000CD01A5D0DC01CB019E8B8D8B0FC080E9F7
:1004A00091E0988F8F8B8F89988D0197F1F7988FB6
:1004B0008F8B8D899E8901979E8B8D8B8D899E89CF
:1004C000892B69F713C069897A898B899C8987D0C0
:1004D000DC01CB019E8B8D8B8D899E899A8F898FB4
:1004E000898D9A8D0197F1F79A8F898F43E061E0AA
:1004F0008FE05EDE80E090E0AAE7B4E489839A832F
:10050000AB83BC8320E030E04AE755E469817A811F
:100510008B819C81E1D0DC01CB018FA798ABA9AB8B
:10052000BAAB20E030E040E85FE36FA578A989A985
:100530009AA951D088232CF481E090E09CAB8BAB3E
:100540003BC020E03FEF4FE757E46FA578A989A9AA
:100550009AA9BED018163CF520E030E040E251E404
:1005600069817A818B819C81B7D0DC01CB01BC0190
:10057000CD0135D0DC01CB019CAB8BAB0FC080E94A
:1005800091E09EAB8DAB8DA99EA90197F1F79EAB33
:100590008DAB8BA99CA901979CAB8BAB8BA99CA91C
:1005A000892B69F713C06FA578A989A99AA917D0D3
:1005B000DC01CB019CAB8BAB8BA99CA998AF8FAB1B
:1005C0008FA998AD0197F1F798AF8FAB43E061E049
:1005D0008FE0EEDD8FCF2FD008F481E0089557D063
:1005E00088F09F5790F0B92F9927B751A0F0D1F01C
:1005F000660F771F881F991F1AF0BA95C9F712C0A6
:10060000B13081F05ED0B1E008955BC0672F782FE4
:100610008827B85F39F0B93FCCF386957795679511
:10062000B395D9F73EF490958095709561957F4F7D
:100630008F4F9F4F0895990F0008550FAA0BE0E8C0
:10064000FEEF16161706E807F907C0F01216130694
:10065000E407F50798F0621B730B840B950B39F4D4
:100660000A2661F0232B242B252B21F408950A263A
:1006700009F4A140A6958FEF811D811D089557FDB6
:100680009058440F551F59F05F3F71F04795880F00
:1006900097FB991F61F09F3F79F087950895121697
:1006A00013061406551FF2CF4695F1DF08C0161643
:1006B00017061806991FF1CF8695710561050894F4
:1006C0000895E894BB2766277727CB0197F908950B
:1006D000B2DF08F48FEF08950BD078C069D028F00E
:1006E0006ED018F0952309F05AC05FC01124EACFEC
:1006F000C6DFA0F3959FD1F3950F50E0551F629F81
:10070000F001729FBB27F00DB11D639FAA27F00D6A
:10071000B11DAA1F649F6627B00DA11D661F829F91
:100720002227B00DA11D621F739FB00DA11D621F76
:10073000839FA00D611D221F749F3327A00D611D93
:10074000231F849F600D211D822F762F6A2F112475
:100750009F5750408AF0E1F088234AF0EE0FFF1FC8
:10076000BB1F661F771F881F91505040A9F79E3FFF
:10077000510570F014C0A6CF5F3FECF3983EDCF358
:10078000869577956795B795F795E7959F5FC1F73C
:10079000FE2B880F911D9695879597F9089597F9E7
:1007A0009F6780E870E060E008959FEF80EC089517
:1007B00000240A9416161706180609060895002440
:1007C0000A9412161306140605060895092E0394BA
:1007D000000C11F4882352F0BB0F40F4BF2B11F42E
:1007E00060FF04C06F5F7F4F8F4F9F4F0895F89455
:0207F000FFCF39
:00000001FF
