S0120000536E616B655F67616D652E7372656327
S113000035C1000052C1000050C100004EC10000C3
S11300104CC10000B3C50000F7C4000033C50000A4
S11300206FC5000042C1000040C100003EC1000095
S11300303CC100003AC1000038C1000036C10000D4
S113004034C1000032C1000030C100002EC10000E4
S11300502CC100002AC1000028C1000026C10000F4
S113006024C1000022C1000020C100001EC1000004
S11300701CC100001AC1000018C1000016C1000014
S113008014C1000012C1000010C1000000000000F3
S11300900000005F00000007000700147F147F14B5
S11300A0242A7F2A122313086462364955225000F9
S11300B005030000001C2241000041221C0014081A
S11300C03E081408083E08080050300000080808DC
S11300D00808006060000020100804023E514945F1
S11300E03E00427F400042615149462141454B3127
S11300F01814127F1027454545393C4A49493001B7
S1130100710905033649494936064949291E00360D
S1130110360000005636000008142241001414145E
S1130120141400412214080201510906324979418C
S11301303E7E1111117E7F494949363E414141229B
S11301407F4141221C7F494949417F090909013EF8
S11301504149497A7F0808087F00417F41002040D7
S1130160413F017F081422417F404040407F020C00
S1130170027F7F0408107F3E4141413E7F09090907
S1130180063E4151215E7F091929464649494931B4
S113019001017F01013F4040403F1F2040201F3F9D
S11301A04038403F6314081463070870080761511E
S11301B0494543007F4141000204081020004141A9
S11301C07F00040201020440404040400001020458
S11301D00020545454787F484444383844444420DC
S11301E0384444487F3854545418087E0901020C9A
S11301F05252523E7F0804047800447D400020405F
S1130200443D007F1028440000417F40007C0418D6
S113021004787C0804047838444444387C14141466
S113022008081414187C7C08040408485454542006
S1130230043F4440203C4040207C1C2040201C3C87
S11302404030403C44281028440C5050503C4464F6
S1130250544C44000836410000007F000000413641
S113026008001008081008784641467811241FBE7B
S1130270CFEFD0E1DEBFCDBF16E0A0E0B1E0E0E516
S1130280F0E200E00BBF02C007900D92A83BB1075B
S1130290D9F727E0A8EBB6E001C01D92A134B2075C
S11302A0E1F70E94030A0C942610AACECF93DF93A1
S11302B0CDB7DEB728970FB6F894DEBF0FBECDBF1B
S11302C08E8378876F831A82198229C02F8138859B
S11302D0C901019698878F838E81082E000C990B93
S11302E0AC0140525109CA01880F991F880F991F08
S11302F0840F951F49815A81840F951F84579F4FFE
S11303009C838B838B819C81FC0184918D838D8163
S1130310F901808389819A8101969A8389838981ED
S11303209A8105979CF28F819885FC0110820000C8
S113033028960FB6F894DEBF0FBECDBFDF91CF91E4
S11303400895CF93DF93CDB7DEB780E790E024EA3A
S1130350FC0124830000DF91CF910895CF93DF93B4
S1130360CDB7DEB780E790E024E9FC0124830000E8
S1130370DF91CF910895CF93DF93CDB7DEB700001F
S113038080E790E0FC0184818823D4F70000DF91AA
S1130390CF910895CF93DF93CDB7DEB780E790E098
S11303A0FC018181887FDF91CF910895CF93DF9302
S11303B01F92CDB7DEB7898380E790E02981FC01E5
S11303C0238380E790E024E8FC01248300000F905D
S11303D0DF91CF910895CF93DF93CDB7DEB7B1DF2F
S11303E0CADFD8DF883019F08FEF9FEF02C080E0BA
S11303F090E0DF91CF910895CF93DF93CDB7DEB72F
S1130400ADDF0000DF91CF910895CF93DF9300D04B
S1130410CDB7DEB78A838A81882F90E081709927CF
S1130420892B11F080E401C088E189838A81BEDFD1
S1130430A2DFB0DF982F8981981719F08FEF9FEF13
S113044002C080E090E00F900F90DF91CF9108956B
S1130450CF93DF931F92CDB7DEB789838981A6DF5F
S11304608ADF98DF883219F08FEF9FEF02C080E0B7
S113047090E00F90DF91CF910895CF93DF93CDB7A4
S1130480DEB728970FB6F894DEBF0FBECDBF8B83BF
S11304906C835E834D8338872F839DDF892B19F00E
S11304A08FEF9FEF30C08B81880FAFDF892B19F05E
S11304B08FEF9FEF28C08C81CBDF892B19F08FEF52
S11304C09FEF21C01A82198214C08D819E819C01E4
S11304D02F5F3F4F3E832D83FC018081B9DF892B41
S11304E019F08FEF9FEF0FC089819A8101969A834B
S11304F0898329813A818F819885281739072CF3BC
S11305007BDF80E090E028960FB6F894DEBF0FBE44
S1130510CDBFDF91CF910895CF93DF93CDB7DEB7F1
S113052080E790E025E0FC01208380E790E0FC0177
S113053011820000DF91CF910895CF93DF9300D013
S11305401F92CDB7DEB79A8389836B838B81282F63
S113055030E089819A81AC0160E08CE38EDF000099
S11305600F900F900F90DF91CF910895CF93DF9369
S113057000D000D0CDB7DEB79A8389837C836B83A8
S11305802B813C8189819A81AC0160E48CE375DF25
S113059000000F900F900F900F90DF91CF9108956E
S11305A0CF93DF93CDB7DEB70000DF91CF910895ED
S11305B0CF93DF9300D000D0CDB7DEB79C838B837D
S11305C08DE889838B819C81892B11F084E101C0A2
S11305D080E18A8362E0CE010196AFDF00000F90D4
S11305E00F900F900F90DF91CF910895CF93DF93E9
S11305F000D01F92CDB7DEB79B838A838A81846A39
S1130600898361E0CE01019698DF00000F900F907E
S11306100F90DF91CF910895CF93DF9300D01F9275
S1130620CDB7DEB79B838A838A818E6A898361E032
S1130630CE01019682DF00000F900F900F90DF91A2
S1130640CF910895CF93DF9300D01F92CDB7DEB73B
S11306508B8380E289838B818A8362E0CE01019659
S11306606CDF00000F900F900F90DF91CF910895F1
S1130670CF93DF9300D0CDB7DEB78A838A81806BB6
S1130680898361E0CE01019658DF00000F900F903E
S1130690DF91CF910895CF93DF9300D0CDB7DEB72C
S11306A08A838A818F70898361E0CE01019645DF58
S11306B08A8182958F708061898361E0CE01019681
S11306C03CDF00000F900F90DF91CF910895CF93FE
S11306D0DF9300D01F92CDB7DEB79B838A838A81D4
S11306E0806A898361E0CE01019627DF00000F90C4
S11306F00F900F90DF91CF910895CF93DF9300D0A7
S11307001F92CDB7DEB79B838A838A81866A8983E9
S113071061E0CE01019611DF00000F900F900F9061
S1130720DF91CF910895CF93DF9300D01F92CDB77F
S1130730DEB79B838A838A81886C898361E0CE01DA
S11307400196FBDE00000F900F900F90DF91CF9188
S11307500895CF93DF93CDB7DEB72E970FB6F894F5
S1130760DEBF0FBECDBF80E090E0A0E8BFE3898389
S11307709A83AB83BC8320E030E04AE755E4698187
S11307807A818B819C810E94ED0BDC01CB018D83EE
S11307909E83AF83B88720E030E040E85FE36D815B
S11307A07E818F81988598D788232CF481E090E00E
S11307B09A8789873CC020E03FEF4FE757E46D817B
S11307C07E818F8198850E94E90B18163CF520E004
S11307D030E040E251E469817A818B819C81FDD7CC
S11307E0DC01CB01BC01CD017BD7DC01CB019A87B5
S11307F089870FC080E991E09C878B878B859C85D6
S11308000197F1F79C878B8789859A8501979A8749
S1130810898789859A85892B69F713C06D817E81C3
S11308208F8198855DD7DC01CB019A87898789857B
S11308309A859E878D878D859E850197F1F79E8782
S11308408D87AEDE81E090E0B3DE80E090E0CEDE26
S113085081E090E0E1DE00002E960FB6F894DEBF52
S11308600FBECDBFDF91CF910895CF93DF9300D01A
S1130870CDB7DEB71A820AC08A81882F90E08854E7
S1130880994FFC0110828A818F5F8A838A81882331
S11308909CF719820AC08981EBDE60E870E088EB7E
S11308A096E064DE89818F5F89838981883098F33B
S11308B080E0F1DE00000F900F90DF91CF9108955A
S11308C0CF93DF93CDB7DEB76C970FB6F894DEBF46
S11308D00FBECDBFCE0187969E838D834D815E81F1
S11308E02DA13EA1CE010796B9010E94F40C9C8370
S11308F08B838B819C81181619060CF03BC01A82DD
S113090019821CC029813A81C901880F991F820F5D
S1130910931F880F991FAC014854594F9E01295FBA
S11309203F4F89819A81820F931FFC018081BA0114
S1130930BDDC89819A8101969A83898329813A81D0
S11309408B819C8128173907ECF289A191DE9BA148
S1130950892F880F890F880F9EDE2B813C81C90166
S1130960880F991F820F931F880F991FBC0188EB72
S113097096E0FCDD8B819C816C960FB6F894DEBF0B
S11309800FBECDBFDF91CF910895CF93DF9300D0F9
S11309901F92CDB7DEB79B838A83198215C08981E4
S11309A067DE8981882F90E09695982F8827979500
S11309B087959C018A819B81820F931F60E870E078
S11309C0D5DD89818F5F89838981883040F3000078
S11309D00F900F900F90DF91CF910895CF93DF93F5
S11309E0CDB7DEB799DDB5DE82E02CDE3EDF80E0F8
S11309F090E099DE81E090E06ADE80E090E07DDEC8
S1130A000000DF91CF9108951F920F9200905F0034
S1130A100F9211248F939F93CF93DF93CDB7DEB7BB
S1130A208091080190910901892B31F481E090E0D3
S1130A309093090180930801809106019091070128
S1130A408B34910571F080910601909107018D34EA
S1130A50910539F080910601909107018834910540
S1130A6031F488E490E0909307018093060100003C
S1130A70DF91CF919F918F910F9000925F000F9023
S1130A801F9018951F920F9200905F000F921124EF
S1130A908F939F93CF93DF93CDB7DEB780910801F7
S1130AA090910901892B31F481E090E09093090140
S1130AB08093080180910601909107018B34910580
S1130AC071F080910601909107018D34910539F000
S1130AD080910601909107018035910531F480E5FC
S1130AE090E090930701809306010000DF91CF917D
S1130AF09F918F910F9000925F000F901F90189517
S1130B001F920F9200905F000F9211248F939F9376
S1130B10CF93DF93CDB7DEB780910801909109019F
S1130B20892B31F481E090E09093090180930801CE
S1130B3080910601909107018035910571F08091B3
S1130B400601909107018B34910539F080910601DB
S1130B50909107018834910531F48BE490E09093EF
S1130B600701809306010000DF91CF919F918F913F
S1130B700F9000925F000F901F9018951F920F9294
S1130B8000905F000F9211248F939F93CF93DF9374
S1130B90CDB7DEB78091080190910901892B31F41A
S1130BA081E090E09093090180930801809106010F
S1130BB0909107018035910571F080910601909123
S1130BC007018D34910539F0809106019091070158
S1130BD08834910531F48DE490E09093070180937B
S1130BE006010000DF91CF919F918F910F900092A9
S1130BF05F000F901F901895CF93DF9300D000D023
S1130C00CDB7DEB78DE992E0892F8F938DE992E01D
S1130C108F931F9283E08F931F921F9251DE0F9048
S1130C200F900F900F900F900F901A82198217C097
S1130C3082E01EDD89812FDD61E070E08AE091E0D1
S1130C4095DC87E015DD898126DD61E070E08BE0CD
S1130C5091E08CDC89819A8101969A8389838981C8
S1130C609A818038910524F31C821B8215C08B81E4
S1130C70FFDC80E010DD61E070E08CE091E076DC88
S1130C808FE709DD61E070E08CE091E06FDC8B813F
S1130C909C8101969C838B838B819C8108973CF378
S1130CA009D05CD200000F900F900F900F90DF914D
S1130CB0CF910895CF93DF93CDB7DEB7C750D3401C
S1130CC00FB6F894DEBF0FBECDBF20E033E0CE01F7
S1130CD00896DC01F9011D923197E9F71A8219820D
S1130CE07BC01C821B826DC08B819C81892BB1F4DB
S1130CF040910C0189819A819695982F8827979520
S1130D0087959E012F5F3F4F280F391F8B819C8150
S1130D10820F931F0796DC014C934EC08B819C81FC
S1130D208F379105B1F440910C0189819A81969590
S1130D30982F8827979587959E012F5F3F4F280FFF
S1130D40391F8B819C81820F931F0796FC0140837E
S1130D5033C089819A81892BB1F440910A01898138
S1130D609A819695982F8827979587959E012F5F4E
S1130D703F4F280F391F8B819C81820F931F079649
S1130D80DC014C9319C089819A810597A9F440919B
S1130D900B0189819A819695982F88279795879535
S1130DA09E012F5F3F4F280F391F8B819C81820F3B
S1130DB0931F0796FC0140838B819C8101969C8341
S1130DC08B838B819C81803891050CF48DCF898134
S1130DD09A8101969A83898389819A8106970CF472
S1130DE080CF80913F079091400799230CF4079698
S1130DF09595879595958795959587959C014091AF
S1130E00390750913A078091390790913A07B9010F
S1130E107695762F662777956795FE0131966E0F46
S1130E207F1F860F971F0796DC018C91E82F809116
S1130E303F079091400787709078992324F4019795
S1130E40886F9F6F0196BC0181E090E002C0880F1B
S1130E50991F6A95E2F78E2B682FC9019695982FF2
S1130E608827979587959E012F5F3F4F820F931F89
S1130E70840F951F0796FC0160831E821D8256C055
S1130E808D819E818B529E4FDC018C91482F46951B
S1130E9046954695242F30E08D819E81835F9E4F39
S1130EA0FC018081882F90E0642F70E04D815E8189
S1130EB0435F5E4FDA014C91442F50E07695762FD4
S1130EC0662777956795FE0131966E0F7F1F460F53
S1130ED0571F495F5F4FFA014081E42F4D815E81C6
S1130EE04B525E4FDA014C91442F50E0BA016770C7
S1130EF0772741E050E002C0440F551F6A95E2F79E
S1130F004E2B642F3695322F222737952795AE0125
S1130F104F5F5F4F240F351F820F931F0796FC010D
S1130F2060838D819E8101969E838D8380910401CF
S1130F30909105012D813E81281739070CF4A0CF2B
S1130F4082E08F8316C08F8193DB8F81882F90E09E
S1130F5002979E01285F3F4F9695982F8827979573
S1130F608795820F931F60E870E000DB8F818F5FAD
S1130F708F838F81883038F30000C95FDC4F0FB650
S1130F80F894DEBF0FBECDBFDF91CF910895CF930C
S1130F90DF9300D000D000D0CDB7DEB79E838D8321
S1130FA080910D01282F30E08091390790913A0704
S1130FB028173907D9F58091D501282F30E0809181
S1130FC03F07909140072817390781F5C7D08091D2
S1130FD00401909105010196909305018093040109
S1130FE080910401909105010197209104013091B1
S1130FF0050122503109235F3E4FF9012081835FAF
S11310009E4FFC012083809104019091050101977A
S11310102091040130910501225031092B523E4F99
S1131020F90120818B529E4FFC01208380910D0198
S1131030882361F080910D018F3741F08091D501B3
S1131040882321F08091D5018F3211F4F3D07DC033
S113105081E090E09A8389831BC020910D018981EE
S11310609A81835F9E4FFC018081281761F420914F
S1131070D50189819A818B529E4FFC01808128176A
S113108011F4D8D062C089819A8101969A838983A8
S1131090809104019091050129813A81281739072B
S11310A0E4F2809104019091050101979C838B8364
S11310B01FC08B819C810197835F9E4FFC0120811F
S11310C08B819C81835F9E4FFC0120838B819C815B
S11310D001978B529E4FFC0120818B819C818B5206
S11310E09E4FFC0120838B819C8101979C838B8381
S11310F08B819C8118161906E4F28D819E818B34B4
S1131100910529F480910D01815080930D018D8109
S11311109E818D34910529F480910D018F5F809318
S11311200D018D819E818834910529F48091D5012A
S113113081508093D5018D819E818035910529F45C
S11311408091D5018F5F8093D50126960FB6F894D0
S1131150DEBF0FBECDBFDF91CF910895CF93DF9354
S113116000D000D000D0CDB7DEB71A8219821E821B
S11311701D821A82198282E590E0FC018081882F09
S113118090E027D423D42DE730E0B901B1D30296FF
S113119090933A078093390719D42DE230E0B901CE
S11311A0A7D302969093400780933F071C821B822B
S11311B028C08B819C81835F9E4FFC018081282FF6
S11311C030E08091390790913A0728173907A1F444
S11311D08B819C818B529E4FFC018081282F30E0B3
S11311E080913F07909140072817390729F481E03F
S11311F090E09A8389830EC08B819C8101969C83A5
S11312008B8380910401909105012B813C812817E7
S113121039077CF289819A81019709F4AACF0000E9
S1131220000026960FB6F894DEBF0FBECDBFDF9147
S1131230CF910895CF93DF93CDB7DEB762970FB602
S1131240F894DEBF0FBECDBF1092090110920801C1
S1131250E5D18EEA92E0892F8F938EEA92E08F9304
S11312601F9286E08F931F9284E08F9329DB0F9067
S11312700F900F900F900F900F9080E00CDA000009
S113128080910801909109010197D1F780E480933E
S11312900D018FE380930E018EE380930F0180E2B2
S11312A08093D50180E28093D60180E28093D701B8
S11312B083E090E09A8389830BC089819A81835F5C
S11312C09E4FFC01108289819A8101969A838983B9
S11312D089819A81883C910584F383E090E09C8322
S11312E08B830BC08B819C818B529E4FFC0110829F
S11312F08B819C8101969C838B838B819C81883C10
S1131300910584F383E090E09093050180930401B8
S113131088EB92E03ADB80E090E0A8ECB3E48D83C4
S11313209E83AF83B88720E030E04AE755E46D81BF
S11313307E818F81988551D2DC01CB0189879A8780
S1131340AB87BC8720E030E040E85FE369857A85BD
S11313508B859C85C1D188232CF481E090E09E8705
S11313608D873BC020E03FEF4FE757E469857A85DE
S11313708B859C852ED218163CF520E030E040E2A7
S113138051E46D817E818F81988527D2DC01CB0168
S1131390BC01CD01A5D1DC01CB019E878D870FC097
S11313A080E991E0988B8F878F8598890197F1F771
S11313B0988B8F878D859E8501979E878D878D85D8
S11313C09E85892B69F713C069857A858B859C85F1
S11313D087D1DC01CB019E878D878D859E859A8B75
S11313E0898B89899A890197F1F79A8B898B3DDAE0
S11313F003DC000062960FB6F894DEBF0FBECDBFCB
S1131400DF91CF910895CF93DF93CDB7DEB76C977B
S11314100FB6F894DEBF0FBECDBF82E290E0FC01B0
S113142010828AE590E02AEAFC01208389E590E0B5
S113143020EFFC012083789483E590E027E0FC0111
S11314402083CCDA88EB92E0A0DA80E090E8ABEB82
S1131450B4E48D839E83AF83B88720E030E04AE70D
S113146055E46D817E818F819885B7D1DC01CB01F4
S113147089879A87AB87BC8720E030E040E85FE348
S113148069857A858B859C8527D188232CF481E016
S113149090E09E878D873BC020E03FEF4FE757E405
S11314A069857A858B859C8594D118163CF520E056
S11314B030E040E251E46D817E818F8198858DD149
S11314C0DC01CB01BC01CD010BD1DC01CB019E873A
S11314D08D870FC080E991E0988B8F878F859889DD
S11314E00197F1F7988B8F878D859E8501979E874D
S11314F08D878D859E85892B69F713C069857A85CB
S11315008B859C85EDD0DC01CB019E878D878D85F5
S11315109E859A8B898B89899A890197F1F79A8B91
S1131520898BA3D969DB72C0809106019091070170
S11315302EDDC0DB80E090E0A6E1B3E489839A83EA
S1131540AB83BC8320E030E04AE755E469817A81CB
S11315508B819C8142D1DC01CB018B8B9C8BAD8B2D
S1131560BE8B20E030E040E85FE36B897C898D89A5
S11315709E89B2D088232CF481E090E0988F8F8BE1
S11315803BC020E03FEF4FE757E46B897C898D89AE
S11315909E891FD118163CF520E030E040E251E46A
S11315A069817A818B819C8118D1DC01CB01BC01DA
S11315B0CD0196D0DC01CB01988F8F8B0FC080E9D1
S11315C091E09A8F898F898D9A8D0197F1F79A8F7F
S11315D0898F8F89988D0197988F8F8B8F89988D9C
S11315E0892B69F713C06B897C898D899E8978D092
S11315F0DC01CB01988F8F8B8F89988D9C8F8B8F7B
S11316008B8D9C8D0197F1F79C8F8B8F80910801B6
S113161090910901019709F487CFFFCECF93DF930F
S113162000D000D000D0CDB7DEB781E090E09A833F
S113163089831DC083E090E09C838B830FC08B81E2
S113164017D8898128D861E070E088E397E00E9488
S1131650B6028B819C8101969C838B838B819C81B8
S113166007976CF389819A8101969A83898389818A
S11316709A818F379105F4F281E090E09E838D8307
S11316801CC082E00E9438038D8105D861E070E0BF
S11316908AE091E00E94B60287E00E9438038D81BF
S11316A00E944B0361E070E08BE091E00E94B6027F
S11316B08D819E8101969E838D838D819E818F373E
S11316C09105FCF2000026960FB6F894DEBF0FBE1B
S11316D0CDBFDF91CF9108952FD008F481E0089514
S11316E057D088F09F5790F0B92F9927B751A0F0A1
S11316F0D1F0660F771F881F991F1AF0BA95C9F7A2
S113170012C0B13081F05ED0B1E008955BC0672FA4
S1131710782F8827B85F39F0B93FCCF38695779551
S11317206795B395D9F73EF490958095709561953A
S11317307F4F8F4F9F4F0895990F0008550FAA0BA5
S1131740E0E8FEEF16161706E807F907C0F01216D0
S11317501306E407F50798F0621B730B840B950BD3
S113176039F40A2661F0232B242B252B21F4089528
S11317700A2609F4A140A6958FEF811D811D0895C5
S113178057FD9058440F551F59F05F3F71F047952E
S1131790880F97FB991F61F09F3F79F08795089513
S11317A0121613061406551FF2CF4695F1DF08C032
S11317B0161617061806991FF1CF8695710561054F
S11317C008940895E894BB2766277727CB0197F9F7
S11317D00895B2DF08F48FEF08950BD078C069D074
S11317E028F06ED018F0952309F05AC05FC0112478
S11317F0EACFC6DFA0F3959FD1F3950F50E0551FB4
S1131800629FF001729FBB27F00DB11D639FAA2751
S1131810F00DB11DAA1F649F6627B00DA11D661FA0
S1131820829F2227B00DA11D621F739FB00DA11DC1
S1131830621F839FA00D611D221F749F3327A00D7B
S1131840611D231F849F600D211D822F762F6A2F17
S113185011249F5750408AF0E1F088234AF0EE0F9C
S1131860FF1FBB1F661F771F881F91505040A9F7A9
S11318709E3F510570F014C0A6CF5F3FECF3983E35
S1131880DCF3869577956795B795F795E7959F5F10
S1131890C1F7FE2B880F911D9695879597F90895AA
S11318A097F99F6780E870E060E008959FEF80EC0F
S11318B0089500240A9416161706180609060895B2
S11318C000240A9412161306140605060895092E18
S11318D00394000C11F4882352F0BB0F40F4BF2B87
S11318E011F460FF04C06F5F7F4F8F4F9F4F0895C7
S11318F097FB072E16F4009406D077FD08D00BD082
S113190007FC05D03EF4909581959F4F08957095FE
S113191061957F4F0895AA1BBB1B51E107C0AA1F05
S1131920BB1FA617B70710F0A61BB70B881F991F7C
S11319305A95A9F780959095BC01CD0108958F9291
S11319409F92AF92BF92CF92DF92EF92FF92CF938A
S1131950DF93EC01688179818A819B81611571052E
S11319608105910521F464E279ED8BE597E02DE1A1
S113197033EF41E050E00DD349015A019B01AC0122
S1131980A7EAB1E422D36B017C01ACEEB4EFA5016C
S1131990940127D3DC01CB018C0D9D1DAE1DBF1D11
S11319A0B7FF03C00197A109B04888839983AA832C
S11319B0BB839F77DF91CF91FF90EF90DF90CF9023
S11319C0BF90AF909F908F900895B9CF80E091E041
S11319D0B6CFA0E0B0E08093000190930101A09302
S11319E00201B093030108950F931F93CF93DF93E4
S11319F0CDB7DEB72E970FB6F894DEBF0FBECDBFBE
S1131A008C0186E08C831A8309838FEF9FE79E8382
S1131A108D83CE01019610D0EF81F885E00FF11F80
S1131A2010822E960FB6F894DEBF0FBECDBFDF91A5
S1131A30CF911F910F9108952F923F924F925F92F1
S1131A406F927F928F929F92AF92BF92CF92DF92CA
S1131A50EF92FF920F931F93CF93DF93CDB7DEB72F
S1131A602B970FB6F894DEBF0FBECDBF6C017B0180
S1131A708A01FC0117821682838181FFBFC1CE01D6
S1131A8001963C01F6019381F70193FD859193FF43
S1131A9081917F01882309F4ADC1853239F493FD26
S1131AA0859193FF81917F01853221F4B60190E005
S1131AB0D6D1E8CF912C212C312CFFE1F315D8F0AD
S1131AC08B3279F038F4803279F08332A1F4232D0B
S1131AD020611DC08D3261F0803369F4232D2160B3
S1131AE016C0832D8260382EE32DE4603E2E2AC07A
S1131AF0F32DF8601DC037FC2DC020ED280F2A30CF
S1131B0040F08E32B9F436FC75C1232D2064322E98
S1131B1019C036FE06C08AE0989E200D1124922E2C
S1131B2011C0EAE02E9E200D1124222EF32DF06226
S1131B303F2E08C08C3621F4832D8068382E02C0D5
S1131B40883641F4F70193FD859193FF81917F01DC
S1131B508111B3CF982F9F7D9554933028F40C5F57
S1131B601F4F9FE399830DC0833631F0833771F0A3
S1131B70833509F055C020C0F801808189830E5F48
S1131B801F4F88248394912C530112C02801F2E042
S1131B904F0E511CF801A080B18036FE03C0692DA0
S1131BA070E002C06FEF7FEFC5014ED14C0182019E
S1131BB0F32DFF773F2E15C0280122E0420E511C61
S1131BC0F801A080B18036FE03C0692D70E002C028
S1131BD06FEF7FEFC5012DD14C01F32DF0683F2E3F
S1131BE0820133FC19C0822D90E088169906A0F476
S1131BF0B60180E290E033D12A94F5CFF50137FCA9
S1131C00859137FE81915F01B60190E028D12110C2
S1131C102A9421E0821A91088114910479F7E1C091
S1131C20843611F0893639F5F80137FE07C0608132
S1131C307181828193810C5F1F4F08C06081718123
S1131C40072E000C880B990B0E5F1F4FF32DFF76A8
S1131C503F2E97FF09C090958095709561957F4FB1
S1131C608F4F9F4FF0683F2E2AE030E0A30133D11D
S1131C70882E861844C0853731F4232D2F7EB22E4A
S1131C802AE030E025C0932D997FB92E8F36C1F01C
S1131C9018F4883579F0AEC0803719F0883721F010
S1131CA0A9C0E92FE061BE2EB4FE0DC0FB2DF46087
S1131CB0BF2E09C034FE0AC0292F2660B22E06C0EA
S1131CC028E030E005C020E130E002C020E132E04D
S1131CD0F801B7FE07C060817181828193810C5F36
S1131CE01F4F06C06081718180E090E00E5F1F4F3E
S1131CF0A301F1D0882E8618FB2DFF773F2E36FEE8
S1131D000DC0232D2E7FA22E891458F434FE0BC04F
S1131D1032FC09C0832D8E7EA82E05C0B82CA32CBE
S1131D2003C0B82C01C0B92CA4FE0FC0FE01E80DFD
S1131D30F11D8081803321F49A2D997EA92E09C04A
S1131D40A2FE06C0B394B39404C08A2D867809F029
S1131D50B394A3FC10C0A0FE06C0B21480F4280CF7
S1131D60922C9B180DC0B21458F4B60180E290E096
S1131D7076D0B394F8CFB21418F42B1802C0982C70
S1131D80212CA4FE0FC0B60180E390E068D0A2FE2F
S1131D9016C0A1FC03C088E790E002C088E590E08B
S1131DA0B6010CC08A2D867851F0A1FE02C08BE2E8
S1131DB001C080E2A7FC8DE2B60190E050D0891406
S1131DC030F4B60180E390E04AD09A94F8CF8A9434
S1131DD0F301E80DF11D8081B60190E040D081103F
S1131DE0F6CF222009F44ECEB60180E290E037D03F
S1131DF02A94F7CFF6018681978102C08FEF9FEF77
S1131E002B960FB6F894DEBF0FBECDBFDF91CF91F6
S1131E101F910F91FF90EF90DF90CF90BF90AF9004
S1131E209F908F907F906F905F904F903F902F90F6
S1131E300895FC010590615070400110D8F7809519
S1131E4090958E0F9F1F0895FC0161507040019082
S1131E500110D8F7809590958E0F9F1F08950F93CA
S1131E601F93CF93DF93FB01238121FD03C08FEFE9
S1131E709FEF2CC022FF16C04681578124813581F3
S1131E804217530744F4A081B1819D012F5F3F4F56
S1131E90318320838C93268137812F5F3F4F378393
S1131EA0268314C08B01EC01FB010084F185E02D35
S1131EB00995892BE1F6D80116968D919C91179777
S1131EC0019617969C938E931697CE01DF91CF912E
S1131ED01F910F910895FA01AA27283051F120315A
S1131EE081F1E8946F936E7F6E5F7F4F8F4F9F4FAA
S1131EF0AF4FB1E03ED0B4E03CD0670F781F891FEC
S1131F009A1FA11D680F791F8A1F911DA11D6A0FB9
S1131F10711D811D911DA11D20D009F468943F916C
S1131F202AE0269F11243019305D3193DEF6CF016B
S1131F300895462F4770405D4193B3E00FD0C9F731
S1131F40F6CF462F4F70405D4A3318F0495D31FD9E
S1131F504052419302D0A9F7EACFB4E0A6959795F1
S1131F60879577956795BA95C9F7009761057105C7
S1131F7008959B01AC010A2E069457954795379511
S1131F802795BA95C9F7620F731F841F951FA01D6B
S1131F900895052E97FB16F400940FD057FD05D035
S1131FA024D007FC02D046F408C0509540953095E3
S1131FB021953F4F4F4F5F4F0895909580957095B1
S1131FC061957F4F8F4F9F4F089531D0A59F900DFE
S1131FD0B49F900DA49F800D911D11240895B7FF07
S1131FE0F4CFF3DF821B930B0895A1E21A2EAA1BF0
S1131FF0BB1BFD010DC0AA1FBB1FEE1FFF1FA217B5
S1132000B307E407F50720F0A21BB30BE40BF50BB1
S1132010661F771F881F991F1A9469F7609570953A
S1132020809590959B01AC01BD01CF010895A29FBD
S1132030B001B39FC001A39F700D811D1124911D98
S1132040B29F700D811D1124911D0895F894FFCF46
S11320500100000003004D000100018055403F3E97
S1132060000000000000000000000000000000006C
S1132070000000000000000000000000000000005C
S1132080000000000000000000000000000000004C
S1132090000000000000000000000000000000003C
S11320A0000000000000000000000000000000002C
S11320B0000000000000000000000000000000001C
S11320C0000000000000000000000000000000000C
S11320D000000000000000000000000000000000FC
S11320E000000000000000000000000000000000EC
S11320F000000000000000000000000000000000DC
S113210000000000000000000000000000000000CB
S113211000000000000000000000000000000000BB
S1132120000000000020202000000000000000004B
S1132130000000000000000000000000000000009B
S1132140000000000000000000000000000000008B
S1132150000000000000000000000000000000007B
S1132160000000000000000000000000000000006B
S1132170000000000000000000000000000000005B
S1132180000000000000000000000000000000004B
S1132190000000000000000000000000000000003B
S11321A0000000000000000000000000000000002B
S11321B0000000000000000000000000000000001B
S11321C0000000000000000000000000000000000B
S11321D000000000000000000000000000000000FB
S11321E0000000000000000000000000004B4D4D06
S11321F0277320534E414B452047414D45004741ED
S11322004D45204F564552000000000000000000DC
S113221000000000000000000000000000000000BA
S11322200000C0404000000000000000000000C0AA
S113223000000000000000000000000000C00000DA
S11322400000000000000000C00000000000C040CA
S113225040000000000000000000000080000000BA
S1132260000000000000000000000000000000006A
S1132270000000000000000000000000000000005A
S1132280000000000000000000000000000000004A
S1132290000000000000000000000000000000003A
S11322A000001F121200001F01031E011F00001F67
S11322B011111F00041F151506001F11111F000422
S11322C01F151506001F11111F0000000000131236
S11322D01E08414E380E0100171509011F11041F75
S11322E0151506001F01031E011F00000000000059
S11322F000000000000000000000000000000000DA
S113230000000000000000000000000000000000C9
S113231000000000000000000000000000000000B9
S113232000000000000000000000000000000000A9
S11323300000000000000000000000000000000099
S11323400000000000000000000000000000000089
S11323500000000000000000000000000000000079
S11323600000000000000000000000000000000069
S11323700000000000000000000000000000000059
S11323800000000000000000000000000000000049
S11323900000000000000000000000000000808039
S11323A080808080808080808080808080808000A9
S11323B0000000000000000000000000C0C0C0C019
S11323C0C0C0C0C0C0C0C0C00000000000E0E0E069
S11323D00000000000000000000000000080808079
S11323E080808080808080808000000000E0E0E0C9
S11323F000000000000000000000000000000000D9
S113240000000000000000000000000000000000C8
S113241000000000000000000000000000000303B2
S1132420030303030303030303030303FFFFFF0087
S1132430000000000000000000000000FFFFFF811A
S11324408181818181FFFFFFE7E7E7E7E7FFFFFF86
S113245000000000000000000000000000FFFFFF7B
S11324600303030303FFFFFFFF00000000FFFFFF60
S11324700000000000000000000000000000000058
S11324800000000000000000000000000000000048
S11324900000000000000000000000000000000038
S11324A0000000FFFFFF00000000001C1F1F0F00C2
S11324B0000000000000000000000000030303030C
S11324C0C3E3F3F37B3B3B3B3838383870F7E7E73B
S11324D08000000000000000000000000007070763
S11324E0E7E7E707070707070700000000FFFFFF0C
S11324F000000000000000000000000000000000D8
S113250000000000000000000000000000000000C7
S11325100000000000000000000000070707070794
S11325200707070707070707070707070707070737
S11325300707000000000000000000000000000089
S1132540070F1F1E3C383838383838381C1F0F0F17
S11325500300000000000000000000000000000074
S11325603F3F3F38383838383838383838383838D2
S1132570380000000000000000000000000000001F
S11325800000000000000000000000000000000047
S11325900000000000000000000000000000000037
S11325A00000000000000000000000000000000027
S11325B00000000000000000000000000000000017
S11325C00000000000000000000000000000000007
S11325D000000000000000000000000000000000F7
S11325E000000000000000000000000000000000E7
S11325F000000000000000000000000000000000D7
S10B26000000000000000000CE
S9030000FC
