S01500004F4C45445F70726163746963652E7372656341
S113000035C1000050C100004EC100004CC10000C9
S11300104AC1000048C1000046C1000044C10000BC
S113002042C1000040C100003EC100003CC10000CC
S11300303AC1000038C1000036C1000034C10000DC
S113004032C1000030C100002EC100002CC10000EC
S11300502AC1000028C1000026C1000024C10000FC
S113006022C1000020C100001EC100001CC100000C
S11300701AC1000018C1000016C1000014C100001C
S113008012C1000010C100000EC1000000000000F9
S11300900000005F00000007000700147F147F14B5
S11300A0242A7F2A122313086462364955225000F9
S11300B005030000001C2241000041221C0014081A
S11300C03E081408083E08080050300000080808DC
S11300D00808006060000020100804023E514945F1
S11300E03E00427F400042615149462141454B3127
S11300F01814127F1027454545393C4A49493001B7
S1130100710905033649494936064949291E00360D
S1130110360000005636000008142241001414145E
S1130120141400412214080201510906324979418C
S11301303E7E1111117E7F494949363E414141229B
S11301407F4141221C7F494949417F090909013EF8
S11301504149497A7F0808087F00417F41002040D7
S1130160413F017F081422417F404040407F020C00
S1130170027F7F0408107F3E4141413E7F09090907
S1130180063E4151215E7F091929464649494931B4
S113019001017F01013F4040403F1F2040201F3F9D
S11301A04038403F6314081463070870080761511E
S11301B0494543007F4141000204081020004141A9
S11301C07F00040201020440404040400001020458
S11301D00020545454787F484444383844444420DC
S11301E0384444487F3854545418087E0901020C9A
S11301F05252523E7F0804047800447D400020405F
S1130200443D007F1028440000417F40007C0418D6
S113021004787C0804047838444444387C14141466
S113022008081414187C7C08040408485454542006
S1130230043F4440203C4040207C1C2040201C3C87
S11302404030403C44281028440C5050503C4464F6
S1130250544C44000836410000007F000000413641
S113026008001008081008784641467811241FBE7B
S1130270CFEFD0E1DEBFCDBF19E0A0E0B1E0E0EE0A
S1130280FCE000E00BBF02C007900D92A433B1075D
S1130290D9F729E0A4E3B9E001C01D92A43BB20759
S11302A0E1F7E4D11BC5ACCE082E000C990B809766
S11302B0FC01EE0FFF1FEE0FFF1FE80FF91FE457BD
S11302C0FF4FDB019B012B5F3F4F84918D93319650
S11302D0A217B307D1F7FB011582089584EA80932E
S11302E07400E0E7F0E084818823ECF790917100DA
S11302F0987F21E030E0983011F420E030E0882746
S11303009927821B930B089580FD02C048E101C028
S113031040E4E0E7F0E0838384E8848384818823F5
S1130320ECF790917100987F21E030E0941302C0C3
S113033020E030E088279927821B930B0895E0E79B
S1130340F0E0838384E8848384818823ECF79091AC
S11303507100987F21E030E0983211F420E030E021
S113036088279927821B930B0895CF92DF92EF92EF
S1130370FF920F931F93CF93DF93C82FD62F6A0159
S11303808901ACDF892BD9F48C2F880FBDDF892B31
S1130390D1F48D2FD4DF7C01892BC9F410161106FA
S11303A054F4E6010C0D1D1D8991C9DF892B99F4C4
S11303B00C171D07C9F784E9809374000FC0EE245D
S11303C0EA94FE2C0BC0EE24EA94FE2C07C0EE2423
S11303D0EA94FE2C03C0EE24EA94FE2CC701DF91BC
S11303E0CF911F910F91FF90EF90DF90CF900895E0
S11303F0E0E7F0E085E0808311820895262F30E065
S1130400AC0160E08CE3B1CF0895CF93DF931F92EA
S1130410CDB7DEB7806B898361E0CE010196EEDF54
S11304200F90DF91CF9108951F93CF93DF931F9285
S1130430CDB7DEB7182F8F70898361E0CE010196A6
S1130440DDDF12951F701061198361E0CE01019602
S1130450D5DF0F90DF91CF911F9108959B01AC01DF
S113046060E48CE382CF0895CF93DF9300D0CDB7BF
S1130470DEB78FE99FE00197F1F700C000008DE837
S1130480898384E18A8362E0CE010196B7DF84EA3E
S1130490898361E0CE010196B1DF8FEA898361E04F
S11304A0CE010196ABDF0F900F90DF91CF910895AD
S11304B0CF93E4E3F9E084EB99E011928E179F0760
S11304C0E1F7C0E08C2FA1DF60E870E084E399E0FD
S11304D0C5DFCF5FC830B1F780E0A6DFCF910895C4
S11304E08F929F92AF92BF92CF92DF92EF92FF9240
S11304F00F931F93CF93DF93CDB7DEB766970FB6F5
S1130500F894DEBF0FBECDBF8DA09FA0AE01455DA8
S11305105F4F69A57AA5CE0101960BD15C0118162F
S1130520190644F58E010F5F1F4F0F2EF4E3EF2ED3
S1130530F9E0FF2EF02D6801C80ED91EB701F801AD
S113054081918F01B1DEF6E0EF0EF11C0C151D0553
S1130550A9F7882D5ADF892D880F890D880F64DF4C
S1130560B501660F771F6A0D7B1D660F771F84E345
S113057099E074DFC50166960FB6F894DEBF0FBE2E
S1130580CDBFDF91CF911F910F91FF90EF90DF903E
S1130590CF90BF90AF909F908F9008950F931F932B
S11305A0CF938C01C0E08C2F30DF60E870E0C8018D
S11305B055DFCF5F00581F4FC830A9F7CF911F9167
S11305C00F9108951F93CF93DF9300D0CDB7DEB77B
S11305D00FDF4ADF80E2898312E01A8362E0CE01F2
S11305E001960CDF65DF88EC898361E0CE0101961A
S11305F005DF80EA898361E0CE010196FFDE86EAA9
S1130600898361E0CE010196F9DE80E091E09F9359
S11306108F931F921F921F921F9262DF84E191E0D9
S11306209F938F931F921F931F921F9359DF8BE108
S113063091E09F938F931F921F931F9283E08F9358
S11306404FDF82E291E09F938F931F921F931F923B
S113065084E08F9345DF0FB6F894DEBF0FBECDBFA5
S11306600F900F90DF91CF911F910895CF93DF9357
S11306701F92CDB7DEB7A6DF1BDF0F2EF1EAEF2EF8
S1130680F02D0F2EF1ECFF2EF02D00EA19EC10DF07
S1130690E98261E0CE010196B1DE84E395E07EDF7C
S11306A02FEF83ED90E3215080409040E1F700C0AC
S11306B0000084E391E072DF2FEF83ED90E321509B
S11306C080409040E1F700C00000F98261E0CE0173
S11306D0019694DE84E395E061DF2FEF83ED90E3F0
S11306E0215080409040E1F700C00000098361E0A0
S11306F0CE01019683DE84E395E050DF2FEF83ED96
S113070090E3215080409040E1F700C0000019833D
S113071061E0CE01019672DE84E395E03FDF2FEFC6
S113072083ED90E3215080409040E1F700C0000049
S1130730AECF0F931F93CF93DF93CDB7DEB72E9732
S11307400FB6F894DEBF0FBECDBF8C0186E08C835C
S11307501A8309838FEF9FE79E838D83CE010196D1
S113076010D0EF81F885E00FF11F10822E960FB69E
S1130770F894DEBF0FBECDBFDF91CF911F910F91D3
S113078008952F923F924F925F926F927F928F9231
S11307909F92AF92BF92CF92DF92EF92FF920F930C
S11307A01F93CF93DF93CDB7DEB72B970FB6F89493
S11307B0DEBF0FBECDBF6C017B018A01FC01178235
S11307C01682838181FFBFC1CE0101963C01F601EF
S11307D09381F70193FD859193FF81917F01882394
S11307E009F4ADC1853239F493FD859193FF81916C
S11307F07F01853221F4B60190E0D6D1E8CF912C67
S1130800212C312CFFE1F315D8F08B3279F038F438
S1130810803279F08332A1F4232D20611DC08D3202
S113082061F0803369F4232D216016C0832D82602A
S1130830382EE32DE4603E2E2AC0F32DF8601DC04F
S113084037FC2DC020ED280F2A3040F08E32B9F449
S113085036FC75C1232D2064322E19C036FE06C025
S11308608AE0989E200D1124922E11C0EAE02E9E5B
S1130870200D1124222EF32DF0623F2E08C08C3659
S113088021F4832D8068382E02C0883641F4F701A4
S113089093FD859193FF81917F018111B3CF982FAF
S11308A09F7D9554933028F40C5F1F4F9FE39983E9
S11308B00DC0833631F0833771F0833509F055C0AC
S11308C020C0F801808189830E5F1F4F88248394A0
S11308D0912C530112C02801F2E04F0E511CF80173
S11308E0A080B18036FE03C0692D70E002C06FEFB6
S11308F07FEFC5014ED14C018201F32DFF773F2ECE
S113090015C0280122E0420E511CF801A080B180DC
S113091036FE03C0692D70E002C06FEF7FEFC501A2
S11309202DD14C01F32DF0683F2E820133FC19C008
S1130930822D90E088169906A0F4B60180E290E03A
S113094033D12A94F5CFF50137FC859137FE819197
S11309505F01B60190E028D121102A9421E0821A87
S113096091088114910479F7E1C0843611F0893635
S113097039F5F80137FE07C0608171818281938166
S11309800C5F1F4F08C060817181072E000C880B1B
S1130990990B0E5F1F4FF32DFF763F2E97FF09C073
S11309A090958095709561957F4F8F4F9F4FF0681C
S11309B03F2E2AE030E0A30133D1882E861844C0AC
S11309C0853731F4232D2F7EB22E2AE030E025C066
S11309D0932D997FB92E8F36C1F018F4883579F0AC
S11309E0AEC0803719F0883721F0A9C0E92FE06143
S11309F0BE2EB4FE0DC0FB2DF460BF2E09C034FE24
S1130A000AC0292F2660B22E06C028E030E005C0B7
S1130A1020E130E002C020E132E0F801B7FE07C077
S1130A2060817181828193810C5F1F4F06C0608158
S1130A30718180E090E00E5F1F4FA301F1D0882EFA
S1130A408618FB2DFF773F2E36FE0DC0232D2E7FFB
S1130A50A22E891458F434FE0BC032FC09C0832D35
S1130A608E7EA82E05C0B82CA32C03C0B82C01C0C0
S1130A70B92CA4FE0FC0FE01E80DF11D8081803366
S1130A8021F49A2D997EA92E09C0A2FE06C0B39422
S1130A90B39404C08A2D867809F0B394A3FC10C0E3
S1130AA0A0FE06C0B21480F4280C922C9B180DC032
S1130AB0B21458F4B60180E290E076D0B394F8CF43
S1130AC0B21418F42B1802C0982C212CA4FE0FC0C9
S1130AD0B60180E390E068D0A2FE16C0A1FC03C07A
S1130AE088E790E002C088E590E0B6010CC08A2D4A
S1130AF0867851F0A1FE02C08BE201C080E2A7FC1F
S1130B008DE2B60190E050D0891430F4B60180E350
S1130B1090E04AD09A94F8CF8A94F301E80DF11D3D
S1130B208081B60190E040D08110F6CF222009F4F4
S1130B304ECEB60180E290E037D02A94F7CFF6018A
S1130B408681978102C08FEF9FEF2B960FB6F894A2
S1130B50DEBF0FBECDBFDF91CF911F910F91FF90EC
S1130B60EF90DF90CF90BF90AF909F908F907F9049
S1130B706F905F904F903F902F900895FC010590E7
S1130B80615070400110D8F7809590958E0F9F1F8B
S1130B900895FC016150704001900110D8F78095D0
S1130BA090958E0F9F1F08950F931F93CF93DF93FC
S1130BB0FB01238121FD03C08FEF9FEF2CC022FF97
S1130BC016C046815781248135814217530744F466
S1130BD0A081B1819D012F5F3F4F318320838C938E
S1130BE0268137812F5F3F4F3783268314C08B01C3
S1130BF0EC01FB010084F185E02D0995892BE1F6D8
S1130C00D80116968D919C911797019617969C93EF
S1130C108E931697CE01DF91CF911F910F91089576
S1130C20FA01AA27283051F1203181F1E8946F9319
S1130C306E7F6E5F7F4F8F4F9F4FAF4FB1E03ED0BF
S1130C40B4E03CD0670F781F891F9A1FA11D680F5D
S1130C50791F8A1F911DA11D6A0F711D811D911D90
S1130C60A11D20D009F468943F912AE0269F112405
S1130C703019305D3193DEF6CF010895462F477069
S1130C80405D4193B3E00FD0C9F7F6CF462F4F70C4
S1130C90405D4A3318F0495D31FD4052419302D022
S1130CA0A9F7EACFB4E0A6959795879577956795C8
S1130CB0BA95C9F700976105710508959B01AC01C8
S1130CC00A2E06945795479537952795BA95C9F7EF
S1130CD0620F731F841F951FA01D0895F894FFCF02
S1130CE03E20506F736974696F6E65642054657833
S1130CF074203C004576656E203A004F64642020E1
S1130D003A004B4F204D796F756E672D6D696E00FB
S1130D102536640000000000000000000000000010
S1130D2000000000000000000000000000000000BF
S1130D3000000000000000000000000000000000AF
S1130D40000000000000800000800000000000009F
S1130D50000000000000000000000000000000008F
S1130D60004000108000008000C0804080C0000867
S1130D70000202000000000000000000000000006B
S1130D80000000000000000000000000000000005F
S1130D90000000000000000000000000000000004F
S1130DA000000000000000000000000000200050CF
S1130DB05090B5F0E284848CCA15080A33003F03CE
S1130DC0028D43692E0D96AB0C54EAA8B4B4E0E04E
S1130DD0821010000000200000000010010000003C
S1130DE015140644840580010080040200014103B7
S1130DF0B7A6EE6CA800000110000000000000007F
S1130E0000000000000000000000000000000000DE
S1130E1000000000000000000000000000000000CE
S1130E2000000001000000004000000040501000DD
S1130E300404000149A1508004408080004000C0A7
S1130E4002000080020A224465855514B93B4BDB3D
S1130E50D3B3B37754040100000000000000000085
S1130E601000030305030000400100000C00000C07
S1130E700B22012108000200000000000000000015
S1130E80000000000000000000000000000000005E
S1130E90000000000000000000000000000000004E
S1130EA00000000000000000000000000800010233
S1130EB00A0521169E0B255A568F33802C10800369
S1130EC0EF3000C0F944000020D064CF091933404A
S1130ED006028515000000000040400000000000EC
S1130EE0808080000010A02060C080205080C80056
S1130EF010F01C90483018A0D268B4C842A2905098
S1130F00404000000000000000000000000000005D
S1130F100000000000001000000000008080C0A05D
S1130F20000000101050303004C0C0C000000000A9
S1130F3000000000000000000020004000A00300AA
S1130F400720004140C020C0E048804002800040AB
S1130F50510000000000000C0000000000808880A8
S1130F60050509090F1D1E1821080C0500002100A4
S1130F7020430020080406A2A2B55A5251545C5BD7
S1130F805B1B1E5459797150544040000800000006
S1130F900000000000000000010000000200301802
S1130FA01008200810006005415A2E0E1D0D00087F
S1130FB000000400000000042525020E0C0005803A
S1130FC00001000140040222089B180B5E5EDEDA79
S1130FD05AD8D8002080800000000010000A0224A3
S1130FE0494121A040C8C4EAA054806438300008B4
S1130FF00400F8E0000010200200440A489189EB44
S113100033336565995F36B6220A02002028000052
S113101000000000000000000000000000000000CC
S1131020000000000000000000000100008080209B
S113103000000400000020000002040C0F161C260F
S11310408328000306004170080001752E0B120569
S113105085071200200400000000000000000000CA
S11310600001000005020341042A16210E600B0C46
S113107000F800F10700703F1C07200008360D320D
S11310800103060800010000020000000000000047
S1131090000000000000000000000000000000004C
S11310A0000000000000000000000000000000003C
S11310B00000000000000000200000000000000408
S11310C004000000000001000000400000000000D7
S11310D0000000000000000000000000000000000C
S11310E000000000200000000000000000020000DA
S11310F000000000000001010000000000000000EA
S113110000000000000000000000000000000000DB
S113111000000000000000000000000000000000CB
S11311200000000000000000000000000000C040BB
S11311304000000000000000000000C000000000AB
S1131140000000000000000000C0000000000000DB
S113115000000000C00000000000C040400000008B
S113116000000000000000008000000000000000FB
S1131170000000000000000000000000000000006B
S1131180000000000000000000000000000000005B
S1131190000000000000000000000000000000004B
S11311A000000000000000000000000000001F120A
S11311B01200001F01031E011F00001F11111F0058
S11311C0041F151506001F11111F00041F15150615
S11311D0001F11111F000000000013121E08414ED1
S11311E0380E0100171509011F11041F15150600FB
S11311F01F01031E011F000000000000000000008A
S113120000000000000000000000000000000000DA
S113121000000000000000000000000000000000CA
S113122000000000000000000000000000000000BA
S113123000000000000000000000000000000000AA
S1131240000000000000000000000000000000009A
S1131250000000000000000000000000000000008A
S1131260000000000000000000000000000000007A
S1131270000000000000000000000000000000006A
S1131280000000000000000000000000000000005A
S1131290000000000000000000000000000000004A
S11312A0000000000000000000008080808080803A
S11312B080808080808080808080800000000000AA
S11312C00000000000000000C0C0C0C0C0C0C0C01A
S11312D0C0C0C0C00000000000E0E0E0000000006A
S11312E0000000000000000000808080808080807A
S11312F0808080808000000000E0E0E000000000CA
S113130000000000000000000000000000000000D9
S113131000000000000000000000000000000000C9
S113132000000000000000000000030303030303A7
S11313300303030303030303FFFFFF000000000094
S11313400000000000000000FFFFFF818181818117
S113135081FFFFFFE7E7E7E7E7FFFFFF000000008B
S1131360000000000000000000FFFFFF0303030370
S113137003FFFFFFFF00000000FFFFFF000000006D
S11313800000000000000000000000000000000059
S11313900000000000000000000000000000000049
S11313A0000000000000000000000000000000FF3A
S11313B0FFFF00000000001C1F1F0F0000000000C2
S11313C0000000000000000003030303C3E3F3F381
S11313D07B3B3B3B3838383870F7E7E78000000048
S11313E0000000000000000000070707E7E7E70728
S11313F0070707070700000000FFFFFF00000000C9
S113140000000000000000000000000000000000D8
S113141000000000000000000000000000000000C8
S11314200000000000000007070707070707070779
S11314300707070707070707070707070707000046
S1131440000000000000000000000000070F1F1E45
S11314503C383838383838381C1F0F0F0300000068
S11314600000000000000000000000003F3F3F3883
S11314703838383838383838383838383800000090
S11314800000000000000000000000000000000058
S11314900000000000000000000000000000000048
S11314A00000000000000000000000000000000038
S11314B00000000000000000000000000000000028
S11314C00000000000000000000000000000000018
S11314D00000000000000000000000000000000008
S11314E000000000000000000000000000000000F8
S11314F000000000000000000000000000000000E8
S113150000000000000000000000000000000000D7
S107151000000000D3
S9030000FC
