:1000000045C000009BC000005EC000005CC0000056
:100010005AC00000D8C000000EC1000045C1000059
:100020007CC1000050C0000093C200004CC0000022
:100030004AC0000048C000003EC2000044C00000AA
:1000400042C0000040C000003EC000003CC00000B4
:100050003AC0000038C0000036C0000034C00000C4
:1000600032C0000030C000002EC000002CC00000D4
:100070002AC0000028C0000097C1000024C0000072
:1000800022C0000020C000001EC0000011241FBEBE
:10009000CFEFD0E1DEBFCDBF11E0A0E0B1E0EEECEC
:1000A000F6E000E00BBF02C007900D92AC30B10744
:1000B000D9F721E0ACE0B1E001C01D92AF31B20749
:1000C000E1F7A7D202C39CCFCF93DF931F92CDB7A6
:1000D000DEB7898300008BE990E0FC018081882FE6
:1000E00090E080729927892BB1F38CE990E0298107
:1000F000FC01208300000F90DF91CF910895CF93F2
:10010000DF9300D0CDB7DEB789836A8382E0DCDF7E
:100110008981DADF8981813421F48A81805DD4DFAD
:1001200005C08981823411F48A81CEDF83E0CCDF7F
:1001300000000F900F90DF91CF9108951F920F92C2
:1001400000905F000F92112400905B000F922F939C
:100150003F934F935F936F937F938F939F93AF934F
:10016000BF93EF93FF93CF93DF93CDB7DEB710929A
:10017000170110920F01809111018F5F809311017F
:10018000809111018A3011F41092110180911101B6
:10019000682F81E4B4DF0000DF91CF91FF91EF91F0
:1001A000BF91AF919F918F917F916F915F914F918F
:1001B0003F912F910F9000925B000F9000925F0093
:1001C0000F901F9018951F920F9200905F000F9252
:1001D000112400905B000F922F933F934F935F93F6
:1001E0006F937F938F939F93AF93BF93EF93FF93FF
:1001F000CF93DF93CDB7DEB71092170110920F01A6
:1002000060E083E47CDF0000DF91CF91FF91EF910C
:10021000BF91AF919F918F917F916F915F914F911E
:100220003F912F910F9000925B000F9000925F0022
:100230000F901F9018951F920F9200905F000F92E1
:10024000112400905B000F922F933F934F935F9385
:100250006F937F938F939F93AF93BF93EF93FF938E
:10026000CF93DF93CDB7DEB71092170181E0809373
:100270000F0161E382E443DF0000DF91CF91FF9142
:10028000EF91BF91AF919F918F917F916F915F910E
:100290004F913F912F910F9000925B000F90009231
:1002A0005F000F901F9018951F920F9200905F00B3
:1002B0000F92112400905B000F922F933F934F9366
:1002C0005F936F937F938F939F93AF93BF93EF93BE
:1002D000FF93CF93DF93CDB7DEB781E08093170113
:1002E00010920F0160E382E40ADF0000DF91CF91FA
:1002F000FF91EF91BF91AF919F918F917F916F91FE
:100300005F914F913F912F910F9000925B000F9062
:1003100000925F000F901F9018951F920F9200900F
:100320005F000F92112400905B000F922F933F9378
:100330004F935F936F937F938F939F93AF93BF93ED
:10034000EF93FF93CF93DF93CDB7DEB710921701F2
:1003500010920F0180911101882331F080911101D9
:1003600081508093110103C089E080931101809135
:100370001101682F81E4C3DE0000DF91CF91FF916E
:10038000EF91BF91AF919F918F917F916F915F910D
:100390004F913F912F910F9000925B000F90009230
:1003A0005F000F901F9018951F920F9200905F00B2
:1003B0000F92112400905B000F928F939F93EF9305
:1003C000FF93CF93DF931F92CDB7DEB78CE990E018
:1003D000FC018081898380910C01882339F4898113
:1003E000823021F481E080930C0134C080910C01B3
:1003F000813081F48981833031F481E080930D0173
:1004000010920C0127C0898180931E0182E08093A5
:100410000C0120C080910C01823081F489818330ED
:1004200031F481E080930D0110920C0113C0898199
:100430008093180183E080930C010CC080910C0123
:10044000833041F48981833019F481E080930D0178
:1004500010920C0180910D018130E1F480911E0118
:10046000813431F48091180180538093150110C0BC
:1004700080911E01823431F4809118018F52809353
:100480000E0106C080911E01833411F410920E01FA
:1004900010920D0100000F90DF91CF91FF91EF912D
:1004A0009F918F910F9000925B000F9000925F00E0
:1004B0000F901F9018951F920F9200905F000F925F
:1004C000112400905B000F922F933F938F939F9383
:1004D000EF93FF93CF93DF93CDB7DEB78CE490E03B
:1004E00027EF32ECFC013183208380910E018130B3
:1004F00061F4809115018F5F809315018091150142
:100500008A30A1F41092150111C080910E01823041
:1005100069F480911501882331F080911501815093
:100520008093150103C089E0809315010000DF91DD
:10053000CF91FF91EF919F918F913F912F910F90CC
:1005400000925B000F9000925F000F901F90189533
:100550001F920F9200905F000F92112400905B0099
:100560000F922F933F938F939F93EF93FF93CF938C
:10057000DF93CDB7DEB784E490E022EBFC0120836B
:1005800080910A018130C1F485E690E020910A0152
:10059000FC0120838BE390E020911101022E000CDE
:1005A000330B20503F4FF90120812095FC0120831F
:1005B00088E080930A011BC080910A018830B9F459
:1005C00085E690E020910A01FC0120838BE390E016
:1005D00020911501022E000C330B20503F4FF901E2
:1005E00020812095FC01208381E080930A01000096
:1005F000DF91CF91FF91EF919F918F913F912F913B
:100600000F9000925B000F9000925F000F901F9080
:100610001895CF93DF93CDB7DEB78AE390E02FEF45
:10062000FC01208384E690E02FEFFC01208382E22E
:1006300090E0FC0110828AE690E022E0FC01208339
:100640008AE590E02AEAFC01208389E590E021EF29
:10065000FC0120838FE490E0FC0110828EE490E0A6
:1006600025E0FC0120838CE490E027EF32ECFC01D4
:100670003183208385E490E025E0FC0120838CE435
:1006800090E022EB30E0FC013183208387E590E0AD
:1006900024E4FC012083789401D0FFCFCF93DF9333
:1006A000CDB7DEB78AE990E028E9FC0120838DE927
:1006B00090E026E0FC01208389E990E027E6FC0138
:0E06C00020830000DF91CF910895F894FFCFC2
:0C06CE003F065B4F666D7D077F6F0100EB
:00000001FF
