S024000053656C665F52585F54585F5365676D656E745F50726F666573736F722E737265630E
S113000045C000009BC000005EC000005CC0000052
S11300105AC00000D8C000000EC1000045C1000055
S11300207CC1000050C00000DBC200004CC00000D6
S11300304AC0000048C0000065C2000044C000007F
S113004042C0000040C000003EC000003CC00000B0
S11300503AC0000038C0000036C0000034C00000C0
S113006032C0000030C000002EC000002CC00000D0
S11300702AC0000028C0000097C1000024C000006E
S113008022C0000020C000001EC0000011241FBEBA
S1130090CFEFD0E1DEBFCDBF11E0A0E0B1E0EEE5EF
S11300A0F7E000E00BBF02C007900D92AC30B1073F
S11300B0D9F721E0ACE0B1E001C01D92AA31B2074A
S11300C0E1F7EFD24AC39CCFCF93DF931F92CDB712
S11300D0DEB7898300008BE990E0FC018081882FE2
S11300E090E080729927892BB1F38CE990E0298103
S11300F0FC01208300000F90DF91CF910895CF93EE
S1130100DF9300D0CDB7DEB789836A8382E0DCDF7A
S11301108981DADF8981813421F48A81805DD4DFA9
S113012005C08981823411F48A81CEDF83E0CCDF7B
S113013000000F900F90DF91CF9108951F920F92BE
S113014000905F000F92112400905B000F922F9398
S11301503F934F935F936F937F938F939F93AF934B
S1130160BF93EF93FF93CF93DF93CDB7DEB7109296
S1130170140110920C0180910E018F5F80930E0187
S113018080910E018A3011F410920E0180910E01BB
S1130190682F81E4B4DF0000DF91CF91FF91EF91EC
S11301A0BF91AF919F918F917F916F915F914F918B
S11301B03F912F910F9000925B000F9000925F008F
S11301C00F901F9018951F920F9200905F000F924E
S11301D0112400905B000F922F933F934F935F93F2
S11301E06F937F938F939F93AF93BF93EF93FF93FB
S11301F0CF93DF93CDB7DEB71092140110920C01A8
S113020060E083E47CDF0000DF91CF91FF91EF9108
S1130210BF91AF919F918F917F916F915F914F911A
S11302203F912F910F9000925B000F9000925F001E
S11302300F901F9018951F920F9200905F000F92DD
S1130240112400905B000F922F933F934F935F9381
S11302506F937F938F939F93AF93BF93EF93FF938A
S1130260CF93DF93CDB7DEB71092140181E0809372
S11302700C0161E382E443DF0000DF91CF91FF9141
S1130280EF91BF91AF919F918F917F916F915F910A
S11302904F913F912F910F9000925B000F9000922D
S11302A05F000F901F9018951F920F9200905F00AF
S11302B00F92112400905B000F922F933F934F9362
S11302C05F936F937F938F939F93AF93BF93EF93BA
S11302D0FF93CF93DF93CDB7DEB781E08093140112
S11302E010920C0160E382E40ADF0000DF91CF91F9
S11302F0FF91EF91BF91AF919F918F917F916F91FA
S11303005F914F913F912F910F9000925B000F905E
S113031000925F000F901F9018951F920F9200900B
S11303205F000F92112400905B000F922F933F9374
S11303304F935F936F937F938F939F93AF93BF93E9
S1130340EF93FF93CF93DF93CDB7DEB710921401F1
S113035010920C0180910E01882331F080910E01DE
S1130360815080930E0103C089E080930E01809137
S11303700E01682F81E4C3DE0000DF91CF91FF916D
S1130380EF91BF91AF919F918F917F916F915F9109
S11303904F913F912F910F9000925B000F9000922C
S11303A05F000F901F9018951F920F9200905F00AE
S11303B00F92112400905B000F928F939F93EF9301
S11303C0FF93CF93DF931F92CDB7DEB78CE990E014
S11303D0FC01808189838981823021F481E08093CA
S11303E00D010FC080910D01813059F48981833052
S11303F041F410920D011092180110921101109203
S1130400190180910D01813039F48981813421F4FD
S113041081E08093130115C080910D01813039F47E
S11304208981823421F481E0809317010AC080918C
S11304300D01813031F48981833419F481E0809392
S11304400F0180910D01813089F480911301813075
S113045069F4109211011092190110921001109276
S1130460150189818053809312013BC080910D0155
S1130470813089F480911701813069F48981803356
S113048051F4109218011092190181E08093100127
S11304901092150126C080910D01813089F480915C
S11304A01701813069F48981813351F41092180164
S11304B0109219011092100181E08093150111C06E
S11304C080910D01813069F480910F01813049F4EC
S11304D0109218011092110110921001109215013E
S11304E000C000000F90DF91CF91FF91EF919F9199
S11304F08F910F9000925B000F9000925F000F901D
S11305001F9018951F920F9200905F000F92112474
S113051000905B000F922F933F938F939F93EF93E1
S1130520FF93CF93DF93CDB7DEB78CE490E027EF52
S113053032ECFC013183208380911401813061F419
S113054080910E018F5F80930E0180910E018A309D
S1130550A1F410920E0111C080910C01813069F454
S113056080910E01882331F080910E018150809397
S11305700E0103C089E080930E0180911001813047
S113058061F4809112018F5F8093120180911201B6
S11305908A30A1F41092120111C0809115018130AA
S11305A069F480911201882331F080911201815005
S11305B08093120103C089E0809312010000DF914F
S11305C0CF91FF91EF919F918F913F912F910F9038
S11305D000925B000F9000925F000F901F9018959F
S11305E01F920F9200905F000F92112400905B0005
S11305F00F922F933F938F939F93EF93FF93CF93F8
S1130600DF93CDB7DEB784E490E022EBFC012083D6
S113061080910A018130C1F485E690E020910A01BD
S1130620FC0120838BE390E020910E01022E000C4C
S1130630330B20503F4FF90120812095FC0120838A
S113064088E080930A011BC080910A018830B9F4C4
S113065085E690E020910A01FC0120838BE390E081
S113066020911201022E000C330B20503F4FF90150
S113067020812095FC01208381E080930A01000001
S1130680DF91CF91FF91EF919F918F913F912F91A6
S11306900F9000925B000F9000925F000F901F90EC
S11306A01895CF93DF93CDB7DEB78AE390E02FEFB1
S11306B0FC01208384E690E02FEFFC01208382E29A
S11306C090E0FC0110828AE690E022E0FC012083A5
S11306D08AE590E02AEAFC01208389E590E021EF95
S11306E0FC0120838FE490E0FC0110828EE490E012
S11306F025E0FC0120838CE490E027EF32ECFC0140
S11307003183208385E490E025E0FC0120838CE4A0
S113071090E022EB30E0FC013183208387E590E018
S113072024E4FC012083789401D0FFCFCF93DF939E
S1130730CDB7DEB78AE990E028E9FC0120838DE992
S113074090E026E0FC01208389E990E027E6FC01A3
S111075020830000DF91CF910895F894FFCF2D
S10F075E3F065B4F666D7D077F6F010056
S9030000FC
