S01300005465747269735F753867322E73726563F1
S113000036C4000052C4000050C400004EC40000B6
S11300104CC400004AC4000048C4000046C40000A8
S113002044C4000042C4000040C400003EC40000B8
S11300303CC400003AC4000038C4000036C40000C8
S113004034C4000032C4000030C400002EC40000D8
S11300502CC400002AC4000028C4000026C40000E8
S113006024C4000022C4000020C400001EC40000F8
S11300701CC400001AC4000018C4000016C4000008
S113008014C4000012C4000010C40000BF00030226
S11300900304030504060A00FE07FE0700014202EA
S11300A08807C4200500620721073943C7A004223A
S11300B0079B52476209230E3D424F294906A53248
S11300C028A52401240C3D4257B6D4B624D92200D5
S11300D0250C3D424FA474ABB4480900260D3D42A3
S11300E04F9644495649A4480927061953C700287E
S11300F008BB425752AA152909BB424756AA940085
S11301002A0A2D4647965406A52D2B0A2D46571824
S11301100D5218012C079B3E8F52022D060D4EC71F
S1130120202E089B3E4FB224002F083D4267AD634A
S113013008300B3D425796D46C492D02310A3D429A
S113014057262561D320320C3D42CF928591948568
S11301508300330C3D42C7206699AA250B00340C5A
S11301603D425F2625A564D0C204350B3D42C7310C
S113017031855AB200360C3D4297948589494B1615
S113018000370B3D42C720666156CC00380C3D4217
S1130190CF9269C99269C902390C3D42CF92498A0A
S11301A0126691043A0ABB3E4FB2A4C992003B09BD
S11301B0BB3E4FB2A44A093C08BC425FD4D8003DC0
S11301C0081D4AC7A00E023E08BC4247D8D4063FC9
S11301D00A3D42CF9235E65004400C3D42CF92494D
S11301E04B62491700410C3D425796D4B461C8B4E0
S11301F000420D3D42C71055A264AA448302430A3B
S11302003D42CF92896DC902440F3D42C71055A2A9
S1130210244AA2241A1400450B3D42C7311C9230D3
S11302201C04460A3D42C7311C92B008470B3D42AC
S1130230CF9289A52D5900480A3D4247661B86CCBA
S1130240164908BB42C71275194A0A3D42D716B669
S11302504491044B0D3D42472625252D892A5900FA
S11302604C083D4247D8E3204D0B3D4247A62D4B59
S1130270A2D9024E0C3D4247A64D4A226D5A004F68
S11302800A3D42CF92794B1600500C3D42C7906410
S1130290DAA0844500510A453ECF9279A9AC0152B7
S11302A00D3D42C79064DAA0942A5900530B3D4295
S11302B0CF92A9AB962C0054093D42C720853D013D
S11302C055093D4247E65BB200560D3D4247664B39
S11302D04A4994641100570A3D4247E69228C92DC1
S11302E0580B3D4247A625B54A4D0B590A3D424796
S11302F0A625B5B0095A0A3D42C720661D07015B11
S113030008BB42C710751A5C083D424798760C5DDD
S113031008BB42C7D469085E081D525796D4025FD1
S1130320060D3EC7206006125B4714610A2D42CFBA
S11303309A0C5A3204620B3D424758316993A20029
S1130340630A2D42CF928959B200640A3D4267C5BF
S1130350B4498A12650A2D42CF920D43BA00660B46
S11303603D429754C98628AC01670C3D3ACFA06939
S1130370C9106AC902680A3D4247583169B6006922
S113038008BB424F28B50C6A0BCC3A5FACD5242984
S113039051006B0B3D4247589392A992056C08BBE0
S11303A04287D4CB006D0B2D4287D2A2244AA205EA
S11303B06E092D424762D26C016F092D42CF92D94A
S11303C09205700C3D3A4762D22645094300710AF2
S11303D03D3A8F699314252C72092D424762128B82
S11303E00073092D42CF921E1400740C3D424F98A5
S11303F00D51588A140075092D4247E6A428017648
S11304000B2D4247A625A5248B00770A2D4247666B
S113041049942E00780A2D424796D42AB500790CC7
S11304203D3A47665294504B16007A092D42C7A0B4
S1130430B50D027B0ABC4297122662140A7C063967
S113044043C7217D0BBC428718854A9848007E0922
S11304501D524FA4245202A005006207A10739438C
S1130460473208A20E3D3E573628511225D9104571
S113047000A30C3D429754C9B630521400A40B2D6E
S11304804247964C49B46401A50D453E47A625B59F
S11304906890C21200A6063943C732A70B453ECF67
S11304A0124E9DC66401A8068B5E4712A90D3D42FB
S11304B0CF9229C9A4245AB200AA0AB446CF10295B
S11304C04A7108AB0C2E4257254AA22CCAA200AC92
S11304D007944AC79005AD068C4EC710AE0C3D423A
S11304E0CF920DC93469C902AF060D5EC720B007AB
S11304F09B524F1700B10B354257180D52180D027D
S1130500B209AC4E8F12350D01B309AC4EC79888B1
S11305104302B406125B8F02B50A353E47669B144C
S11305202504B60F3D42CF30244392285112255161
S113053012B706094F4700B806123B8F02B908AB41
S11305404E4F225506BA0AB4468F1249893A04BB63
S11305500D2E42479445599444491401BC0D4E3E16
S11305604FA816A7504BA2210DBD0C4E3E4FA81606
S1130570973049C370BE0E4D3E879AA59194494960
S1130580328401BF0A3D42570E8559CB02C00C4547
S1130590424F9A2D99360C9916C10C45425F6DC98C
S11305A0B461C8B400C20D45425796444BA60D43EE
S11305B0A605C30D45424FA4484BA60D43A605C44A
S11305C00C45424F1D58326D18322DC50D4542570A
S11305D096444BA60D43A605C60C3E42D790949A6A
S11305E086216A1AC70B4D3ACF92896DC95603C842
S11305F00C45424F368CE19084E120C90C45425FA2
S1130600328CE19084E120CA0C454257348CE1904D
S113061084E120CB0C45424F6518C32109C341CC6A
S11306200AC34247962C51CB00CD0AC34257922CA1
S113063051CB00CE0AC3424F6548A29601CF0AC3EC
S11306404247922D51CB00D00E3D42C71055A221F6
S11306502925D1A000D10C454257D26D521269D33D
S113066002D20B45424F9A2D995BB200D30A454200
S11306705F6DC9DC9205D40C45425796444BE6960F
S11306802C00D50B454257D2B4646EC902D60B4533
S1130690424F1D5832B76401D70A2D424796D42AD7
S11306A0B500D80C3D42CF125D92694A1600D90AB2
S11306B045424F1A65DE9205DA0A45425F29F396F0
S11306C02C00DB0B45425796C4995BB200DC0A450B
S11306D0424F39F3962C00DD0B45425F29D3925AE1
S11306E05802DE0C3D42473824D9A0844500DF0D72
S11306F03D42CF924949A992290A00E00C45424F54
S11307009A236B3268C910E10C45425F1D5993412D
S11307104B8600E20D45425796E4C09A0C5A3204C7
S1130720E30D454257D20EACC9A0254300E40C3D6D
S1130730424F1D5893414B8600E50D454257966440
S1130740D99A0C5A3204E60C2E42CF1026C93065D1
S11307508300E70B3D3ACF928959B2D500E80C45A6
S1130760424F9A234B360CE902E90C45425F1D596E
S1130770B261481700EA0D45425796E4C0920D4312
S1130780BA00EB0C3D424F1D58B261481700EC090A
S1130790C34247164A2D03ED08C3424F556A19EE6A
S11307A008C3424F9BD432EF09BB424792492D0301
S11307B0F00B3D42872A2D992D5900F10B454257E4
S11307C0D29C98345B00F20C45424F9A234B664B03
S11307D01600F30B45425F1D59325BB200F40C4521
S11307E0425796E4C092D99205F50C454257D20E71
S11307F02C992D5900F60B3D424F1D58325BB20027
S1130800F70A2D46570E0C3A1001F80B2D42CF2053
S11308102DC9342800F90B45424F9A039993A20439
S1130820FA0A45425F1DC89C1425FB0B45425796A6
S1130830C49993A204FC0A3D424F3973529400FDBB
S11308400D4D3A5F2933294AA8250B00FE0C453A81
S1130850473824996D50C210FF0D4D3A4F39332952
S11308604AA8250B0000000004FFFF00000011242B
S11308701FBECFEFD0E1DEBFCDBF11E0A0E0B1E0FD
S1130880E0EDF8E100E00BBF02C007900D92AC363A
S1130890B107D9F726E0ACE6B1E001C01D92AF3D47
S11308A0B207E1F77FD00C94660CAACB6A3251F000
S11308B018F4693269F03DC06B3281F06C32C9F5CD
S11308C081E0089550E014161506CCF081E00895F7
S11308D050E014161506FCF081E00895242F30E052
S11308E0A4E6B0E0DDD728EF30E040E050E0B6D732
S11308F0233208F5822F0197F1F781E0089580E013
S113090090E025E32A95F1F70000019684179507F6
S1130910C1F781E0089580E090E0EFE9FFE03197CE
S1130920F1F700C00000019684179507B1F781E044
S1130930089580E0089581E00895CF93DF936C34A7
S113094039F06D3459F0683279F4889A899A12C072
S1130950442311F0909A0EC090980CC0442311F0D7
S1130960919A08C0919806C0EC01A0DF811102C0E1
S113097081E08A8F81E0DF91CF9108956CE870E087
S113098089E795E0F2D189E795E0DCD161E089E778
S113099095E093D289E795E0E2D160E089E795E0BC
S11309A0F7C108952DE934E044E459E060E071E0D2
S11309B089E795E0ECD088E780938F0589E795E097
S11309C04CD660E089E795E053D6D8DF0F2EFFEDD3
S11309D0CF2EF5E0DF2EF02D2BED36E0F6018FE083
S11309E090E0A0EFB0E081939193A193B1932E177F
S11309F03F07C9F78FEF9FEFAFEFB0E08093DB06BF
S1130A009093DC06A093DD06B093DE06812C912C36
S1130A1054018394D0E1E12CF12C2EC0F801819192
S1130A209191A191B1918F0184219521A621B721A2
S1130A30892B8A2B8B2BB9F04D2F6C2F89E795E0EE
S1130A4028D2432D6C2F89E795E023D24D2F222401
S1130A5023942C0E622D89E795E01BD2432D622D41
S1130A6089E795E016D2CE5FC038C1F6FFEFEF1AE2
S1130A70FF0ADE5FD03481F0240135010E2C04C05E
S1130A80440C551C661C771C0A94D2F73324339407
S1130A903D0E8601C0E0C2CF4FE36FE789E795E0E2
S1130AA0F8D189E795E064D089E795E04CD0B2CFDE
S1130AB0AF92BF92CF92DF92EF92FF920F931F9368
S1130AC0CF93DF937C01DC019596BC909597969625
S1130AD0DC919697ED91FC91A188CD2FC12CD12C5E
S1130AE0D701ED91FC911197208993960D911C915A
S1130AF09497422F50E0440F551F440F551F440F45
S1130B00551F4C9DC0014D9D900D5C9D900D112471
S1130B10080F191F4C2F60E0C70171D5CF5F8C2FD0
S1130B208D1B8B1528F4BFEFCB1ADB0ACA15C0F254
S1130B30DF91CF911F910F91FF90EF90DF90CF90B5
S1130B40BF90AF900895FC01A081B18150969C9113
S1130B5045A1949FA0011124440F551F440F551F14
S1130B60440F551F60E070E083A194A1A8C60895C6
S1130B70CF93DF93EC019CDFCE0185D5DF91CF913C
S1130B80089528E0FC0120838CE691E00895CF923B
S1130B90DF92EF92FF920F931F93CF93DF931F92F5
S1130BA0CDB7DEB77C016B0189019A0143E55AE0B8
S1130BB068EC7BE02FD6CE010196E3DF860127E9BE
S1130BC037E04981BC01C701A5D20F90DF91CF91D5
S1130BD01F910F91FF90EF90DF90CF900895FC014B
S1130BE0E60FF11D849190E0982F88273196E491C7
S1130BF08E0F911D089580E00895805A9F4FFC0147
S1130C0080818F5F08950F931F93CF93DF93EC013F
S1130C108B01FB01849188833196E491E983FB0184
S1130C203296E491EA83FB013396E491EB83FB0172
S1130C303496E491EC83FB013596E491ED83FB015A
S1130C403696E491EE83FB013796E491EF83FB0142
S1130C503896E491E887FB013996E491E987FB0132
S1130C603A96E491EA87FB013B96E491EB87FB011A
S1130C703C96E491EC87FB013D96E491ED87FB0102
S1130C803E96E491EE87FB013F96E491EF87FB01EA
S1130C907096E491E88B61E1C801A1DF9A8B898B9E
S1130CA063E1C8019CDF9C8B8B8B65E1C80197DFF6
S1130CB09E8B8D8BDF91CF911F910F910895FC0135
S1130CC026A937A9232BE9F1EC5AFF4F20813C9642
S1130CD020833B9740813C96408332973081332375
S1130CE081F1313079F439973081231714F43A962D
S1130CF03083FC01E95AFF4F2081241714F53A96FA
S1130D0020830895FC01EF5AFF4FE081DC01AD5AC6
S1130D10BF4F5C91022E000C330B652F052E000C87
S1130D20770B6E0F711DE7FD7A95261737071CF4B4
S1130D301D96E50FEC93541724F4FC01EF59FF4F73
S1130D4050830895FC01E15AFF4F21E02083B7CF7F
S1130D5008952BEF35E0FC0131AF20AF08952DEF5E
S1130D6035E0FC0131AF20AF0895CF93DF93FC0150
S1130D7026A937A92617370741F0EC0177AB66ABF4
S1130D80895B9F4F40DFCE019ADFDF91CF910895B9
S1130D908A5B9F4FFC01608308950F93DC01999651
S1130DA03C919997431B5F96ED91FC91909709951F
S1130DB00F9108950F93FC01E25AFF4F30813323C2
S1130DC009F465C0222309F462C0223058F00230CD
S1130DD019F46F5F621B0AC0033021F44F5F421B9A
S1130DE051E02DC0502F517000FD29C0DC01D09678
S1130DF03C91D097431708F44AC0D1963C91D197BF
S1130E00431708F044C09F963C919F979E965C912F
S1130E10260F261730F4631718F42FEF230F03C09F
S1130E20652F6317A0F5521790F5651708F4652F21
S1130E30231708F4322F232F261B50E01EC0FC0179
S1130E4036A5631720F137A5631708F531A970A9F2
S1130E50240F241730F4431718F42FEF230F03C083
S1130E60472F4317A0F4721790F4471708F4472F3D
S1130E70231708F4322F232F241BDC019196ED91C4
S1130E80FC9192970480F581E02D052F09950F912F
S1130E9008950F93FC0180A9481768F081A94817A9
S1130EA050F486A5681738F087A5681720F4CF0199
S1130EB000E021E07FDF0F910895633028F4FC0106
S1130EC0EC59FF4F60830895FC01EC59FF4F21E07A
S1130ED020830895461738F4821760F081E02417C0
S1130EE060F080E00895821738F481E0241728F038
S1130EF080E0089581E0089580E00895FF920F93C3
S1130F001F93CF93DF93EC01162FF22E202F69A9A4
S1130F1088A9E0DF882329F02F2D412F6FA58EA506
S1130F20D9DFDF91CF911F910F91FF900895EF9238
S1130F30FF920F93CF93DF937C01342F377081E0BE
S1130F4090E0032E02C0880F991F0A94E2F7C82F7D
S1130F50F701EC59FF4F5081523020F4513021F009
S1130F60782F04C070E002C0782FC0E050E0487FC2
S1130F70D70193968D919C919497ED91FC91D08992
S1130F80D49FF001D59FF00D1124E60FF11DE80F59
S1130F90F91F011107C08081872B8C278193215071
S1130FA0D1F722C0A7014C595F4F9081972B9C2702
S1130FB090833F5F3770215031110EC0D70197964F
S1130FC08C91E80FF11DDA018C91823040F481306C
S1130FD041F0C1E071E006C0770FCC0F03C0C1E05F
S1130FE001C071E02111E1CFDF91CF910F91FF900A
S1130FF0EF900895FC01A081B18185A1982F990FEC
S1131000990F990F90A750969C915097903208F0A1
S11310109FE1990F990F990F97A346A1942F990FC8
S1131020990F990F91A751965C915197242F30E015
S1131030280F311D652F70E06217730714F4852F94
S1131040841B92A7880F880F880F890F83A780EFCE
S113105084A754968D919C915597813F910508F4EE
S113106084A756968C9185A70895C4CF08950F93AD
S1131070CF93DF93EC010DA92BA94CA96AA93EDFFC
S1131080811104C0C25ADF4F188219C081E0FE01E9
S1131090E25AFF4F80838AA99EA5981708F48EA769
S11310A08BA99FA5891708F48FA78CA998A99817CD
S11310B008F488AB8DA999A9891708F489ABDF9145
S11310C0CF910F910895FC0116A684A587A782A548
S11310D080AB83A581ABCF01CACF08950F935DDEAA
S11310E00F910895DC01D2961C92D297D4961C924B
S11310F0D4978FEFD3968C93D397D5968C93D5971B
S11311009196ED91FC9192970280F381E02DCD01AF
S1131110099508950F931F93CF93DF93EC011FAAB2
S11311201EAA38A32F8F7CA36BA34DA31EA2FC0180
S1131130ED5BFF4F1082B0961082319681E0808380
S1131140319680831AA309A3D801ED91FC91CE01B5
S11311500995CE01C7DFCE01FCDDCA5BDF4F1882E3
S1131160DF91CF911F910F910895DC01ED91FC91D6
S113117045856DE22CC30895CF93DF93EC0141E0E4
S11311806CE425D3CE01F1DFDF91CF91089541E0E6
S11311906DE41DC30895CF93DF93EC01662311F032
S11311A0F6DF03C040E06DE412D3CE01DEDFCE01F2
S11311B0E3DF40E06CE4CE010AD3DF91CF910895E0
S11311C01F93CF93DF93EC01162F6078E4DF612F38
S11311D06074CE01E0DF612F6072CE01DCDF612F2D
S11311E06071CE01D8DF612F6870CE01D4DF612F2A
S11311F06470CE01D0DF612F6270CE01CCDF612F2D
S11312006170CE01C8DFCE01C2DFCE01AEDFCE01F8
S1131210B3DFCE01BCDFCE01A8DF40E06CE4CE0139
S1131220D6D2DF91CF911F9108959A01DC011896CF
S1131230ED91FC911997462F67E109950895CF9395
S1131240DF931F92CDB7DEB76983AE014F5F5F4F67
S113125061E0EBDF0F90DF91CF910895DC011896E8
S1131260ED91FC91199720E030E040E068E10995A8
S11312700895DC011896ED91FC91199720E030E077
S113128040E069E109950895EF92FF920F931F934F
S1131290CF93DF938C01E901683161F128F4643163
S11312A0F1F0673149F053C0693109F441C060324B
S11312B009F04DC081E04EC0442309F44AC04150B6
S11312C0E42EF12C8FEFE81AF80AE20EF31E69916E
S11312D0C80176DFEC16FD06D1F781E03BC041E0A2
S11312E06CE475D241E06DE4C80171D2C8013DDF00
S11312F081E030C0FC018789882331F0C80147DFD1
S1131300C80133DFC80138DFC80141DF40E06DE4C4
S1131310C8015DD2C80129DF40E06CE4C80157D29E
S113132081E0F801878B6689C8014ADF81E012C039
S113133040E06DE44CD2C80118DFC8011DDFC801CC
S113134026DFC80112DFF801178A81E003C080E0BC
S113135001C081E0DF91CF911F910F91FF90EF9039
S11313600895EF92FF921F93CF93DF93EC01162F12
S11313707A0174DF60E4CE0162DFE885F9859701C4
S1131380412F67E1CE010995CE0173DFDF91CF9143
S11313901F91FF90EF900895462FDC011696ED9172
S11313A0FC91179720E030E065E109950895462FF8
S11313B0DC011696ED91FC91179720E030E066E190
S11313C0099508959A01DC011696ED91FC91179701
S11313D0462F67E109950895DC011696ED91FC917D
S11313E0179720E030E040E068E109950895DC01BA
S11313F01696ED91FC91179720E030E040E069E10A
S113140009950895EF92FF920F931F93CF93DF9363
S11314101F92CDB7DEB77C018B01D8016C91673187
S1131420C1F018F4653130F436C06A31F0F06E3F23
S113143049F131C0F80141814983D7011696ED91F4
S1131440FC91179720E030E0C70109950E5F1F4F0C
S1131450E4CFF80181818983AE014F5F5F4F61E082
S1131460C701B0DF0E5F1F4FD8CF0F5F1F4FD701EB
S11314701696ED91FC91179720E030E040E0C7010B
S11314800995CBCFF8014181498369E2C7019FD116
S11314900E5F1F4FC2CF0F90DF91CF911F910F911D
S11314A0FF90EF900895EF92FF920F931F93CF93C5
S11314B07C01C42F8901663109F130F4643109F4E7
S11314C03AC0653149F059C0683109F448C0D0F0D8
S11314D0693109F448C051C080916C05882311F02A
S11314E0C701C7DEC701BADE60E0C701A8DE6C2F02
S11314F0C701A5DE81E080936C0540C0642F9FDEA8
S113150081E03CC080916C05882311F0C701B1DEF5
S1131510C93148F0A80168E1C70123DFC851085E5A
S11315201F4FC931B8F7A8016C2FC7011ADF1092F9
S11315306C0581E023C0DC0156968C9156978F3F51
S113154019F488E756968C93D7011896ED91FC917F
S1131550199798014C2F64E1C70109950FC01092A7
S11315606C0581E00BC080916C05882311F0C701E4
S113157080DE10926C0581E001C080E0CF911F9164
S11315800F91FF90EF900895FC0171836083FB013C
S11315902289FC01248B0895CF93DF93EC01EA8523
S11315A0FB8520E030E040E068E20995EE81FF81B0
S11315B020E030E040E064E1CE01099541E06BE4D5
S11315C0CE0105D1E881F981448169E2CE01FFD0E1
S11315D040E06BE4CE01FBD0E881F981448169E20B
S11315E0CE01F5D041E06BE4CE01F1D0E881F98180
S11315F0458169E2CE01EBD0DF91CF9108950F933D
S11316001F93CF93DF9300D000D01F92CDB7DEB7E6
S11316106C834D832B831A830983DC011496ED912B
S1131620FC9115979E012F5F3F4F41E06FE00995B4
S11316300F900F900F900F900F90DF91CF911F910B
S11316400F910895DC011496ED91FC91159720E01B
S113165030E040E069E009950895DC011496ED91CD
S1131660FC91159720E030E040E06AE00995089588
S1131670462FDC011496ED91FC91159720E030E0A3
S11316806BE009950895DC011496ED91FC91159792
S113169020E030E040E060E109950895EF92FF9288
S11316A00F931F93CF93DF938C01C42F79016D3077
S11316B0A9F018F46B3031F063C06E3049F16F302B
S11316C091F15EC0411105C061E371E09BDE81E0F0
S11316D058C06CE271E096DE81E053C041110CC049
S11316E065E271E08FDED801ED91FC91119782895A
S11316F054968C9381E045C06EE171E083DED8019D
S1131700ED91FC911197838954968C9381E039C0B3
S113171063DE61E8C80140DE6C2FC80148DEC80101
S113172066DE81E02EC058DEF701D381DD0FDD0FC8
S1131730DD0FD80154968C91D80F60E4C8012CDEDB
S11317406D2F62956F706061C80126DE6D2F6F701A
S1131750C8012DDEF7016481606BC80128DED70162
S11317604D915C91119712966C91660F660F660FFE
S1131770C80128DEC15099F7C80139DE81E001C0F3
S113178080E0DF91CF911F910F91FF90EF9008952A
S11317900F931F93CF938C01C62F80DF811112C04A
S11317A0C93051F0CA3079F4C801F6DE66E371E05D
S11317B0C80128DE81E007C066E071E0C801E4DE0C
S11317C081E001C081E0CF911F910F910895DC0168
S11317D01A96ED91FC911B9720E030E0099508954D
S11317E080E00895FC011182108280EF9BE09583D4
S11317F08483978386839187808793878287158ADA
S1131800108E118E14861586168617868FEF868B9A
S1131810838F0895AF92BF92CF92DF92EF92FF929F
S11318200F931F93CF93DF93EC015B016A0179015E
S1131830D9DFBD82AC82DF82CE82F986E8861B873F
S11318400A87CE01FFDEDF91CF911F910F91FF90A8
S1131850EF90DF90CF90BF90AF900895A1E21A2E41
S1131860AA1BBB1BFD010DC0AA1FBB1FEE1FFF1F40
S1131870A217B307E407F50720F0A21BB30BE40B90
S1131880F50B661F771F881F991F1A9469F76095D7
S11318907095809590959B01AC01BD01CF01089591
S11318A0A29FB001B39FC001A39F700D811D11249D
S11318B0911DB29F700D811D1124911D0895DC01AD
S11318C001C06D9341505040E0F70895F894FFCF64
S11318D0350863086E080001140A64643232001289
S11318E07A000004289610080000800040001815B3
S11318F0A015C019FF1815A115C819FF1815AE19A0
S1131900FF1815AF19FF1815AE15D5168015A816B2
S11319103F15D316001540158D1614152016001505
S1131920A115C815DA1612158116CF15D916F11599
S10F1930DB1640152E15A415A619FF00A7
S9030000FC
