S024000053746F705F77617463685F556C747261736F6E69635F73656E736F722E7372656368
S113000045C0000060C000005EC000005CC000008D
S11300105AC0000059C000009DC0000003C1000088
S113002033C1000050C000004EC000004CC00000AE
S11300304AC0000048C0000046C0000044C00000A0
S113004061C1000040C000003EC000003CC0000090
S11300503AC0000038C0000036C0000034C00000C0
S113006032C0000030C000002EC000002CC00000D0
S11300702AC0000028C0000026C0000024C00000E0
S113008022C0000020C000001EC0000011241FBEBA
S1130090CFEFD0E1DEBFCDBF11E0A0E0B1E0EAEEEA
S11300A0F6E000E00BBF02C007900D92AA30B10742
S11300B0D9F721E0AAE0B1E001C01D92A233B20752
S11300C0E1F753D210C39CCF1F920F920FB60F9239
S11300D011248F939F93AF93BF938091310181112A
S11300E027C080910A01811114C081E080930A0124
S11300F08091200190912101A0912201B0912301CE
S11301008093100190931101A0931201B0931301F5
S113011018C08130B1F410920A011092200110929B
S11301202101109222011092230110920B0109C0A7
S1130130813039F488E083B985E38A95F1F70000CA
S113014013B8BF91AF919F918F910F900FBE0F90F5
S11301501F9018951F920F920FB60F9211244F9370
S11301605F936F937F938F9380913101811150C07E
S113017080910B01811111C0409120015091210106
S1130180609122017091230140931C0150931D0141
S113019060931E0170931F0129C0813089F440913E
S11301A0200150912101609122017091230140931B
S11301B018015093190160931A0170931B0121C017
S11301C08230A1F4409120015091210160912201DB
S11301D0709123014093140150931501609316010B
S11301E0709317018F5F80930B0112C0833049F421
S11301F010922001109221011092220110922301E9
S113020005C08F5F80930B01843011F410920B01B1
S11302108F917F916F915F914F910F900FBE0F90CF
S11302201F9018951F920F920FB60F9211248F935F
S113023080913101813011F580912801811115C01F
S113024010922D0110922E0110922F011092300164
S113025082E083BF8BE882BF82EA8ABF80ED89BFD8
S113026081E087BF8093280109C0813039F417BE2B
S113027082EB8ABF80ED89BF109228018F910F9085
S11302800FBE0F901F9018951F920F920FB60F92EA
S113029011248F9380913101811119C0F8948FEF4B
S11302A081BB809364008FE082B980E187BB82EBDD
S11302B08ABF80ED89BF789488E083B985E38A9505
S11302C0F1F7000013B881E08093310115C081304B
S11302D099F4F8948FEF81BB8093640012B88AE894
S11302E08ABF80EB89BF87E083BF80EF82BF81E054
S11302F087BF7894109231018F910F900FBE0F90A9
S11303001F9018951F920F920FB60F9211242F93DE
S11303108F939F93AF93BF938091310181112DC02F
S113032080EF82BF109224011092250110922601C1
S1130330109227018091200190912101A091220126
S1130340B09123010196A11DB11D803A26E89207C0
S113035021E0A207B10549F0809320019093210187
S1130360A0932201B093230108C01092200110929F
S113037021011092220110922301809131018130D8
S1130380A9F48BE882BF80912D0190912E01A09158
S11303902F01B09130010196A11DB11D80932D0153
S11303A090932E01A0932F01B0933001BF91AF9190
S11303B09F918F912F910F900FBE0F901F901895C2
S11303C020E137E240E050E050D120930F0128EEC5
S11303D033E040E050E049D120930E0124E630E0C0
S11303E040E050E042D120930D012AE030E040E0AB
S11303F050E03BD120930C01A5E6B0E081E08C9362
S1130400E0910C01F0E0E050FF4F8081809582BBC9
S11304108FE19EE40197F1F700C0000082E08C9325
S1130420E0910D01F0E0E050FF4F8081809582BBA8
S11304308FE19EE40197F1F700C0000084E08C9303
S1130440E0910E01F0E0E050FF4F8081809582BB87
S11304508FE19EE40197F1F700C0000088E08C93DF
S1130460E0910F01F0E0E050FF4F8081809582BB66
S11304708FE19EE40197F1F700C0000080910B0129
S1130480811103C081E08093650080910B0181306C
S113049019F482E08093650080910B01823019F495
S11304A084E08093650080910B01833019F488E027
S11304B0809365008FE782BB8FE19EE40197F1F79B
S11304C000C00000089590912C0189E2989F812D2D
S11304D0112482958F708093290124E6829F9019BC
S11304E011248DEC989F812D1124869586958695EF
S11304F080932A01880F282F220F220F820F981B26
S113050090932B01A5E6B0E081E08C93E0912B0160
S1130510F0E0E050FF4F8081809582BB8FE19EE444
S11305200197F1F700C0000082E08C93E0912A016A
S1130530F0E0E050FF4F8081809582BB8FE19EE424
S11305400197F1F700C0000084E08C93E091290149
S1130550F0E0E050FF4F8081809582BB8FE19EE404
S11305600197F1F700C0000008958FEF81BB8093DD
S1130570640012B880E187BB8AE88ABF80EB89BF38
S113058087E083BF80EF82BF81E087BF78940DE26C
S113059011E00F2EF4E6FF2EF02D6894DD24D1F83F
S11305A00F2EF4E1EF2EF02D80913101811144C022
S11305B080910B01833041F5C2E3D0E060911C01CE
S11305C070911D0180911E0190911F01F9DE219708
S11305D0A9F7C2E3D0E060911801709119018091EC
S11305E01A0190911B01ECDE2197A9F7C2E3D0E038
S11305F06091140170911501809116019091170179
S1130600DFDE2197A9F7D0CF80910A01813051F420
S11306106091100170911101809112019091130168
S1130620CFDEC2CF6091200170912101809122011F
S113063090912301C5DEB8CF813009F0B5CFF80120
S1130640808180932C01843118F0E0922C0104C045
S1130650833010F4D0922C0136DFF3BE80912C014C
S1130660880F880F880F81BF9FCF052E97FB16F444
S113067000940FD057FD05D014D007FC02D046F4E7
S113068008C050954095309521953F4F4F4F5F4F8F
S1130690089590958095709561957F4F8F4F9F4FEA
S11306A00895A1E21A2EAA1BBB1BFD010DC0AA1FAF
S11306B0BB1FEE1FFF1FA217B307E407F50720F0C7
S11306C0A21BB30BE40BF50B661F771F881F991F42
S11306D01A9469F760957095809590959B01AC018B
S10D06E0BD01CF010895F894FFCF87
S10D06EA3F065B4F666D7D077F6FCE
S9030000FC
